:100000000C9408010C9430010C9430010C943001D4
:100010000C9430010C9430010C9430010C9430019C
:100020000C9430010C9430010C94F7130C94771459
:100030000C9430010C9430010C9430010C9430017C
:100040000C9430010C9430010C9430010C9430016C
:100050000C9430010C9430010C9430010C94B305D5
:100060000C9430010C9430010C9430010C9430014C
:100070000C9430010C9430010C9430010C9430013C
:100080000C9430010C9430010C9430010C9430012C
:100090000C9430010C9430010C9430010C9430011C
:1000A0000C9430010C9430010C943001BC01BF0160
:1000B000AE01B201B601E001E001E001C301C701F8
:1000C000CB01D101D501E001DB0187028C02910255
:1000D0009B02A502EF02EF02EF02AF02B902C302D8
:1000E000CD02DA02EF02E2024E414E494E49545926
:1000F000494E46CDCCCC3D0AD7233C17B7D13877F3
:10010000CC2B329595E6241FB14F0A000020410008
:1001100000C84200401C4620BCBE4CCA1B0E5AAE52
:10012000C59D740000000200090F000003040100D7
:100130000C000000000000000000000000000000B3
:100140000000080B00020202010009040000010285
:10015000020000052400100105240101010424020D
:10016000060524060001070581031000400904016B
:1001700000020A0000000705020240000007058394
:10018000024000000403090412010002EF020140D2
:100190004123378000010102030141726475696ED9
:1001A0006F204C4C430041726475696E6F204D693D
:1001B00063726F0000000000250028002B002E0055
:1001C000310000000000240027002A002D0030002C
:1001D00004040404040304050202020204030202EC
:1001E00002020606060606060404020202040404CD
:1001F0000802011040804010204080408008020426
:100200000180402010020110801020404020A716DD
:1002100011241FBECFEFDAE0DEBFCDBF23E0A0E6A2
:10022000B1E001C01D92AF35B207E1F711E0A0E0E7
:10023000B1E0EAECFDE302C005900D92A036B107F3
:10024000D9F711E0C8E0D1E004C02197FE010E9477
:100250009F1CC730D107C9F70E94BC160C94E31E3F
:100260000C940000CF92DF92EF92FF920F931F93B6
:10027000CF93DF936C017A018B01C0E0D0E0CE1503
:10028000DF0589F0D8016D918D01D601ED91FC91CA
:100290000190F081E02DC6010995892B11F47E01B2
:1002A00002C02196ECCFC701DF91CF911F910F9132
:1002B000FF90EF90DF90CF900895CF93DF931F9240
:1002C000CDB7DEB76983DC01ED91FC910280F3814B
:1002D000E02D41E050E0BE016F5F7F4F09950F9028
:1002E000DF91CF910895FC018485958597FD0BC022
:1002F0009FB7F89482E08093E9008091F2009FBF5D
:1003000090E0019608959FB7F89482E08093E90009
:100310008091F2009FBF90E00895089580E090E002
:100320000895362F90E0FC01ED5DFE4F4491FC01F5
:10033000E151FE4F2491FC01E053FE4F849188234C
:1003400009F451C04423E1F150E0FA013197EF3054
:10035000F105B0F5EA5AFF4F0C949F1C9091800074
:100360009F7707C0909180009F7D03C0909180008F
:10037000977F9093800024C094B59F7702C094B576
:100380009F7D94BD1DC0909190009F7707C0909174
:1003900090009F7D03C090919000977F9093900074
:1003A0000FC09091C0009F7703C09091C0009F7DC7
:1003B0009093C00005C09091C200977F9093C200B7
:1003C000E82FF0E0EE0FFF1FEC54FE4FA591B49123
:1003D0008FB7F894EC91311103C020952E2301C002
:1003E0002E2B2C938FBF08953FB7F89480918D01E9
:1003F00090918E01A0918F01B091900126B5A89B9C
:1004000005C02F3F19F00196A11DB11D3FBFBA2FA6
:10041000A92F982F8827820F911DA11DB11DBC0106
:10042000CD0142E0660F771F881F991F4A95D1F7CB
:1004300008950E94FB1290E008950C94C6120F9349
:100440001F93CF93DF931F92CDB7DEB78C01FC01D2
:100450008485958597FF0EC0CE0101960E94D1122A
:10046000019719F4298130E002C02FEF3FEFF80126
:1004700035872487F801848595850F90DF91CF918A
:100480001F910F910895CF93DF931F92CDB7DEB7E1
:10049000FC018485958597FD05C02FEF3FEF3587DB
:1004A00024870BC0CE0101960E94D112019719F446
:1004B000898190E002C08FEF9FEF0F90DF91CF9185
:1004C00008951F93CF93DF93182FEB010E94A7127B
:1004D000209711F460E004C0CF3FD10539F461E00A
:1004E000812FDF91CF911F910C949101E12FF0E0CA
:1004F000ED5DFE4FE4914E2F50E0FA013197EF3061
:10050000F10508F06CC0EB59FF4F0C949F1C84B5AB
:10051000806884BDC7BD68C084B5806284BDC8BD25
:1005200063C080918000806880938000D0938900B0
:10053000C093880059C080918000806280938000C1
:10054000D0938B00C0938A004FC080918000886058
:1005500080938000D0938D00C0938C0045C0809123
:100560009000806880939000D0939900C093980089
:100570003BC080919000806280939000D0939B005C
:10058000C0939A0031C08091900088608093900061
:10059000D0939D00C0939C0027C08091C0008068CC
:1005A0008093C0008091C0008F7B8093C000C09377
:1005B000CF001AC08091C00080628093C000C093B9
:1005C000D00012C08091C20088608093C2008091E8
:1005D000C2008B7F8093C200C093D20005C0C03898
:1005E000D1050CF07CCF76CFDF91CF911F9108958C
:1005F0008F929F92AF92BF92CF92DF92EF92FF9233
:100600000F931F93CF93DF9300D0CDB7DEB76C016C
:100610007B01ADB6BEB619821A82FB010481158139
:100620000F5F1F4FB801C7010E942613882379F07E
:10063000F7012081318184819581BE016F5F7F4FF9
:10064000820F931F0E94B31EF70115830483F701E5
:10065000848195818C01015011092DB73EB7281B6B
:10066000390B0FB6F8943EBF0FBE2DBFEDB7FEB7E6
:1006700031964F01009789F0EF2B79F080179107A1
:1006800008F48C01F70160817181A801C4010E9406
:10069000BA1EF401E00FF11F108261E371E0C401A2
:1006A0000E94E3170E94C117F60160837183828361
:1006B000938361E371E080E090E00E94E3170E9481
:1006C000C117F601648375838683978361E371E0C4
:1006D00080E090E00E94E3170E94C117F601608756
:1006E000718782879387C6010FB6F894BEBE0FBE8E
:1006F000ADBE0F900F90DF91CF911F910F91FF90A2
:10070000EF90DF90CF90BF90AF909F908F90089523
:100710004091930150919401209191013091920167
:1007200042175307B4F49091E8009570E1F390916B
:10073000E80092FD19C08093F1008091930190919F
:10074000940101968F739927892B19F48EEF80936A
:10075000E800809193019091940101969093940107
:100760008093930181E0089580E00895615030F016
:100770002091F100FC0120830196F8CF289A84E6AD
:100780008093E70108958F929F92AF92BF92CF928C
:10079000DF92EF92FF926B017C010E94F4014B010A
:1007A0005C01C114D104E104F104F1F00E94F401F0
:1007B000DC01CB0188199909AA09BB09883E93403D
:1007C000A105B10570F321E0C21AD108E108F108D2
:1007D00088EE880E83E0981EA11CB11CC114D104C0
:1007E000E104F10419F7DDCFFF90EF90DF90CF9097
:1007F000BF90AF909F908F9008958F929F92AF92ED
:10080000BF92CF92DF92EF92FF920F931F93CF93FD
:10081000DF935C016B017A0180910B01882309F45D
:100820005BC08091E801882309F456C0809196014D
:1008300080FF05C08091E00082608093E000E701C6
:1008400010E00AEF83E0882E9AE3992E2097D9F1E1
:100850000E94FB1281110AC0015009F43DC061E001
:1008600070E080E090E00E94C303F0CF282F30E0DA
:10087000C217D3070CF48C2F4FB7F8948092E9007D
:100880009091E80095FF1DC0282F30E0C21BD30BCC
:10089000F601982F915020F081918093F100FACFCA
:1008A000C20ED31E112319F09092E80009C0809166
:1008B000E80085FD06C09092E80011E0209709F05D
:1008C00010E04FBFC3CF1111C3CF5D9A84E6809370
:1008D00095011E141F0444F081E090E0F50193831C
:1008E000828380E090E001C0C701DF91CF911F912A
:1008F0000F91FF90EF90DF90CF90BF90AF909F90BF
:100900008F9008954F925F926F927F928F929F92F5
:10091000AF92BF92CF92DF92EF92FF920F931F930D
:10092000CF93DF93CDB7DEB7A0970FB6F894DEBFB5
:100930000FBECDBFE982FA820B831C832D833E83D9
:100940004F83588769877A878B879C872396CCAC9F
:10095000DDACEEACFFAC23978BA99CA9ADA9BEA9D9
:100960008D879E87AF87B88B4FA858AC69AC7AAC9F
:100970008BAC9CACADACBEAC20E030E04AE753E4BD
:10098000C701B6010E94951987FF13C020E030E02F
:1009900040E85FE3C701B6010E949A1C1816E4F410
:1009A00080E090E0A0E8BFE3898B9A8BAB8BBC8B97
:1009B0001DC020E030E04AE753E4C701B6010E94C1
:1009C000901B698B7A8B8B8B9C8BC12CD12C8AE7EB
:1009D000E82E83E4F82E0AC080E090E0A0E8BFE3B0
:1009E000898B9A8BAB8BBC8B6C017D012D853E85F1
:1009F0004F85588969817A818B819C810E94231B54
:100A0000A70196010E94901B6D8B7E8B8F8B988F18
:100A1000A30192016D817E818F8198850E94231BA5
:100A2000A70196010E94901B698F7A8F8B8F9C8FF4
:100A3000A501940169857A858B859C850E94231B7D
:100A4000A70196010E94901B6D8F7E8F8F8F98A3B8
:100A500000E010E0C701B6010E94021C061717074C
:100A60000CF06AC02D893E894F89588D6D857E8531
:100A70008F8598890E94241B6D877E878F87988B2E
:100A8000298D3A8D4B8D5C8DC301B2010E94241BD0
:100A90002B013C012D8D3E8D4F8D58A1C501B40118
:100AA0000E94241B4B015C016D857E858F85988992
:100AB0000E94021C8AE00E946102C301B2010E94EE
:100AC000021C8BE00E946102C501B4010E94021C5D
:100AD00089E00E9461028D859E85AF85B8898093EB
:100AE0007C0190937D01A0937E01B0937F014092A1
:100AF0008001509281016092820170928301809204
:100B0000840190928501A0928601B0928701698943
:100B10007A898B899C890E94021C072E000C880B05
:100B2000990B0E94C30387E991E00E947301892B0E
:100B300019F40F5F1F4F8ECFA0960FB6F894DEBF4B
:100B40000FBECDBFDF91CF911F910F91FF90EF901E
:100B5000DF90CF90BF90AF909F908F907F906F90DD
:100B60005F904F9008951F920F920FB60F9211242D
:100B70002F933F938F939F93AF93BF93809189015E
:100B800090918A01A0918B01B0918C0130918801E4
:100B900023E0230F2D3720F40196A11DB11D05C0C0
:100BA00026E8230F0296A11DB11D20938801809392
:100BB000890190938A01A0938B01B0938C0180915D
:100BC0008D0190918E01A0918F01B09190010196BD
:100BD000A11DB11D80938D0190938E01A0938F0173
:100BE000B0939001BF91AF919F918F913F912F91C1
:100BF0000F900FBE0F901F9018952F923F924F921B
:100C00005F926F927F928F929F92AF92BF92CF929C
:100C1000DF92EF92FF920F931F93CF93DF93CDB7A5
:100C2000DEB7C256D1090FB6F894DEBF0FBECDBFF6
:100C30002DB73EB7A3963FAF2EAFA39721969FAF98
:100C40008EAF21978E01095C1F4FAE01415C5F4F53
:100C500068E371E021968EAD9FAD21970E94E81761
:100C6000009781F0D8018D939D938D0163E371E02E
:100C70000E94AA1E892B49F721968EAD9FAD219720
:100C80009AAF89AF0FA918AD6AE371E0C8010E945D
:100C9000AA1E892B09F046C010927B0110927A019E
:100CA00069AD7AADCE010D960E949C13BE01635FC3
:100CB0007F4FCE0101960E94F802CE010D960E9450
:100CC000971383E48F938AE78F931F921F92EDB758
:100CD000FEB73C970FB6F894FEBF0FBEEDBFADB7A1
:100CE000BEB711968CE0ECE7F1E001900D928A9589
:100CF000E1F7E980FA800B811C812D813E814F81D3
:100D0000588569857A858B859C850E9482042DB7DC
:100D10003EB7205F3F4F0FB6F8943EBF0FBE2DBFCA
:100D20000C94A1116DE371E0C8010E94AA1E892BE9
:100D300009F092C110927B0110927A0169AD7AADEF
:100D4000CE010D960E949C13BE01635F7F4FCE01C2
:100D500001960E94F802CE010D960E9497138BAD6A
:100D60009CAD0E94C1174B015C0189819A81AB81C6
:100D7000BC816D968CAF9DAFAEAFBFAF6D978D81CF
:100D80009E81AF81B88569968CAF9DAFAEAFBFAF86
:100D9000699789859A85AB85BC8561968CAF9DAF37
:100DA000AEAFBFAF619760E471E0CE010D960E94D7
:100DB0009C13BE01635F7F4FCE0149960E94F802EB
:100DC00083E48F938AE78F931F921F92ADB7BEB7CC
:100DD0001C970FB6F894BEBF0FBEADBF11968CE046
:100DE000ECE7F1E001900D928A95E1F7E98CFA8C3D
:100DF0000B8D1C8D2D8D3E8D4F8D58A169A17AA133
:100E00008BA19CA10E948204CE010D960E94971393
:100E1000A501940160E070E080E89FE30E94901BD0
:100E200020E030E040E05FE30E94FB1920E030E08A
:100E30004AE753E40E94901B20E030E04AE754E484
:100E40000E94FB19A1966CAF7DAF8EAF9FAFA197AB
:100E5000EDB7FEB770960FB6F894FEBF0FBEEDBFAC
:100E6000212C312CB101032C000C880B990B0E9412
:100E70009C192B013C019B01AC016D966CAD7DADC5
:100E80008EAD9FAD6D970E94FB1920E030E04AE7E0
:100E900053E40E94901B4B015C010E94021C8AE0FB
:100EA0000E946102A301920169966CAD7DAD8EAD89
:100EB0009FAD69970E94FB1920E030E04AE753E4B8
:100EC0000E94901B6B017C010E94021C8BE00E941F
:100ED0006102A301920161966CAD7DAD8EAD9FADB7
:100EE00061970E94FB1920E030E04AE753E40E943A
:100EF000901B2B013C010E94021C89E00E946102B0
:100F0000A1966CAD7DAD8EAD9FADA1970E94091CE1
:100F100065966CAF7DAF8EAF9FAF65970E94C303A0
:100F200087E991E00E947301892BD1F080927C01C6
:100F300090927D01A0927E01B0927F01C0928001CB
:100F4000D0928101E0928201F0928301409284016B
:100F50005092850160928601709287010C94A111D4
:100F6000FFEF2F1A3F0A2AEF2216310409F07ACF39
:100F70000AEF10E0B801012E000C880B990B0E94BB
:100F80009C196B017C019B01AC016D966CAD7DAD34
:100F90008EAD9FAD6D970E94FB1920E030E04AE7CF
:100FA00053E40E94901B2B013C010E94021C8AE02A
:100FB0000E946102A701960169966CAD7DAD8EAD70
:100FC0009FAD69970E94FB1920E030E04AE753E4A7
:100FD0000E94901B4B015C010E94021C8BE00E944E
:100FE0006102A701960161966CAD7DAD8EAD9FAD9E
:100FF00061970E94FB1920E030E04AE753E40E9429
:10100000901B6B017C010E94021C89E00E9461021E
:1010100065966CAD7DAD8EAD9FAD65970E94C303A7
:1010200087E991E00E947301892B89F040927C014D
:1010300050927D0160927E0170927F0180928001CA
:1010400090928101A0928201B092830178C50150F3
:10105000110909F08FCF04CF66E471E0C8010E9446
:10106000AA1E892B09F082C510927B0110927A0189
:1010700089AD9AAD0E94C1174B015C0169E471E032
:10108000CE0101960E949C13BE016F5F7F4FCE017F
:101090000D960E94F80283E48F938AE78F931F9244
:1010A0001F928DB79EB70C970FB6F8949EBF0FBED8
:1010B0008DBFADB7BEB711968CE0ECE7F1E00190C3
:1010C0000D928A95E1F7ED84FE840F8518892989B0
:1010D0003A894B895C896D897E898F89988D0E94B8
:1010E0008204CE0101960E94971320E030E044EB89
:1010F00053E4C501B4010E94901B20E030E04AE7B0
:1011000054E40E94FB196D966CAF7DAF8EAF9FAF1C
:101110006D97ADB7BEB750960FB6F894BEBF0FBE71
:10112000ADBF2F961FAE1EAE2F972F96EEADFFAD23
:101130002F97BF01FF0F880B990B0E949C1920E08D
:1011400030E040E752E40E94901B65966CAF7DAFA3
:101150008EAF9FAF659720E030E040EA50E40E94F8
:10116000241B20E030E040EC50E40E94431C5B0173
:101170006C013B014C019B01AC0160E070E080E838
:1011800090E40E94231B162F072FF82EE92E20E053
:1011900030E040E85FE30E94951987FD25C020E01C
:1011A00030E040E85FE3B501C6010E94951987FF72
:1011B0000AC020E030E0A901B501C6010E949A1CD6
:1011C00018160CF05AC020E030E040E85FE3612FD1
:1011D000702F8F2D9E2D0E94951987FD18C070E0ED
:1011E00060E090E88FE315C0212F302F4F2D5E2D4A
:1011F000B501C6010E94951987FF71C020E030E05B
:10120000A901B501C6010E949A1C1816B4F5B801CF
:10121000C701272F362F492F582FB501C6010E942D
:10122000951987FD0FC020E030E040E85FE3612FB3
:10123000702F8F2D9E2D0E94951987FF08C0B80131
:10124000C70109C07A2D6B2D9C2D8D2D04C070E037
:1012500060E090E88FE3272F362F492F582F60E06A
:1012600070E080E89FE30E94231B20E030E0A901AA
:101270000E949A1C18160CF080C020E030E040E874
:101280005FE3612F702F8F2D9E2D0E94951987FD92
:1012900032C020E030E040E85FE3B501C6010E94C3
:1012A000951987FF0BC020E030E0A901B501C60108
:1012B0000E949A1C181614F00C94651120E030E07E
:1012C00040E85FE3612F702F8F2D9E2D0E949519AE
:1012D00087FD27C070E060E090E88FE324C020E045
:1012E00030E0A901612F702F8F2D9E2D0E949A1C36
:1012F00018160CF48CCF212F302F4F2D5E2DB501F9
:10130000C6010E94951987FDDAC720E030E0A901E7
:10131000612F702F8F2D9E2D0E949A1C18160CF095
:10132000D4C7B801C701272F362F492F582FB50131
:10133000C6010E94951987FD17C020E030E040E803
:101340005FE3612F702F8F2D9E2D0E94951987FFCF
:1013500005C0612E702E8F2C9E2C06C0612C712C26
:10136000B0E88B2E1FE3912E9301A40160E070E0A2
:1013700080E89FE30E94231B73C020E030E040E838
:101380005FE3612F702F8F2D9E2D0E94951987FD91
:1013900025C020E030E040E85FE3B501C6010E94CF
:1013A000951987FF0AC020E030E0A901B501C60108
:1013B0000E949A1C18160CF093C720E030E040E819
:1013C0005FE3612F702F8F2D9E2D0E94951987FD51
:1013D0001BC070E060E090E88FE318C0212F302F31
:1013E0004F2D5E2DB501C6010E94951987FD72C76C
:1013F00020E030E0A901612F702F8F2D9E2D0E94DB
:101400009A1C18160CF06CC7B801C701272F362F8D
:10141000492F582FB501C6010E94951987FD17C0A5
:1014200020E030E040E85FE3612F702F8F2D9E2D8C
:101430000E94951987FF05C0612E702E8F2C9E2C5F
:1014400006C0612C712CF0E88F2EAFE39A2E930129
:10145000A40160E070E080E89FE30E94231B9058A5
:1014600020E030E04FE753E40E94FB1969966CAF2F
:101470007DAF8EAF9FAF699720E030E040E450E44D
:1014800065966CAD7DAD8EAD9FAD65970E94241BBA
:1014900020E030E040EC50E40E94431C5B016C0112
:1014A0003B014C019B01AC0160E070E080E890E4FE
:1014B0000E94231B162F072FF82EE92E20E030E084
:1014C00040E85FE30E94951987FD25C020E030E0E9
:1014D00040E85FE3B501C6010E94951987FF0AC085
:1014E00020E030E0A901B501C6010E949A1C18163F
:1014F0000CF05AC020E030E040E85FE3612F702F2D
:101500008F2D9E2D0E94951987FD18C070E060E018
:1015100090E88FE315C0212F302F4F2D5E2DB501A0
:10152000C6010E94951987FF70C020E030E0A90134
:10153000B501C6010E949A1C1816B4F5B801C7017E
:10154000272F362F492F582FB501C6010E94951914
:1015500087FD0FC020E030E040E85FE3612F702F8F
:101560008F2D9E2D0E94951987FF08C0B801C701D5
:1015700009C07A2D6B2D9C2D8D2D04C070E060E08C
:1015800090E88FE3272F362F492F582F60E070E027
:1015900080E89FE30E94231B20E030E0A9010E9425
:1015A0009A1C18160CF07FC020E030E040E85FE3A2
:1015B000612F702F8F2D9E2D0E94951987FD31C0B0
:1015C00020E030E040E85FE3B501C6010E949519D4
:1015D00087FF0AC020E030E0A901B501C6010E94E2
:1015E0009A1C18160CF087C620E030E040E85FE354
:1015F000612F702F8F2D9E2D0E94951987FD27C07A
:1016000070E060E090E88FE324C020E030E0A901C2
:10161000612F702F8F2D9E2D0E949A1C18160CF48E
:101620008DCF212F302F4F2D5E2DB501C6010E9489
:10163000951987FD5AC620E030E0A901612F702F6F
:101640008F2D9E2D0E949A1C18160CF054C6B801BE
:10165000C701272F362F492F582FB501C6010E94E9
:10166000951987FD17C020E030E040E85FE3612F67
:10167000702F8F2D9E2D0E94951987FF05C0612E1A
:10168000702E8F2C9E2C06C0612C712C70E8872E3A
:10169000EFE39E2E9301A40160E070E080E89FE3F9
:1016A0000E94231B73C020E030E040E85FE3612F1D
:1016B000702F8F2D9E2D0E94951987FD25C020E04B
:1016C00030E040E85FE3B501C6010E94951987FF4D
:1016D0000AC020E030E0A901B501C6010E949A1CB1
:1016E00018160CF013C620E030E040E85FE3612FED
:1016F000702F8F2D9E2D0E94951987FD1BC070E0C5
:1017000060E090E88FE318C0212F302F4F2D5E2D21
:10171000B501C6010E94951987FDF2C520E030E0B1
:10172000A901612F702F8F2D9E2D0E949A1C1816D3
:101730000CF0ECC5B801C701272F362F492F582FC1
:10174000B501C6010E94951987FD17C020E030E061
:1017500040E85FE3612F702F8F2D9E2D0E94951919
:1017600087FF05C0612E702E8F2C9E2C06C0612C29
:10177000712C50E8852E6FE3962E9301A40160E052
:1017800070E080E89FE30E94231B905820E030E047
:101790004FE753E40E94FB192B013C0120E030E0AD
:1017A00040E85FE365966CAD7DAD8EAD9FAD65970E
:1017B0000E94241B20E030E040EC50E40E94431CD7
:1017C0005B016C011B014C019B01AC0160E070E00E
:1017D00080E890E40E94231B162F072FF82EE92E95
:1017E00020E030E040E85FE30E94951987FD25C0C6
:1017F00020E030E040E85FE3B501C6010E949519A2
:1018000087FF0AC020E030E0A901B501C6010E94AF
:101810009A1C18160CF05AC020E030E040E85FE354
:10182000612F702F8F2D9E2D0E94951987FD18C056
:1018300070E060E090E88FE315C0212F302F4F2D2E
:101840005E2DB501C6010E94951987FF70C020E08A
:1018500030E0A901B501C6010E949A1C1816B4F522
:10186000B801C701272F362F492F582FB501C601C0
:101870000E94951987FD0FC020E030E040E85FE34B
:10188000612F702F8F2D9E2D0E94951987FF08C004
:10189000B801C70109C07A2D6B2D9C2D8D2D04C078
:1018A00070E060E090E88FE3272F362F492F582F04
:1018B00060E070E080E89FE30E94231B20E030E0BE
:1018C000A9010E949A1C18160CF07FC020E030E09D
:1018D00040E85FE3612F702F8F2D9E2D0E94951998
:1018E00087FD31C020E030E040E85FE3B501C6018C
:1018F0000E94951987FF0AC020E030E0A901B501D8
:10190000C6010E949A1C18160CF00BC520E030E0AE
:1019100040E85FE3612F702F8F2D9E2D0E94951957
:1019200087FD27C070E060E090E88FE324C020E0EE
:1019300030E0A901612F702F8F2D9E2D0E949A1CDF
:1019400018160CF48DCF212F302F4F2D5E2DB501A1
:10195000C6010E94951987FDDEC420E030E0A90190
:10196000612F702F8F2D9E2D0E949A1C18160CF03F
:10197000D8C4B801C701272F362F492F582FB501DA
:10198000C6010E94951987FD17C020E030E040E8AD
:101990005FE3612F702F8F2D9E2D0E94951987FF79
:1019A00005C0212E302E8F2C9E2C06C0212C312CD0
:1019B00030E8832E4FE3942E9101A40160E070E0A3
:1019C00080E89FE30E94231B73C020E030E040E8E2
:1019D0005FE3612F702F8F2D9E2D0E94951987FD3B
:1019E00025C020E030E040E85FE3B501C6010E9479
:1019F000951987FF0AC020E030E0A901B501C601B2
:101A00000E949A1C18160CF097C420E030E040E8C1
:101A10005FE3612F702F8F2D9E2D0E94951987FDFA
:101A20001BC070E060E090E88FE318C0212F302FDA
:101A30004F2D5E2DB501C6010E94951987FD76C414
:101A400020E030E0A901612F702F8F2D9E2D0E9484
:101A50009A1C18160CF070C4B801C701272F362F36
:101A6000492F582FB501C6010E94951987FD17C04F
:101A700020E030E040E85FE3612F702F8F2D9E2D36
:101A80000E94951987FF05C0212E302E8F2C9E2C89
:101A900006C0212C312C90E8892E2FE3922E910143
:101AA000A40160E070E080E89FE30E94231B90584F
:101AB00020E030E04FE753E40E94FB196B017C010A
:101AC00069966CAD7DAD8EAD9FAD69970E94021C8D
:101AD0008AE00E946102C301B2010E94021C8BE0F5
:101AE0000E946102C701B6010E94021C89E00E94A7
:101AF00061026D966CAD7DAD8EAD9FAD6D970E9410
:101B0000091C0E94C30387E991E00E947301892B9D
:101B1000F9F069968CAD9DADAEADBFAD6997809380
:101B20007C0190937D01A0937E01B0937F01409250
:101B30008001509281016092820170928301C09273
:101B40008401D0928501E0928601F0928701F9C369
:101B50002F96AEADBFAD2F9711962F96BFAFAEAFFC
:101B60002F97A836B14009F0E0CADBCA61E571E001
:101B7000C8010E94AA1E892B09F0D0C110927B01D6
:101B800010927A018BAD9CAD0E94C11765966CAF27
:101B90007DAF8EAF9FAF6597C9ACDAACD6010D9023
:101BA0000020E9F7F601CD010197212C312CE8172F
:101BB000F90739F021912C37D1F72FEF221A320A89
:101BC000F6CF31E0231A31088DB69EB6F6010190AA
:101BD0000020E9F73197EC19FD098DB79EB78E1BF0
:101BE0009F0B0FB6F8949EBF0FBE8DBF0DB71EB7EB
:101BF0000F5F1F4FF60101900020E9F73197AF0109
:101C00004C195D09B601C8010E94A11E1EAF0DAF9F
:101C100062E371E0CE01C1960E949C13AE01435C69
:101C20005F4F64E571E08DAD9EAD0E94E8170097AF
:101C300029F0BC01CE01C1960E94801366E571E0D7
:101C4000CE0149960E949C13BE01675E7F4FCE0174
:101C5000C1960E940C139C0140E050E0BE016F5CF5
:101C60007F4FCE010D960E94B113BE01635F7F4F7F
:101C7000CE0101960E94F80283E48F938AE78F9346
:101C80001F921F92ADB7BEB71C970FB6F894BEBF98
:101C90000FBEADBF11968CE0ECE7F1E001900D9224
:101CA0008A95E1F7E980FA800B811C812D813E81C4
:101CB0004F81588569857A858B859C850E94820431
:101CC000CE010D960E949713CE0149960E9497135C
:101CD000EDB7FEB770960FB6F894FEBF0FBEEDBF1E
:101CE000A12CB12CA214B3040CF00EC162E371E07C
:101CF000CE018B960E949C13AE01435C5F4F64E55E
:101D000071E08DAD9EAD0E94E817009729F0BC01EF
:101D1000CE018B960E94801366E571E0CE01859618
:101D20000E949C13BE016B5D7F4FCE018B960E947B
:101D30000C139C0140E050E0BE01655D7F4FCE0179
:101D400049960E94B113BE01675E7F4FCE010D968A
:101D50000E94F802CE0149960E949713CE01859603
:101D60000E94971366E571E0CE0185960E949C1350
:101D7000BE016B5D7F4FCE01C1960E940C132DA951
:101D80003EA9AC014F5F5F4FBE016F5C7F4FCE013C
:101D900049960E94B113898D9A8D009729F00E946F
:101DA000C1172B013C0103C0412C512C3201CE0143
:101DB00049960E949713CE0185960E94971366E577
:101DC00071E0CE0185960E949C13BE016B5D7F4F32
:101DD000CE018B960E940C132FA538A9AC014F5F42
:101DE0005F4FBE01655D7F4FCE0149960E94B113E2
:101DF000898D9A8D009749F00E94C11761966CAF4A
:101E00007DAF8EAF9FAF619706C061961CAE1DAED1
:101E10001EAE1FAE6197CE0149960E949713CE0168
:101E200085960E949713A301920161966CAD7DADDA
:101E30008EAD9FAD61970E94231B65962CAD3DAD85
:101E40004EAD5FAD65970E94FB1920E030E04AE798
:101E500054E40E94FB199F938F937F936F932DB748
:101E60003EB72C5031090FB6F8943EBF0FBE2DBFC0
:101E7000ADB7BEB71196ECE7F1E08CE001900D92A2
:101E80008A95E1F7ED84FE840F85188929893A89BE
:101E90004B895C896D897E898F89988D0E94820427
:101EA0006BA57CA58DB79EB740960FB6F8949EBFE4
:101EB0000FBE8DBF6115710539F04FA558A9CE0130
:101EC000C1960E945F1304C0CE01C1960E944D13BB
:101ED00087E991E00E947301892B41F4CE018B9632
:101EE0000E9497139FEFA91AB90AFCCECE018B96D8
:101EF0000E949713CE01C1960E9497130FB6F894D3
:101F00009EBE0FBE8DBE1DC2CE01C1960E9497130C
:101F10000FB6F8949EBE0FBE8DBE56CE63E371E041
:101F2000C8010E94AA1E892B39F563E680E090E083
:101F30000E94C41AEE24E394F12C09AD1AADF80105
:101F400001900020E9F7CF01801B910BE816F906FC
:101F500060F40E0D1F1DF80131976081C7010E94CA
:101F6000C41AAFEFEA1AFA0AE8CF6FEF0E94C41A58
:101F7000C8010E94FD05E5C168E571E0C8010E9445
:101F8000AA1E892B29F410927B0110927A01D9C1E3
:101F90006AE571E0C8010E94AA1E892B09F055C0AC
:101FA00010927A0181E080937B0189AD9AAD9EA366
:101FB0008DA3AE014B5D5F4F64E571E00E94E817B1
:101FC0000097D9F0BC01CE0101960E949C13BE017E
:101FD0006F5F7F4FCE018F5B9F4F0E94F8028CE0B6
:101FE000FE01EF5BFF4FA0E6B1E001900D928A95F4
:101FF000E1F7CE0101960E949713AE014B5D5F4F52
:1020000064E571E08DA19EA10E94E817009709F494
:1020100098C1BC01CE0101960E949C13BE016F5F66
:102020007F4FCE018F5B9F4F0E94F8028CE0FE0134
:10203000EF5BFF4FACE6B1E001900D928A95E1F7BE
:10204000CE0101960E9497137CC16DE571E0C80135
:102050000E94AA1E892B71F410927B0181E080936B
:102060007A0189AD9AAD0E94C5179093790180934A
:10207000780167C180917B01882309F4D3C0F801FE
:102080008081082E000C990BC0970A9708F059C15F
:10209000C8010E94C517BC01990F880B990B0E94BB
:1020A0009C1920E030E048EC52E40E94901B4B0168
:1020B0005C018091600190916101A0916201B091F9
:1020C000630161968CAF9DAFAEAFBFAF619740909B
:1020D0006401509065016090660170906701A301F2
:1020E00092016091700170917101809172019091E3
:1020F00073010E94231B65966CAF7DAF8EAF9FAFBF
:102100006597C0906801D0906901E0906A01F090F5
:102110006B01A70196016091740170917501809126
:102120007601909177010E94231B69966CAF7DAF79
:102130008EAF9FAF699761962CAD3DAD4EAD5FAD53
:10214000619760916C0170916D0180916E01909129
:102150006F010E94231BA50194010E94FB199B01A2
:10216000AC0161966CAD7DAD8EAD9FAD61970E9467
:10217000241B69837A838B839C83A50194016596D4
:102180006CAD7DAD8EAD9FAD65970E94FB199B0137
:10219000AC01C301B2010E94241B6D837E838F8337
:1021A0009887A501940169966CAD7DAD8EAD9FAD0C
:1021B00069970E94FB199B01AC01C701B6010E94FF
:1021C000241B69877A878B879C8781E48F9380EFB4
:1021D0008F931F921F92ADB7BEB71C970FB6F8949E
:1021E000BEBF0FBEADBF11968CE0ECE7F1E00190F1
:1021F0000D928A95E1F7E980FA800B811C812D818F
:102200003E814F81588569857A858B859C850E94A2
:102210008204EDB7FEB770960FB6F894FEBF0FBEFE
:10222000EDBF8FC080917A01882309F48AC0B8017C
:10223000CE010D960E949C13BE01635F7F4FCE01BD
:1022400001960E94F802CE010D960E9497136091AC
:10225000780170917901072E000C880B990B0E9470
:102260009C199F938F937F936F932DB73EB72C50FC
:1022700031090FB6F8943EBF0FBE2DBFADB7BEB744
:1022800011968CE0ECE7F1E001900D928A95E1F770
:10229000E980FA800B811C812D813E814F81588518
:1022A00069857A858B859C850E9482048DB79EB74F
:1022B00040960FB6F8949EBF0FBE8DBF42C020E07F
:1022C00030E0A901B501C60127C8612C712C812C11
:1022D000912C4AC820E030E0A901B501C6018FC8A1
:1022E000612C712C812C912CB2C820E030E0A90126
:1022F000B501C601A7C9612C712C812C912CCAC9CA
:1023000020E030E0A901B501C6010FCA612C712C93
:10231000812C912C32CA20E030E0A901B501C60120
:1023200023CB212C312C812C912C46CB20E030E08A
:10233000A901B501C6018BCB212C312C812C912C0C
:10234000AECBA396AEADBFADA3970FB6F894BEBF0C
:102350000FBEADBFCE59DF4F0FB6F894DEBF0FBE34
:10236000CDBFDF91CF911F910F91FF90EF90DF9044
:10237000CF90BF90AF909F908F907F906F905F9025
:102380004F903F902F900895CF92DF92EF92FF925F
:102390000F931F93CF93DF93CDB7DEB7CE55D140C8
:1023A0000FB6F894DEBF0FBECDBF8E010F5F1F4F7B
:1023B000EE24E394F12C6801C7010E94BC1A8F3F00
:1023C00039F0F80181938F01FFEFEF1AFF0AF4CF84
:1023D000C6010E94FD05C25ADE4F0FB6F894DEBF5B
:1023E0000FBECDBFDF91CF911F910F91FF90EF9066
:1023F000DF90CF90089580914F0381110DC082E04E
:1024000080934B0384E080934C0310924E03109210
:102410004D0381E080934F038BE493E008950E9485
:102420009C1ECF92DF92EF92FF920F931F93CF9358
:10243000DF931F92CDB7DEB7182F062FE42E862F1D
:10244000880F8E5F99830E94880383E00E9488032F
:10245000F12EC12E9981D92E8C2D8F19801798F4C9
:10246000F601E7FE02C0849101C080810E948803CA
:10247000182F80E00E9488038123FFEFCF1ADF0A24
:102480008111EACF01C081E00F90DF91CF911F91C0
:102490000F91FF90EF90DF90CF900895DF92EF9231
:1024A000FF920F931F93CF93DF93D82E8A017B0166
:1024B000E40EF51EEB01CE15DF0571F0D7FE03C06B
:1024C000FE01849101C088810E94880321968111B8
:1024D000F2CF8FEF9FEF01C0C801DF91CF911F9125
:1024E0000F91FF90EF90DF9008950F931F93CF937C
:1024F000DF931F92CDB7DEB782E0898342E450E0DC
:1025000062E471E080E80E944E120E94FB11DC013F
:1025100012960D911C9113970115110569F0D801C0
:10252000ED91FC910280F381E02DBE016F5F7F4F42
:10253000C801099597FF07C089810F90DF91CF915E
:102540001F910F910895F80100851185E5CF90E066
:10255000FC01E151FE4F2491FC01E053FE4F8491B8
:10256000882399F090E0880F991FFC01EE53FE4FED
:10257000A591B491FC01EC54FE4F859194918FB7D5
:10258000F894EC91E22BEC938FBF089583E0809355
:10259000E9008091F200882319F08AE38093E80033
:1025A0000895FC018091E801811103C08FEF9FEF36
:1025B00008959FB7F89482E08093E9002091F2009B
:1025C00030E01216130614F421E030E02115310535
:1025D00059F0289A84E68093E7018091F100808386
:1025E0008091F200882319F09FBFC90108958BE6FE
:1025F0008093E800F9CF2FB7F89483E08093E90047
:102600009091E800892F807295FF04C09091F200AC
:1026100080E4891B2FBF0895CF93DF93FC012481B1
:102620003581232B71F0FB01DC01CD91DC916081C0
:102630007181CE010E94C91E009719F08C1B9D0B61
:1026400002C08FEF9FEFDF91CF9108950F931F93FB
:10265000CF93DF93EC0188819981009729F02A813B
:102660003B812617370788F48B016F5F7F4F0E94ED
:10267000D21D009761F0998388831B830A832C8184
:102680003D81232B11F4FC01108281E001C080E028
:10269000DF91CF911F910F910895CF93DF93EC01BC
:1026A00088819981009711F00E943A1D1982188241
:1026B0001D821C821B821A82DF91CF910895EF92B6
:1026C000FF920F931F93CF93DF93EC017B018A015D
:1026D000BA010E942613811104C0CE010E944D133D
:1026E00007C01D830C83B701888199810E94B31EA6
:1026F000CE01DF91CF911F910F91FF90EF90089540
:10270000CF93DF93EC016115710559F0FB01019046
:102710000020E9F73197AF01461B570B0E945F136A
:1027200002C00E944D13CE01DF91CF910895FC01AC
:10273000808191810C943A1DFC01118210821382D8
:102740001282158214826115710551F0FB0101900E
:102750000020E9F73197AF01461B570B0C945F132C
:102760000895BF92CF92DF92EF92FF920F931F9343
:10277000CF93DF937C016B018A01E90124173507B0
:1027800020F4812F8901C42FD82F62E371E0C701A3
:102790000E949C13D60114968D919C911597081751
:1027A0001907D0F48C179D0708F4EC01D601ED91C0
:1027B000FC911197EC0FFD1FB08010824D915C9140
:1027C000BA01600F711FC7010E948013D601ED91FD
:1027D000FC91EC0FFD1FB082C701DF91CF911F91DB
:1027E0000F91FF90EF90DF90CF90BF9008951F92D0
:1027F0000F920FB60F9211242F933F934F935F9335
:102800006F937F938F939F93AF93BF93CF93EF93E8
:10281000FF93C091E1008091E100837F8093E1000C
:10282000C3FF0FC01092E90081E08093EB0010928B
:10283000EC0082E38093ED001092E80188E0809341
:10284000F000C2FF18C00E94C61280919501882333
:1028500039F080919501815080939501882389F109
:102860008091E701882339F08091E70181508093BE
:10287000E701882341F1C4FF10C08091E2008E7E01
:1028800081608093E2008091E1008F7E8093E1007F
:10289000809196018E7E806111C0C0FF16C080912C
:1028A000E2008E7E80618093E2008091E1008E7E66
:1028B0008093E100809196018E7E816080939601E5
:1028C00004C05D98CDCF2898D6CFFF91EF91CF91DE
:1028D000BF91AF919F918F917F916F915F914F9138
:1028E0003F912F910F900FBE0F901F9018951F9240
:1028F0000F920FB60F921124CF92DF92EF92FF92B8
:102900000F931F932F933F934F935F936F937F93F7
:102910008F939F93AF93BF93EF93FF93CF93DF93E7
:10292000CDB7DEB76C97DEBFCDBF1092E9008091C6
:10293000E80083FFEDC168E0CE0145960E94B60332
:1029400082EF8093E8008D8987FF05C09091E800B1
:1029500090FFFCCF03C09EEF9093E800982F9076F5
:1029600009F0C6C09E892F89188D91110CC080383E
:1029700029F48091EA018093F10002C01092F100E5
:102980001092F10048C1422F50E0512B913051F488
:10299000811141C14130510509F03DC18091EA01E9
:1029A0008D7F0BC0933061F4811135C141305105E9
:1029B00009F031C18091EA0182608093EA012BC164
:1029C000953041F48091E80080FFFCCF206820938F
:1029D000E30021C1963009F05FC0EB8CFC8C1092B3
:1029E000E9001092940110929301123091F5109227
:1029F0009201109291010E94751299E0BE016F5FE1
:102A00007F4FDB01E92F1D92EA95E9F799831A833D
:102A100091E09E8390EA98879AEF9987209193019D
:102A200030919401275F3F4F3C832B838D8310921D
:102A3000E9001092940110929301F0929201E092B9
:102A4000910149E050E080E00E944E120E94751210
:102A5000E2C0F0929201E09291010E94FB11DC0130
:102A60001296ED90FC901397E114F10409F4C0C0A4
:102A7000D701ED91FC910480F581E02DBE016B5EE4
:102A80007F4FC7010995009719F00CF0C4C0C7C06B
:102A9000F701E084F184E8CF973009F4C0C09830A2
:102AA00021F481E08093F100B6C0993009F0B3C001
:102AB000837009F0B4C0E5E2F1E081E021E036E3A3
:102AC0009081992361F08093E9002093EB0091912C
:102AD0009093EC003093ED008F5F873089F78EE79D
:102AE0008093EA001092EA008F898093E80193C0F6
:102AF0008B8D9C8D1092E90010929401109293019D
:102B00009093920180939101898D811156C08E8995
:102B10009D89913A59F4813209F081C047E050E033
:102B200064E071E080E00E944E1275C0913209F0BD
:102B300076C0833289F4888D90E0982F88272F897A
:102B4000822BA0E0B0E08093000190930101A0935C
:102B50000201B09303015FC0803269F48091E80004
:102B600082FFFCCF67E084E091E00E94B6038BEF28
:102B70008093E80006C0823209F04DC08F898093AF
:102B80000B018091E901882319F0EEEFFAE002C011
:102B9000E0E0F8E08091040190910501A091060128
:102BA000B0910701803B9440A105B10509F07BC0BD
:102BB00080910B0180FF93C076C00E94FB11DC0165
:102BC00012960D911C9113970115110541F1D80131
:102BD000ED91FC910190F081E02DBE016B5E7F4F85
:102BE000C8010995811117C0F80100851185ECCF46
:102BF000113009F44EC0133091F48F89882309F401
:102C000045C0823081F440E86DE086EA91E00E94A0
:102C10001112882321F08EEF8093E80079C081E2C1
:102C20008093EB0075C0813029F440E86BE08AE9BD
:102C300091E0EDCF833099F70E94FB11DC011296F1
:102C4000ED90FC9013978E010F5F1F4F6801E11408
:102C5000F10479F0D701ED91FC910680F781E02D28
:102C6000B801C7010995080F111DF701E084F1842F
:102C7000EECFD8011C92F60101900020E9F73197C0
:102C8000BF016C197D0940E0C601C1CF64E871E065
:102C900002C068E871E06115710509F2FB01449119
:102CA00050E080E840CF0FB6F894A895809160007E
:102CB000886180936000109260000FBEA895EE3F7F
:102CC0002AE0F20739F08091FE0A9091FF0A918381
:102CD0008083A1CF1092FF0A1092FE0A9CCFEE3F94
:102CE0008AE0F80731F0808191819093FF0A809308
:102CF000FE0A87E797E7918380839BE088E10FB620
:102D0000F894A895809360000FBE9093600083CFE5
:102D10006C960FB6F894DEBF0FBECDBFDF91CF919A
:102D2000FF91EF91BF91AF919F918F917F916F91A3
:102D30005F914F913F912F911F910F91FF90EF90D5
:102D4000DF90CF900F900FBE0F901F901895E7E97E
:102D5000F1E01382128288EE93E0A0E0B0E0848379
:102D60009583A683B78386E191E0918380838FEF7B
:102D70009FEF958784870895789484B5826084BD99
:102D800084B5816084BD85B5826085BD85B581606F
:102D900085BD80916E00816080936E0010928100ED
:102DA00080918100826080938100809181008160A8
:102DB0008093810080918000816080938000809169
:102DC0009100826080939100809191008160809356
:102DD0009100809190008160809390008091C1006B
:102DE00084608093C1008091C10082608093C100A3
:102DF0008091C10081608093C1008091C300816097
:102E00008093C3008091C00082608093C000809155
:102E1000C20081608093C20080917A0084608093B8
:102E20007A0080917A00826080937A0080917A00A3
:102E3000816080937A0080917A00806880937A0024
:102E40001092E8011092EA01109296018091D70049
:102E500081608093D70080EA8093D80089B5806133
:102E600089BD89B5826089BD09B400FEFDCF61E0EE
:102E700070E080E090E00E94C3038091D8008F7CD6
:102E800080618093D8008091E000807F8093E00093
:102E90008091E1008E7E8093E1008DE08093E200DE
:102EA000559A209A5D982898EEEFFFE785919491C6
:102EB0008B3F9C4D19F481E08093E9018FEF9FEFE8
:102EC0009093A4018093A3018AE00E94A7128BE053
:102ED0000E94A71289E00E94A712C0910B016AE02C
:102EE00070E080E090E00E94C303CC23B1F38AE05D
:102EF00090E0A0E0B0E080939B0190939C01A093B0
:102F00009D01B0939E0180E090E00E94BC1A833640
:102F100011F40E94C411CEE5D1E000E010E087E991
:102F200091E00E947301892B31F187E991E00E94C1
:102F300043028A3091F48BEE91E00E94FD050E94DD
:102F4000C612EBEEF1E0DF01CE011D920197E9F729
:102F500010924A03109249030EC020914903309108
:102F60004A03F901E551FE4F80832F5F3F4F3093B5
:102F70004A03209349030115110589F20E940000BC
:102F8000CECF662777270C941718FC01882799273E
:102F9000E89421912032E9F3293010F02E30C8F363
:102FA0002B3241F02D3239F4689404C00E940F187E
:102FB000820F911D219120532A30C0F31EF4909569
:102FC00081959F4F089547E553E00E94E8170895C3
:102FD000FA01A191B081009719F41097E1F0CD01A9
:102FE000DC01CD010D90002011F4C00113C0FB01E4
:102FF0002191222319F02015D9F7F3CFFB0121915C
:10300000201519F41E92119606C02223C1F70D90C7
:103010000020A1F7D001FA01A193B08308957AE0CE
:10302000979F902D879F802D910D11240895A0E0EA
:10303000B0E0EDE1F8E10C94E11AEC017B016115DF
:10304000710519F0DB018D939C938E010F5F1F4F6B
:103050007880872D90E00E947419892B11F0E80187
:10306000F4CFBDE27B1205C00F5F1F4F7980C1E036
:1030700008C0EBE27E1204C08E010E5F1F4F798004
:10308000C0E06801F1E0CF1AD10843E050E060EF02
:1030900070E0C6010E947D19892BF1F4680122E0DD
:1030A000C20ED11C45E050E06BEE70E0C6010E94FC
:1030B0007D19892B21F4680187E0C80ED11CE11429
:1030C000F10419F0D701CD92DC92C111FFC060E08C
:1030D00070E080E89FE703C143E050E068EE70E0F5
:1030E000C6010E947D19892B51F4E114F10409F401
:1030F000F2C00E5F1F4FF70111830083ECC068011F
:1031000060E070E0CB0100E010E0F601D0EDD70DFB
:10311000DA3058F52C2F2260622E2C2F2870C2FF37
:1031200005C0211128C00F5F1F4F25C0222311F0B9
:1031300001501109A5E0B0E09B01AC010E94D21A38
:103140004B015C01880C991CAA1CBB1CC501B40175
:103150006D0F711D811D911D6839A9E97A078A07D4
:10316000A9E19A0740F0C66005C0DE3F51F4C3FDF7
:1031700044C0C8606C2EBFEFCB1ADB0A7080C62D2E
:10318000C4CF2D2F2F7D2531C1F540814D3211F453
:10319000C06106C04B3221F0319621E030E006C01C
:1031A0003296D60111964C9122E030E0A0EDA40FAA
:1031B000AA3018F0E21BF30B20C040E050E040388A
:1031C000BCE05B075CF49A01220F331F220F331F10
:1031D000420F531F440F551F4A0F511D3196DF01F7
:1031E00011972C91A0EDA20FAA3048F3C4FF03C0A1
:1031F000519541955109040F151FC1FF07C0E114F6
:10320000F10421F03197D701ED93FC930E949A19B4
:10321000C370C33019F06B017C0106C06B017C01E7
:10322000F7FAF094F7F8F09420E030E0A901C70134
:10323000B6010E949519882309F445C017FF06C0FE
:10324000119501951109C7E0D1E002C0CFE1D1E0AD
:103250005E01B8E1AB1AB1084601BE2DAF2D90E278
:10326000E92EF12C0E151F0584F0FE0125913591F4
:1032700045915491B4018B2F9A2F0E94FB194B0159
:10328000B82FA92F0E191F09EDCF2497F594E794B5
:10329000CA15DB0539F76401EB2EFA2E8E2D880F47
:1032A0008F2D881F8F3F49F020E030E0A901C70132
:1032B000B6010E949519811106C082E290E09093B8
:1032C0005A0380935903C701B60109C060E070E05A
:1032D00080E89FEF04C060E070E080EC9FE7CDB72E
:1032E000DEB7EEE00C94FD1A91110C94681A80324E
:1032F00019F089508550C8F70895FB01DC01415051
:10330000504088F08D9181341CF08B350CF4805E38
:10331000659161341CF06B350CF4605E861B6111A5
:1033200071F3990B0895881BFCCF0E94D71908F4FC
:1033300081E00895E89409C097FB3EF4909580954C
:10334000709561957F4F8F4F9F4F9923A9F0F92F6B
:1033500096E9BB279395F695879577956795B795E9
:10336000F111F8CFFAF4BB0F11F460FF1BC06F5FCF
:103370007F4F8F4F9F4F16C0882311F096E911C0E1
:10338000772321F09EE8872F762F05C0662371F002
:1033900096E8862F70E060E02AF09A95660F771F16
:1033A000881FDAF7880F9695879597F90895990FF2
:1033B0000008550FAA0BE0E8FEEF16161706E807FF
:1033C000F907C0F012161306E407F50798F0621B20
:1033D000730B840B950B39F40A2661F0232B242BF5
:1033E000252B21F408950A2609F4A140A6958FEF14
:1033F000811D811D08950E940E1A0C94821A0E944C
:10340000741A38F00E947B1A20F0952311F00C9466
:103410006B1A0C94711A11240C94B61A0E94931A08
:1034200070F3959FC1F3950F50E0551F629FF00117
:10343000729FBB27F00DB11D639FAA27F00DB11D30
:10344000AA1F649F6627B00DA11D661F829F2227B9
:10345000B00DA11D621F739FB00DA11D621F839F40
:10346000A00D611D221F749F3327A00D611D231F16
:10347000849F600D211D822F762F6A2F11249F5764
:1034800050409AF0F1F088234AF0EE0FFF1FBB1F67
:10349000661F771F881F91505040A9F79E3F510526
:1034A00080F00C946B1A0C94B61A5F3FE4F3983ECC
:1034B000D4F3869577956795B795F795E7959F5FD0
:1034C000C1F7FE2B880F911D9695879597F9089562
:1034D00099278827089597F99F6780E870E060E052
:1034E00008959FEF80EC089500240A94161617069D
:1034F00018060906089500240A94121613061406E5
:1035000005060895092E0394000C11F4882352F047
:10351000BB0F40F4BF2B11F460FF04C06F5F7F4FFF
:103520008F4F9F4F089557FD9058440F551F59F0E6
:103530005F3F71F04795880F97FB991F61F09F3FA0
:1035400079F087950895121613061406551FF2CFC9
:103550004695F1DF08C0161617061806991FF1CF19
:1035600086957105610508940895E894BB27662740
:103570007727CB0197F90895F999FECF92BD81BDC8
:10358000F89A992780B50895262FF999FECF1FBA8A
:1035900092BD81BD20BD0FB6F894FA9AF99A0FBE7C
:1035A000019608950E94141BA59F900DB49F900D45
:1035B000A49F800D911D112408952F923F924F9248
:1035C0005F926F927F928F929F92AF92BF92CF92B3
:1035D000DF92EF92FF920F931F93CF93DF93CDB7BC
:1035E000DEB7CA1BDB0B0FB6F894DEBF0FBECDBF34
:1035F00009942A88398848885F846E847D848C8405
:103600009B84AA84B984C884DF80EE80FD800C810D
:103610001B81AA81B981CE0FD11D0FB6F894DEBFF0
:103620000FBECDBFED010895A29FB001B39FC001B1
:10363000A39F700D811D1124911DB29F700D811DDE
:103640001124911D08955058BB27AA270E943B1BA7
:103650000C94821A0E94741A38F00E947B1A20F08F
:1036600039F49F3F19F426F40C94711A0EF4E09586
:10367000E7FB0C946B1AE92F0E94931A58F3BA17C0
:10368000620773078407950720F079F4A6F50C9478
:10369000B51A0EF4E0950B2EBA2FA02D0B01B9012F
:1036A00090010C01CA01A0011124FF27591B99F0B8
:1036B000593F50F4503E68F11A16F040A22F232FC4
:1036C000342F4427585FF3CF469537952795A79514
:1036D000F0405395C9F77EF41F16BA0B620B730BBB
:1036E000840BBAF09150A1F0FF0FBB1F661F771F2C
:1036F000881FC2F70EC0BA0F621F731F841F48F4E1
:10370000879577956795B795F7959E3F08F0B0CF69
:103710009395880F08F09927EE0F97958795089550
:103720000E94A41B0C94821A0E947B1A58F00E94DB
:10373000741A40F029F45F3F29F00C946B1A511170
:103740000C94B61A0C94711A0E94931A68F3992378
:10375000B1F3552391F3951B550BBB27AA2762178D
:103760007307840738F09F5F5F4F220F331F441F9A
:10377000AA1FA9F335D00E2E3AF0E0E832D09150CE
:103780005040E695001CCAF72BD0FE2F29D0660FBB
:10379000771F881FBB1F261737074807AB07B0E8FE
:1037A00009F0BB0B802DBF01FF2793585F4F3AF004
:1037B0009E3F510578F00C946B1A0C94B61A5F3F3B
:1037C000E4F3983ED4F3869577956795B795F7958A
:1037D0009F5FC9F7880F911D9695879597F9089572
:1037E000E1E0660F771F881FBB1F6217730784070E
:1037F000BA0720F0621B730B840BBA0BEE1F88F71D
:10380000E09508950E94091C6894B1110C94B61AB1
:1038100008950E949B1A88F09F5798F0B92F992716
:10382000B751B0F0E1F0660F771F881F991F1AF0AB
:10383000BA95C9F714C0B13091F00E94B51AB1E041
:1038400008950C94B51A672F782F8827B85F39F040
:10385000B93FCCF3869577956795B395D9F73EF444
:1038600090958095709561957F4F8F4F9F4F0895EC
:103870000E94741A20F019F00E947B1A50F40C94E4
:10388000711A0C94B61AE92F0E94931A88F35523E3
:10389000B1F3E7FB6217730784079507A8F189F373
:1038A000E92FFF2788232AF03197660F771F881F9B
:1038B000DAF7952F5527442332F091505040220FCC
:1038C000331F441FD2F7BB27E91BF50B621B730B99
:1038D000840BB109B1F222F4620F731F841FB11D72
:1038E00031972AF0660F771F881FBB1FEFCF9150CB
:1038F000504062F041F0882332F0660F771F881F36
:1039000091505040C1F793950C948C1C86957795F7
:1039100067959F5FD9F7F7CF9F3F31F0915020F423
:10392000879577956795B795880F911D969587959B
:1039300097F908950E94D71908F48FEF0895EE0FB4
:10394000FF1F0590F491E02D0994CF93DF9382300F
:10395000910510F482E090E0E0915D03F0915E0348
:1039600020E030E0C0E0D0E0309711F1408151819B
:1039700048175907C0F04817590761F482819381AD
:10398000209719F09B838A832BC090935E038093CA
:103990005D0326C02115310519F04217530718F4AD
:1039A0009A01BE01DF01EF010280F381E02DDCCF3F
:1039B0002115310509F1281B390B2430310590F40C
:1039C00012968D919C9113976115710521F0FB0161
:1039D0009383828304C090935E0380935D03FD0113
:1039E000329644C0FD01E20FF31F81939193225060
:1039F00031092D933C933AC020915B0330915C03D5
:103A0000232B41F420910E0130910F0130935C0380
:103A100020935B0320910C0130910D01211531059C
:103A200041F42DB73EB74091100150911101241B74
:103A3000350BE0915B03F0915C03E217F307A0F410
:103A40002E1B3F0B2817390778F0AC014E5F5F4FF4
:103A50002417350748F04E0F5F1F50935C034093C7
:103A60005B038193919302C0E0E0F0E0CF01DF912E
:103A7000CF9108950F931F93CF93DF93009709F48D
:103A80008CC0FC0132971382128200915D03109169
:103A90005E030115110581F420813181820F931F8E
:103AA00020915B0330915C032817390779F5F09377
:103AB0005C03E0935B0371C0D80140E050E0AE17B7
:103AC000BF0750F412962D913C911397AD0121152B
:103AD000310509F1D901F3CF9D01DA013383228346
:103AE00060817181860F971F8217930769F4EC013B
:103AF00028813981260F371F2E5F3F4F3183208366
:103B00008A819B8193838283452B29F4F0935E0302
:103B1000E0935D0342C01396FC93EE931297ED0180
:103B2000499159919E01240F351FE217F30771F453
:103B300080819181840F951F029611969C938E939C
:103B40008281938113969C938E931297E0E0F0E02C
:103B5000D80112968D919C911397009719F0F80156
:103B60008C01F6CF8D919C9198012E5F3F4F820F73
:103B7000931F20915B0330915C032817390769F488
:103B8000309729F410925E0310925D0302C01382F5
:103B9000128210935C0300935B03DF91CF911F911E
:103BA0000F910895A0E0B0E0E8EDFDE10C94E11A7A
:103BB000EC01009721F4CB010E94A51CB8C0FC01C8
:103BC000E60FF71F9C0122503109E217F30708F4B2
:103BD000ACC0D9010D911C91119706171707B0F0D1
:103BE0000530110508F49FC0C80104978617970790
:103BF00008F499C002501109061B170B0193119389
:103C00006D937C93CF010E943A1D8DC05B01A01A79
:103C1000B10A4C01800E911EA0915D03B0915E032C
:103C200040E050E0E12CF12C109709F44AC0A815AF
:103C3000B905D1F56D907C901197630182E0C80EB3
:103C4000D11CCA14DB0480F1A3014A195B096A0183
:103C500082E0C80ED11C1296BC9012971396AC91BC
:103C6000B5E0CB16D10440F0B282A38351834083E8
:103C7000D9016D937C930AC00E5F1F4FC301800F63
:103C8000911FF90191838083EB2DFA2FE114F10448
:103C900031F0D7011396FC93EE93129744C0F09342
:103CA0005E03E0935D033FC08D919C91119748178F
:103CB000590708F4AC017D0112960D90BC91A02D1E
:103CC000B3CF80915B0390915C0388159905E1F473
:103CD00046175707C8F480910C0190910D01009789
:103CE00041F48DB79EB74091100150911101841B92
:103CF000950BE817F907C8F4F0935C03E0935B03B6
:103D0000F901718360830FC0CB010E94A51C7C0167
:103D1000009759F0A801BE010E94A11ECE010E9489
:103D20003A1DC70104C0CE0102C080E090E0CDB7CB
:103D3000DEB7EEE00C94FD1A81E090E0F8940C946C
:103D4000E31EFB01DC0102C001900D924150504086
:103D5000D8F70895FB01DC018D91019080190110C5
:103D6000D9F3990B0895FB01DC0101900D9200201D
:103D7000E1F70895FB01DC014150504048F001900B
:103D80000D920020C9F701C01D9241505040E0F74C
:103D90000895FB0151915523A9F0BF01DC014D911C
:103DA00045174111E1F759F4CD010190002049F088
:103DB0004D9140154111C9F3FB014111EFCF81E055
:0A3DC00090E001970895F894FFCFFA
:103DCA00FFFFFFFF00E100000000000000005F03AA
:103DDA008000000000005D01FD0319021D0273014D
:103DEA0043021F0200C1808100000009000B000A83
:103DFA00002C0073617665003A00737400627200E9
:103E0A00302C302C30007261003235352C302C3099
:103E1A00007365007C003B006900617500736300F4
:00000001FF
