:1000000037C1000066C1000064C1000062C1000089
:1000100060C100005EC100005CC100005AC1000068
:1000200058C1000056C1000054C1000052C1000078
:1000300050C100004EC100004CC100004AC1000088
:1000400048C1000046C1000044C1000042C1000098
:1000500040C100003EC100003CC1000022C30000BE
:1000600038C100000C9442120C94191232C10000E5
:1000700030C100002EC100002CC100002AC10000C8
:1000800028C1000026C1000024C1000022C10000D8
:1000900020C100001EC100001CC100001AC10000E8
:1000A00018C1000016C1000014C1000012C10000F8
:1000B00010C100000EC100000CC100000AC1000008
:1000C00008C1000006C1000004C1000002C1000018
:1000D00000C10000FEC00000FCC00000FAC000002B
:1000E000F8C00000E610E910D810DC10E010201174
:1000F000ED10F110F710FB10FF10051109110D1193
:100100002011131117111B119D12A212A712B11267
:10011000BB123413C512CD12D512DF12E912F3123D
:1001200002130C133413161320132A134E414E4995
:100130004E495459494E46CDCCCC3D0AD7233C17A5
:10014000B7D13877CC2B329595E6241FB14F0A00F2
:100150000020410000C84200401C4620BCBE4CCAE2
:100160001B0E5AAEC59D7400000A0B02090C0D0E41
:100170000807030401000000000000000000000068
:10018000000000000000000000000000000000006F
:10019000000000121110000000000000000000002C
:1001A000000000000000000000000000000000222D
:1001B00000250028002B002E003100340002010031
:1001C00000050108010B0100002100240027002A7E
:1001D000002D003000330001010000040107010A76
:1001E0000105050505070508080808020202020ABC
:1001F0000A080804040404010101010101010103CA
:1002000003030303030303040707070C0C0C0C0C84
:100210000C0C0C0202020206060606060606060B77
:100220000B0B0B0B0B0B0B010210202008081020EE
:100230004010204080020102010804020101020472
:100240000810204080804020100804020180040231
:100250000180402010080402010804020101020488
:100260000810204080010204081020408000631420
:1002700011241FBECFEFD1E2DEBFCDBF00E00CBF27
:1002800024E0AEE4B2E001C01D92A438B207E1F769
:1002900012E0A0E0B2E0E4EEF6E300E00BBF02C043
:1002A00007900D92AE34B107D9F711E0C8E3D1E061
:1002B00000E006C021970109802FFE010E9411195C
:1002C000C733D10780E00807A9F70E9477130C9481
:1002D000701B96CE4F925F926F927F928F929F92F9
:1002E000AF92BF92CF92DF92EF92FF920F931F9344
:1002F000CF93DF93CDB7DEB7A0970FB6F894DEBFEC
:100300000FBECDBFE982FA820B831C832D833E830F
:100310004F83588769877A878B879C872496CCACD4
:10032000DDACEEACFFAC24978CA99DA9AEA9BFA90A
:100330008D879E87AF87B88B48AC59AC6AAC7BACD5
:100340008CAC9DACAEACBFAC20E030E04AE753E4EF
:10035000C701B6010E94681687FF13C020E030E095
:1003600040E85FE3C701B6010E940D191816E4F4D6
:1003700080E090E0A0E8BFE3898B9A8BAB8BBC8BCD
:100380001DC020E030E04AE753E4C701B6010E94F7
:100390001818698B7A8B8B8B9C8BC12CD12C8AE79C
:1003A000E82E83E4F82E0AC080E090E0A0E8BFE3E6
:1003B000898B9A8BAB8BBC8B6C017D012D853E8527
:1003C0004F85588969817A818B819C810E94B317FE
:1003D000A70196010E9418186D8B7E8B8F8B988FCA
:1003E000A30192016D817E818F8198850E94B31750
:1003F000A70196010E941818698F7A8F8B8F9C8FA6
:10040000A501940169857A858B859C850E94B31727
:10041000A70196010E9418186D8F7E8F8F8F98A369
:1004200000E010E0C701B6010E9480180617170708
:100430000CF06AC02D893E894F89588D6D857E8567
:100440008F8598890E94B4176D877E878F87988BD8
:10045000298D3A8D4B8D5C8DC301B2010E94B4177A
:100460002B013C012D8D3E8D4F8D58A1C501B4014E
:100470000E94B4174B015C016D857E858F8598893C
:100480000E9480188AE00E947812C301B2010E9483
:1004900080188BE00E947812C501B4010E94801878
:1004A00089E00E9478128D859E85AF85B8898093FA
:1004B0006A0290936B02A0936C02B0936D0240921B
:1004C0006E0250926F02609270027092710280927E
:1004D000720290927302A0927402B09275026989BE
:1004E0007A898B899C890E948018072E000C880BC2
:1004F000990B0E943D138FE792E00E94E20F892B37
:1005000019F40F5F1F4F8ECFA0960FB6F894DEBF81
:100510000FBECDBFDF91CF911F910F91FF90EF9054
:10052000DF90CF90BF90AF909F908F907F906F9013
:100530005F904F9008958F929F92AF92BF92CF920B
:10054000DF92EF92FF920F931F93CF93DF931F924F
:100550001F92CDB7DEB76C017B01ADB6BEB6198276
:100560001A82FB01048115810F5F1F4FB801C7017B
:100570000E945011882379F0F70120813181848114
:100580009581BE016F5F7F4F820F931F0E94401BBA
:10059000F70115830483F701848195818C01015053
:1005A00011092DB73EB7281B390B0FB6F8943EBF83
:1005B0000FBE2DBFEDB7FEB731964F01009789F002
:1005C000EF2B79F08017910708F48C01F701608117
:1005D0007181A801C4010E94471BF401E00FF11FC3
:1005E00010826EE172E0C4010E94B0140E94901467
:1005F000F60160837183828393836EE172E080E011
:1006000090E00E94B0140E949014F60164837583F8
:10061000868397836EE172E080E090E00E94B014E0
:100620000E949014F6016087718782879387C601C4
:100630000FB6F894BEBE0FBEADBE0F900F90DF9107
:10064000CF911F910F91FF90EF90DF90CF90BF90CF
:10065000AF909F908F9008953FB7F89480917B0260
:1006600090917C02A0917D02B0917E0226B5A89B5C
:1006700005C02F3F19F00196A11DB11D3FBFBA2F34
:10068000A92F982F8827820F911DA11DB11DBC0194
:10069000CD0142E0660F771F881F991F4A95D1F759
:1006A00008951F920F920FB60F9211242F933F932C
:1006B0008F939F93AF93BF9380917702909178022D
:1006C000A0917902B0917A023091760223E0230F53
:1006D0002D3720F40196A11DB11D05C026E8230F7A
:1006E0000296A11DB11D209376028093770290930C
:1006F0007802A0937902B0937A0280917B02909164
:100700007C02A0917D02B0917E020196A11DB11DD7
:1007100080937B0290937C02A0937D02B0937E0233
:10072000BF91AF919F918F913F912F910F900FBEED
:100730000F901F9018952F923F924F925F926F9259
:100740007F928F929F92AF92BF92CF92DF92EF9261
:10075000FF920F931F93CF93DF93CDB7DEB7C256AF
:10076000D1090FB6F894DEBF0FBECDBF2DB73EB78F
:10077000A3963FAF2EAFA39721969FAF8EAF219741
:100780008E01095C1F4FAE01415C5F4F65E272E074
:1007900021968EAD9FAD21970E94B314009781F0F2
:1007A000D8018D939D938D0160E272E00E94371B0A
:1007B000892B49F721968EAD9FAD21979AAF89AFCE
:1007C0000FA918AD67E272E0C8010E94371B892BA0
:1007D00009F044C0109269021092680269AD7AADC6
:1007E000CE010D960E94C111BE01635F7F4FCE0105
:1007F0000196A1DECE010D960E94BD1183E48F9378
:100800008AE78F931F921F92EDB7FEB73C970FB602
:10081000F894FEBF0FBEEDBFADB7BEB711968CE02A
:10082000EAE6F2E001900D928A95E1F7E980FA801C
:100830000B811C812D813E814F81588569857A8588
:100840008B859C8547DD2DB73EB7205F3F4F0FB6A8
:10085000F8943EBF0FBE2DBF0C94090F6AE272E000
:10086000C8010E94371B892B09F08FC110926902C1
:100870001092680269AD7AADCE010D960E94C11149
:10088000BE01635F7F4FCE01019655DECE010D960E
:100890000E94BD118BAD9CAD0E9490144B015C0178
:1008A00089819A81AB81BC816D968CAF9DAFAEAFD3
:1008B000BFAF6D978D819E81AF81B88569968CAFF2
:1008C0009DAFAEAFBFAF699789859A85AB85BC8573
:1008D00061968CAF9DAFAEAFBFAF61976DE272E036
:1008E000CE010D960E94C111BE01635F7F4FCE0104
:1008F000499621DE83E48F938AE78F931F921F929C
:10090000ADB7BEB71C970FB6F894BEBF0FBEADBF54
:1009100011968CE0EAE6F2E001900D928A95E1F7FB
:10092000E98CFA8C0B8D1C8D2D8D3E8D4F8D58A131
:1009300069A17AA18BA19CA1CDDCCE010D960E946C
:10094000BD11A501940160E070E080E89FE30E9482
:10095000181820E030E040E05FE30E94CD1620E070
:1009600030E04AE753E40E94181820E030E04AE7FC
:1009700054E40E94CD16A1966CAF7DAF8EAF9FAFB1
:10098000A197EDB7FEB770960FB6F894FEBF0FBEF5
:10099000EDBF212C312CB101032C000C880B990BDD
:1009A0000E946E162B013C019B01AC016D966CAD53
:1009B0007DAD8EAD9FAD6D970E94CD1620E030E0ED
:1009C0004AE753E40E9418184B015C010E9480180A
:1009D0008AE00E947812A301920169966CAD7DAD08
:1009E0008EAD9FAD69970E94CD1620E030E04AE7BA
:1009F00053E40E9418186B017C010E9480188BE060
:100A00000E947812A301920161966CAD7DAD8EAD0E
:100A10009FAD61970E94CD1620E030E04AE753E495
:100A20000E9418182B013C010E94801889E00E9446
:100A30007812A1966CAD7DAD8EAD9FADA1970E9451
:100A4000851865966CAF7DAF8EAF9FAF65970E949E
:100A50003D138FE792E00E94E20F892BD1F0809244
:100A60006A0290926B02A0926C02B0926D02C092E8
:100A70006E02D0926F02E0927002F0927102409288
:100A800072025092730260927402709275020C941A
:100A9000090FFFEF2F1A3F0A2AEF2216310409F03F
:100AA0007ACF0AEF10E0B801012E000C880B990BE9
:100AB0000E946E166B017C019B01AC016D966CADC2
:100AC0007DAD8EAD9FAD6D970E94CD1620E030E0DC
:100AD0004AE753E40E9418182B013C010E94801839
:100AE0008AE00E947812A701960169966CAD7DADEF
:100AF0008EAD9FAD69970E94CD1620E030E04AE7A9
:100B000053E40E9418184B015C010E9480188BE08E
:100B10000E947812A701960161966CAD7DAD8EADF5
:100B20009FAD61970E94CD1620E030E04AE753E484
:100B30000E9418186B017C010E94801889E00E94B5
:100B4000781265966CAD7DAD8EAD9FAD65970E94B8
:100B50003D138FE792E00E94E20F892B89F04092CB
:100B60006A0250926B0260926C0270926D028092E7
:100B70006E0290926F02A0927002B092710271C5E3
:100B80000150110909F08FCF04CF63E372E0C8016F
:100B90000E94371B892B09F07BC5109269021092C5
:100BA000680289AD9AAD0E9490144B015C0166E326
:100BB00072E0CE0101960E94C111BE016F5F7F4FAE
:100BC000CE010D96B8DC83E48F938AE78F931F9252
:100BD0001F928DB79EB70C970FB6F8949EBF0FBEAD
:100BE0008DBFADB7BEB711968CE0EAE6F2E001909A
:100BF0000D928A95E1F7ED84FE840F851889298985
:100C00003A894B895C896D897E898F89988D62DBF1
:100C1000CE0101960E94BD1120E030E044EB53E488
:100C2000C501B4010E94181820E030E04AE754E4FE
:100C30000E94CD166D966CAF7DAF8EAF9FAF6D9756
:100C4000ADB7BEB750960FB6F894BEBF0FBEADBFDE
:100C50002F961FAE1EAE2F972F96EEADFFAD2F979E
:100C6000BF01FF0F880B990B0E946E1620E030E049
:100C700040E752E40E94181865966CAF7DAF8EAFC6
:100C80009FAF659720E030E040EA50E40E94B4173F
:100C900020E030E040EC50E40E94B8185B016C01A9
:100CA0003B014C019B01AC0160E070E080E890E406
:100CB0000E94B317162F072FF82EE92E20E030E000
:100CC00040E85FE30E94681687FD25C020E030E021
:100CD00040E85FE3B501C6010E94681687FF0AC0BD
:100CE00020E030E0A901B501C6010E940D191816D7
:100CF0000CF05AC020E030E040E85FE3612F702F35
:100D00008F2D9E2D0E94681687FD18C070E060E050
:100D100090E88FE315C0212F302F4F2D5E2DB501A8
:100D2000C6010E94681687FF70C020E030E0A9016C
:100D3000B501C6010E940D191816B4F5B801C70116
:100D4000272F362F492F582FB501C6010E9468164C
:100D500087FD0FC020E030E040E85FE3612F702F97
:100D60008F2D9E2D0E94681687FF08C0B801C7010D
:100D700009C07A2D6B2D9C2D8D2D04C070E060E094
:100D800090E88FE3272F362F492F582F60E070E02F
:100D900080E89FE30E94B31720E030E0A9010E94A1
:100DA0000D1918160CF07FC020E030E040E85FE33A
:100DB000612F702F8F2D9E2D0E94681687FD31C0E8
:100DC00020E030E040E85FE3B501C6010E9468160C
:100DD00087FF0AC020E030E0A901B501C6010E94EA
:100DE0000D1918160CF0D9C720E030E040E85FE399
:100DF000612F702F8F2D9E2D0E94681687FD27C0B2
:100E000070E060E090E88FE324C020E030E0A901CA
:100E1000612F702F8F2D9E2D0E940D1918160CF426
:100E20008DCF212F302F4F2D5E2DB501C6010E9491
:100E3000681687FDACC720E030E0A901612F702F54
:100E40008F2D9E2D0E940D1918160CF0A6C7B80103
:100E5000C701272F362F492F582FB501C6010E94F1
:100E6000681687FD17C020E030E040E85FE3612F9F
:100E7000702F8F2D9E2D0E94681687FF05C0612E52
:100E8000702E8F2C9E2C06C0612C712CB0E88B2EFE
:100E90001FE3912E9301A40160E070E080E89FE3DE
:100EA0000E94B31773C020E030E040E85FE3612F99
:100EB000702F8F2D9E2D0E94681687FD25C020E083
:100EC00030E040E85FE3B501C6010E94681687FF85
:100ED0000AC020E030E0A901B501C6010E940D1949
:100EE00018160CF065C720E030E040E85FE3612FA2
:100EF000702F8F2D9E2D0E94681687FD1BC070E0FD
:100F000060E090E88FE318C0212F302F4F2D5E2D29
:100F1000B501C6010E94681687FD44C720E030E095
:100F2000A901612F702F8F2D9E2D0E940D1918166B
:100F30000CF03EC7B801C701272F362F492F582F75
:100F4000B501C6010E94681687FD17C020E030E099
:100F500040E85FE3612F702F8F2D9E2D0E94681651
:100F600087FF05C0612E702E8F2C9E2C06C0612C31
:100F7000712CF0E88F2EAFE39A2E9301A40160E06C
:100F800070E080E89FE30E94B317905820E030E0C3
:100F90004FE753E40E94CD1669966CAF7DAF8EAFDC
:100FA0009FAF699720E030E040E450E465966CAD77
:100FB0007DAD8EAD9FAD65970E94B41720E030E007
:100FC00040EC50E40E94B8185B016C013B014C01FD
:100FD0009B01AC0160E070E080E890E40E94B317F0
:100FE000162F072FF82EE92E20E030E040E85FE3CF
:100FF0000E94681687FD25C020E030E040E85FE3EE
:10100000B501C6010E94681687FF0AC020E030E0E3
:10101000A901B501C6010E940D1918160CF05AC09D
:1010200020E030E040E85FE3612F702F8F2D9E2D90
:101030000E94681687FD18C070E060E090E88FE3BA
:1010400015C0212F302F4F2D5E2DB501C6010E94F6
:10105000681687FF70C020E030E0A901B501C60125
:101060000E940D191816B4F5B801C701272F362FA5
:10107000492F582FB501C6010E94681687FD0FC081
:1010800020E030E040E85FE3612F702F8F2D9E2D30
:101090000E94681687FF08C0B801C70109C07A2DF1
:1010A0006B2D9C2D8D2D04C070E060E090E88FE3E7
:1010B000272F362F492F582F60E070E080E89FE3FC
:1010C0000E94B31720E030E0A9010E940D19181604
:1010D0000CF07FC020E030E040E85FE3612F702F2C
:1010E0008F2D9E2D0E94681687FD31C020E030E0D4
:1010F00040E85FE3B501C6010E94681687FF0AC099
:1011000020E030E0A901B501C6010E940D191816B2
:101110000CF059C620E030E040E85FE3612F702F0B
:101120008F2D9E2D0E94681687FD27C070E060E01D
:1011300090E88FE324C020E030E0A901612F702FF8
:101140008F2D9E2D0E940D1918160CF48DCF212F76
:10115000302F4F2D5E2DB501C6010E94681687FD08
:101160002CC620E030E0A901612F702F8F2D9E2D1D
:101170000E940D1918160CF026C6B801C701272FBA
:10118000362F492F582FB501C6010E94681687FDDA
:1011900017C020E030E040E85FE3612F702F8F2D13
:1011A0009E2D0E94681687FF05C0612E702E8F2C21
:1011B0009E2C06C0612C712C70E8872EEFE39E2ECA
:1011C0009301A40160E070E080E89FE30E94B31700
:1011D00073C020E030E040E85FE3612F702F8F2D77
:1011E0009E2D0E94681687FD25C020E030E040E873
:1011F0005FE3B501C6010E94681687FF0AC020E0C0
:1012000030E0A901B501C6010E940D1918160CF0B5
:10121000E5C520E030E040E85FE3612F702F8F2DBF
:101220009E2D0E94681687FD1BC070E060E090E86C
:101230008FE318C0212F302F4F2D5E2DB501C60131
:101240000E94681687FDC4C520E030E0A901612F27
:10125000702F8F2D9E2D0E940D1918160CF0BEC5F3
:10126000B801C701272F362F492F582FB501C601C6
:101270000E94681687FD17C020E030E040E85FE379
:10128000612F702F8F2D9E2D0E94681687FF05C03D
:10129000612E702E8F2C9E2C06C0612C712C50E874
:1012A000852E6FE3962E9301A40160E070E080E844
:1012B0009FE30E94B317905820E030E04FE753E4DB
:1012C0000E94CD162B013C0120E030E040E85FE3B6
:1012D00065966CAD7DAD8EAD9FAD65970E94B417E0
:1012E00020E030E040EC50E40E94B8185B016C0153
:1012F0001B014C019B01AC0160E070E080E890E4D0
:101300000E94B317162F072FF82EE92E20E030E0A9
:1013100040E85FE30E94681687FD25C020E030E0CA
:1013200040E85FE3B501C6010E94681687FF0AC066
:1013300020E030E0A901B501C6010E940D19181680
:101340000CF05AC020E030E040E85FE3612F702FDE
:101350008F2D9E2D0E94681687FD18C070E060E0FA
:1013600090E88FE315C0212F302F4F2D5E2DB50152
:10137000C6010E94681687FF70C020E030E0A90116
:10138000B501C6010E940D191816B4F5B801C701C0
:10139000272F362F492F582FB501C6010E946816F6
:1013A00087FD0FC020E030E040E85FE3612F702F41
:1013B0008F2D9E2D0E94681687FF08C0B801C701B7
:1013C00009C07A2D6B2D9C2D8D2D04C070E060E03E
:1013D00090E88FE3272F362F492F582F60E070E0D9
:1013E00080E89FE30E94B31720E030E0A9010E944B
:1013F0000D1918160CF07FC020E030E040E85FE3E4
:10140000612F702F8F2D9E2D0E94681687FD31C091
:1014100020E030E040E85FE3B501C6010E946816B5
:1014200087FF0AC020E030E0A901B501C6010E9493
:101430000D1918160CF0DDC420E030E040E85FE341
:10144000612F702F8F2D9E2D0E94681687FD27C05B
:1014500070E060E090E88FE324C020E030E0A90174
:10146000612F702F8F2D9E2D0E940D1918160CF4D0
:101470008DCF212F302F4F2D5E2DB501C6010E943B
:10148000681687FDB0C420E030E0A901612F702FFD
:101490008F2D9E2D0E940D1918160CF0AAC4B801AC
:1014A000C701272F362F492F582FB501C6010E949B
:1014B000681687FD17C020E030E040E85FE3612F49
:1014C000702F8F2D9E2D0E94681687FF05C0212E3C
:1014D000302E8F2C9E2C06C0212C312C30E8832EF0
:1014E0004FE3942E9101A40160E070E080E89FE357
:1014F0000E94B31773C020E030E040E85FE3612F43
:10150000702F8F2D9E2D0E94681687FD25C020E02C
:1015100030E040E85FE3B501C6010E94681687FF2E
:101520000AC020E030E0A901B501C6010E940D19F2
:1015300018160CF069C420E030E040E85FE3612F4A
:10154000702F8F2D9E2D0E94681687FD1BC070E0A6
:1015500060E090E88FE318C0212F302F4F2D5E2DD3
:10156000B501C6010E94681687FD48C420E030E03E
:10157000A901612F702F8F2D9E2D0E940D19181615
:101580000CF042C4B801C701272F362F492F582F1E
:10159000B501C6010E94681687FD17C020E030E043
:1015A00040E85FE3612F702F8F2D9E2D0E946816FB
:1015B00087FF05C0212E302E8F2C9E2C06C0212C9B
:1015C000312C90E8892E2FE3922E9101A40160E046
:1015D00070E080E89FE30E94B317905820E030E06D
:1015E0004FE753E40E94CD166B017C0169966CAD08
:1015F0007DAD8EAD9FAD69970E9480188AE078D747
:10160000C301B2010E9480188BE072D7C701B601F6
:101610000E94801889E06CD76D966CAD7DAD8EAD63
:101620009FAD6D970E9485180E943D138FE792E051
:10163000C9D4892BF9F069968CAD9DADAEADBFAD27
:10164000699780936A0290936B02A0936C02B093A7
:101650006D0240926E0250926F0260927002709220
:101660007102C0927202D0927302E0927402F09200
:101670007502CFC32F96AEADBFAD2F9711962F96A3
:10168000BFAFAEAF2F97A836B14009F0E5CAE0CAA8
:101690006EE372E0C8010E94371B892B09F0B1C1CB
:1016A00010926902109268028BAD9CAD0E9490145A
:1016B00065966CAF7DAF8EAF9FAF6597C9ACDAAC66
:1016C000D6010D900020E9F7F601CD010197212CFC
:1016D000312CE817F90739F021912C37D1F72FEF8A
:1016E000221A320AF6CF31E0231A31088DB69EB69F
:1016F000F60101900020E9F73197EC19FD098DB74B
:101700009EB78E1B9F0B0FB6F8949EBF0FBE8DBF6A
:101710000DB71EB70F5F1F4FF60101900020E9F7CC
:101720003197AF014C195D09B601C8010E942E1B0B
:101730001EAF0DAF6FE172E0CE01C19622D6AE01B1
:10174000435C5F4F61E472E08DAD9EAD0E94B314C7
:10175000009721F0BC01CE01C196FAD563E472E096
:10176000CE0149960ED6BE01675E7F4FCE01C1966F
:101770007DD59C0140E050E0BE016F5C7F4FCE0103
:101780000D9613D6BE01635F7F4FCE0101960E9476
:101790009B0283E48F938AE78F931F921F92ADB7CA
:1017A000BEB71C970FB6F894BEBF0FBEADBF119663
:1017B0008CE0EAE6F2E001900D928A95E1F7E9808B
:1017C000FA800B811C812D813E814F81588569856E
:1017D0007A858B859C850E946A01CE010D96CDD5B8
:1017E000CE014996CAD5EDB7FEB770960FB6F894FC
:1017F000FEBF0FBEEDBFA12CB12CA214B3040CF0A0
:10180000F7C06FE172E0CE018B96BBD5AE01435CB1
:101810005F4F61E472E08DAD9EAD0E94B3140097FE
:1018200021F0BC01CE018B9693D563E472E0CE012A
:101830008596A7D5BE016B5D7F4FCE018B9616D5E1
:101840009C0140E050E0BE01655D7F4FCE014996AE
:10185000ACD5BE01675E7F4FCE010D960E949B0204
:10186000CE0149968AD5CE01859687D563E472E08C
:10187000CE01859686D5BE016B5D7F4FCE01C196A8
:10188000F5D42DA93EA9AC014F5F5F4FBE016F5C3F
:101890007F4FCE01499689D5898D9A8D009729F081
:1018A0000E9490142B013C0103C0412C512C3201A9
:1018B000CE01499662D5CE0185965FD563E472E08C
:1018C000CE0185965ED5BE016B5D7F4FCE018B96B6
:1018D000CDD42FA538A9AC014F5F5F4FBE01655D28
:1018E0007F4FCE01499661D5898D9A8D009749F039
:1018F0000E94901461966CAF7DAF8EAF9FAF6197E1
:1019000006C061961CAE1DAE1EAE1FAE6197CE0125
:10191000499633D5CE01859630D5A30192016196C3
:101920006CAD7DAD8EAD9FAD61970E94B31765968E
:101930002CAD3DAD4EAD5FAD65970E94CD1620E05C
:1019400030E04AE754E40E94CD169F938F937F9333
:101950006F932DB73EB72C5031090FB6F8943EBFA8
:101960000FBE2DBFADB7BEB71196EAE6F2E08CE030
:1019700001900D928A95E1F7ED84FE840F85188918
:1019800029893A894B895C896D897E898F89988DEF
:101990000E946A016BA57CA58DB79EB740960FB6D5
:1019A000F8949EBF0FBE8DBF6115710531F04FA534
:1019B00058A9CE01C196ADD403C0CE01C19697D42B
:1019C0008FE792E0FFD2892B39F4CE018B96D5D4E4
:1019D0009FEFA91AB90A11CFCE018B96CED4CE01B2
:1019E000C196CBD40FB6F8949EBE0FBE8DBE11C269
:1019F000CE01C196C2D40FB6F8949EBE0FBE8DBE66
:101A000075CE60E272E0C8010E94371B892B39F560
:101A100063E680E090E00E948C17EE24E394F12CC2
:101A200009AD1AADF80101900020E9F7CF01801B44
:101A3000910BE816F90660F40E0D1F1DF8013197A1
:101A40006081C7010E948C17AFEFEA1AFA0AE8CF4B
:101A50006FEF0E948C17C8010E949B03DAC165E4F6
:101A600072E0C8010E94371B892B29F41092690289
:101A700010926802CEC167E472E0C8010E94371B71
:101A8000892B09F04FC01092680281E080936902AF
:101A900089AD9AAD9EA38DA3AE014B5D5F4F61E40E
:101AA00072E061D70097C9F0BC01CE01019669D4FC
:101AB000BE016F5F7F4FCE018F5B9F4F0E949B02E5
:101AC0008CE0FE01EF5BFF4FAEE4B2E001900D92BF
:101AD0008A95E1F7CE01019650D4AE014B5D5F4F80
:101AE00061E472E08DA19EA13ED7009709F491C1F7
:101AF000BC01CE01019645D4BE016F5F7F4FCE0180
:101B00008F5B9F4F0E949B028CE0FE01EF5BFF4FBB
:101B1000AAE5B2E001900D928A95E1F7CE01019617
:101B20002CD477C16AE472E0C8010E94371B892B6C
:101B300069F41092690281E08093680289AD9AADE0
:101B4000F2D6909367028093660263C18091690226
:101B5000882309F4D2C0F8018081082E000C990B6B
:101B6000C0970A9708F055C1C801DDD6BC01990F8E
:101B7000880B990B0E946E1620E030E048EC52E48E
:101B80000E9418184B015C0180914E0290914F0207
:101B9000A0915002B091510261968CAF9DAFAEAF53
:101BA000BFAF619740905202509053026090540230
:101BB00070905502A301920160915E0270915F02E4
:101BC00080916002909161020E94B31765966CAF9C
:101BD0007DAF8EAF9FAF6597C0905602D0905702F1
:101BE000E0905802F0905902A701960160916202BC
:101BF0007091630280916402909165020E94B31714
:101C000069966CAF7DAF8EAF9FAF699761962CAD33
:101C10003DAD4EAD5FAD619760915A0270915B0230
:101C200080915C0290915D020E94B317A50194011E
:101C30000E94CD169B01AC0161966CAD7DAD8EAD61
:101C40009FAD61970E94B41769837A838B839C83CD
:101C5000A501940165966CAD7DAD8EAD9FAD659788
:101C60000E94CD169B01AC01C301B2010E94B417C2
:101C70006D837E838F839887A501940169966CADEF
:101C80007DAD8EAD9FAD69970E94CD169B01AC01D5
:101C9000C701B6010E94B41769877A878B879C8732
:101CA00081E48F9380EF8F931F921F92ADB7BEB7E1
:101CB0001C970FB6F894BEBF0FBEADBF11968CE057
:101CC000EAE6F2E001900D928A95E1F7E980FA8068
:101CD0000B811C812D813E814F81588569857A85D4
:101CE0008B859C850E946A01EDB7FEB770960FB692
:101CF000F894FEBF0FBEEDBF8CC0809168028823B0
:101D000009F487C0B801CE010D963BD3BE01635FD5
:101D10007F4FCE0101960E949B02CE010D962DD3DE
:101D20006091660270916702072E000C880B990B78
:101D3000D5D79F938F937F936F932DB73EB72C503A
:101D400031090FB6F8943EBF0FBE2DBFADB7BEB779
:101D500011968CE0EAE6F2E001900D928A95E1F7A7
:101D6000E980FA800B811C812D813E814F8158854D
:101D700069857A858B859C850E946A018DB79EB79F
:101D800040960FB6F8949EBF0FBE8DBF42C020E0B4
:101D900030E0A901B501C60155C8612C712C812C18
:101DA000912C78C820E030E0A901B501C601BDC87A
:101DB000612C712C812C912CE0C820E030E0A9012D
:101DC000B501C601D5C9612C712C812C912CF8C9A3
:101DD00020E030E0A901B501C6013DCA612C712C9B
:101DE000812C912C60CA20E030E0A901B501C60128
:101DF00051CB212C312C812C912C74CB20E030E064
:101E0000A901B501C601B9CB212C312C812C912C13
:101E1000DCCBA396AEADBFADA3970FB6F894BEBF13
:101E20000FBEADBFCE59DF4F0FB6F894DEBF0FBE69
:101E3000CDBFDF91CF911F910F91FF90EF90DF9079
:101E4000CF90BF90AF909F908F907F906F905F905A
:101E50004F903F902F900895CF92DF92EF92FF9294
:101E60000F931F93CF93DF93CDB7DEB7CE55D140FD
:101E70000FB6F894DEBF0FBECDBF8E010F5F1F4FB0
:101E8000EE24E394F12C6801C7010E9484178F3F70
:101E900039F0F80181938F01FFEFEF1AFF0AF4CFB9
:101EA000C6010E949B03C25ADE4F0FB6F894DEBFF4
:101EB0000FBECDBFDF91CF911F910F91FF90EF909B
:101EC000DF90CF90089590E0FC01E95DFD4F2491F3
:101ED000FC01EF51FE4F8491882399F090E0880F28
:101EE000991FFC01E953FE4FA591B491FC01E35504
:101EF000FE4F859194918FB7F894EC91E22BEC937F
:101F00008FBF0895CF92DF92EF92FF920F931F93AE
:101F1000CF93DF936C017A018B01C0E0D0E0CE1546
:101F2000DF0589F0D8016D918D01D601ED91FC910D
:101F30000190F081E02DC6011995892B11F47E01E5
:101F400002C02196ECCFC701DF91CF911F910F9175
:101F5000FF90EF90DF90CF900895089580E090E09B
:101F60000895FC01538D448D252F30E0842F90E09F
:101F7000821B930B541710F0CF9608950197089584
:101F8000FC01918D828D981761F0828DDF01A80F81
:101F9000B11D5D968C91928D9F5F9F73928F90E0A3
:101FA00008958FEF9FEF0895FC01918D828D981712
:101FB00031F0828DE80FF11D858D90E008958FEF4F
:101FC0009FEF0895FC01918D228D892F90E0805C18
:101FD0009F4F821B91098F73992708958FE792E095
:101FE000F1DF21E0892B09F420E0822F0895FC0124
:101FF000848DDF01A80FB11DA35ABF4F2C91848D92
:1020000090E001968F739927848FA689B7892C93C6
:10201000A089B1898C9180648C93938D848D981361
:1020200006C00288F389E02D80818F7D808308952A
:10203000EF92FF920F931F93CF93DF93EC0181E018
:10204000888F9B8D8C8D981305C0E889F9898081D4
:1020500085FD23C0F62E0B8D10E00F5F1F4F0F7311
:102060001127E02E8C8DE8120BC00FB607FCFACFBB
:10207000E889F989808185FFF5CFCE01B8DFF2CFFD
:102080008B8DFE01E80FF11DE35AFF4FF0820B8F9D
:10209000EA89FB898081806207C0EE89FF896083BD
:1020A000E889F98980818064808381E090E0DF9114
:1020B000CF911F910F91FF90EF900895CF93DF93F1
:1020C000EC01888D8823C1F0EA89FB89808185FD38
:1020D00005C0A889B9898C9186FD0EC00FB607FC92
:1020E000F5CF808185FFF2CFA889B9898C9185FFD2
:1020F000EDCFCE017CDFE8CFDF91CF91089580E076
:1021000090E0892B19F06ADF811125C080E090E012
:10211000892B41F080E090E0892B21F00E940000A3
:1021200081111CC080E090E0892B41F080E090E0BC
:10213000892B21F00E940000811113C080E090E003
:10214000892BA1F080E090E0892B81F00E940000B3
:1021500081110AC008950E940000D8CF0E9400009B
:10216000E1CF0E940000EACF0C9400000895362FC2
:1021700090E0FC01E959FE4F4491FC01E95DFD4FFF
:102180002491FC01EF51FE4F9491992309F46BC007
:10219000442309F455C050E0FA013197E231F105CA
:1021A00008F04EC08827EE58FF4F8F4F0C9411193E
:1021B000809180008F7707C0809180008F7D03C061
:1021C00080918000877F809380003AC084B58F77AC
:1021D00002C084B58F7D84BD33C08091B0008F77FD
:1021E00003C08091B0008F7D8093B00029C08091A2
:1021F00090008F7707C0809190008F7D03C0809101
:102200009000877F809390001BC08091A0008F7703
:1022100007C08091A0008F7D03C08091A000877FC0
:102220008093A0000DC0809120018F7707C080911E
:1022300020018F7D03C080912001877F8093200142
:10224000E92FF0E0EE0FFF1FE355FE4FA591B4918B
:102250008FB7F894EC91311103C020952E2301C063
:102260002E2B2C938FBF08950E942A1BCF93DF93B0
:10227000FC0124813581232B71F0FB01DC01CD9120
:10228000DC9160817181CE010E94561B009719F08C
:102290008C1B9D0B02C08FEF9FEFDF91CF910895B4
:1022A0000F931F93CF93DF93EC018881998100975F
:1022B00029F02A813B812617370788F48B016F5F4D
:1022C0007F4F0E94461A009761F0998388831B8391
:1022D0000A832C813D81232B11F4FC01108281E0C3
:1022E00001C080E0DF91CF911F910F910895CF93AE
:1022F000DF93EC0188819981009711F00E94AE195B
:10230000198218821D821C821B821A82DF91CF9152
:102310000895EF92FF920F931F93CF93DF93EC01F9
:102320007B018A01BA01BCDF811103C0CE01DFDF6E
:1023300007C01D830C83B701888199810E94401BCF
:10234000CE01DF91CF911F910F91FF90EF900895F3
:10235000CF93DF93EC016115710551F0FB01019002
:102360000020E9F73197AF01461B570BD2DF01C0C0
:10237000BEDFCE01DF91CF910895FC018081918174
:10238000EDC7FC0111821082138212821582148221
:102390006115710549F0FB0101900020E9F73197C3
:1023A000AF01461B570BB5CF0895BF92CF92DF9276
:1023B000EF92FF920F931F93CF93DF937C016B01FA
:1023C0008A01E9012417350720F4812F8901C42FE0
:1023D000D82F6FE172E0C701D4DFD60114968D913A
:1023E0009C91159708171907C8F48C179D0708F4D6
:1023F000EC01D601ED91FC911197EC0FFD1FB0801F
:1024000010824D915C91BA01600F711FC701A0DF6E
:10241000D601ED91FC91EC0FFD1FB082C701DF9159
:10242000CF911F910F91FF90EF90DF90CF90BF90D1
:1024300008951F920F920FB60F9211240BB60F92B0
:102440002F933F934F935F936F937F938F939F93BC
:10245000AF93BF93EF93FF938FE792E0C8DDFF91B7
:10246000EF91BF91AF919F918F917F916F915F910C
:102470004F913F912F910F900BBE0F900FBE0F9079
:102480001F9018951F920F920FB60F9211240BB642
:102490000F922F938F939F93EF93FF93E0918F026F
:1024A000F09190028081E0919502F091960282FD78
:1024B00012C09081809198028F5F8F732091990252
:1024C000821751F0E0919802F0E0E158FD4F958FAE
:1024D0008093980201C08081FF91EF919F918F912D
:1024E0002F910F900BBE0F900FBE0F901F9018955D
:1024F0001F93CF93DF93182FEB01E5DC209711F4A6
:1025000060E004C0CF3FD10531F461E0812FDF915D
:10251000CF911F912CCEE12FF0E0E959FE4FE491CD
:102520004E2F50E0FA013197E231F10508F09CC0DE
:102530008827EC57FF4F8F4F74C684B5806884BDE1
:10254000C7BD97C084B5806284BDC8BD92C080916C
:102550008000806880938000D0938900C0938800B9
:1025600088C080918000806280938000D0938B002F
:10257000C0938A007EC08091800088608093800034
:10258000D0938D00C0938C0074C08091B00080689F
:102590008093B000C093B3006CC08091B0008062A3
:1025A0008093B000C093B40064C0809190008068B4
:1025B00080939000D0939900C09398005AC0809166
:1025C0009000806280939000D0939B00C0939A000B
:1025D00050C080919000886080939000D0939D00BF
:1025E000C0939C0046C08091A00080688093A000AA
:1025F0008091A0008F7B8093A000D093A900C0930E
:10260000A80037C08091A00080628093A000D09382
:10261000AB00C093AA002DC08091A0008860809379
:10262000A000D093AD00C093AC0023C080912001E6
:10263000806880932001D0932901C093280119C09C
:1026400080912001806280932001D0932B01C09360
:102650002A010FC080912001886080932001D093CF
:102660002D01C0932C0105C0C038D1050CF04DCF11
:1026700047CFDF91CF911F9108958F929F92AF9294
:10268000BF92CF92DF92EF92FF926B017C010E948A
:102690002C034B015C01C114D104E104F104F1F0FD
:1026A0000E942C03DC01CB0188199909AA09BB09F6
:1026B000883E9340A105B10570F321E0C21AD1080C
:1026C000E108F10888EE880E83E0981EA11CB11C79
:1026D000C114D104E104F10419F7DDCFFF90EF90AC
:1026E000DF90CF90BF90AF909F908F900895789497
:1026F00084B5826084BD84B5816084BD85B5826007
:1027000085BD85B5816085BD80916E0081608093B7
:102710006E00109281008091810082608093810020
:102720008091810081608093810080918000816030
:10273000809380008091B10084608093B10080918B
:10274000B00081608093B00080919100826080939E
:102750009100809191008160809391008091900020
:102760008160809390008091A10082608093A1009D
:102770008091A10081608093A1008091A000816080
:102780008093A0008091210182608093210180913B
:1027900021018160809321018091200181608093DB
:1027A000200180917A00846080937A0080917A0081
:1027B000826080937A0080917A00816080937A00B1
:1027C00080917A00806880937A001092C100E09135
:1027D0008F02F091900282E08083E0918B02F09171
:1027E0008C021082E0918D02F0918E0283E380834F
:1027F00010929702E0919302F091940286E0808318
:10280000E0919102F0919202808180618083E09159
:102810009102F0919202808188608083E091910220
:10282000F0919202808180688083E0919102F09122
:10283000920280818F7D80838AE045DB8BE043DBE1
:1028400089E041DB8AE090E0A0E0B0E08093830281
:1028500090938402A0938502B093860280E090E07A
:1028600053D3833609F4F8DACEE5D1E08FE792E06E
:10287000A9DB892B31F18FE792E082DB8A3099F472
:102880008CE193E00E949B038FE792E017DCECE180
:10289000F3E0DF01CE011D920197E9F710927B046E
:1028A00010927A040EC020917A0430917B04F901D1
:1028B000E45EFC4F80832F5F3F4F30937B04209377
:1028C0007A041DDCD3CFEFE7F2E01382128288EEA8
:1028D00093E0A0E0B0E084839583A683B7838AE089
:1028E00092E09183808385EC90E09587848784ECE7
:1028F00090E09787868780EC90E0918B808B81ECCD
:1029000090E0938B828B82EC90E0958B848B86ECAD
:1029100090E0978B868B118E128E138E148E0895F5
:10292000662777274FC0FC0188279927E8942191D3
:102930002032E9F3293010F02E30C8F32B3239F071
:102940002D3231F4689403C035D0820F911D21914E
:1029500020532A30C8F31EF4909581959F4F089517
:102960004CE754E000C0FA01A191B081009719F43E
:102970001097E1F0CD01DC01CD010D90002011F4A4
:10298000C00113C0FB012191222319F02015D9F7B2
:10299000F3CFFB012191201519F41E92119606C068
:1029A0002223C1F70D900020A1F7D001FA01A193D5
:1029B000B08308957AE0979F902D879F802D910D89
:1029C000112408956F927F928F929F92AF92BF923F
:1029D000CF92DF92EF92FF920F931F93CF93DF93EB
:1029E000EC017B016115710519F0DB018D939C935E
:1029F0008E010F5F1F4F7880872D90E049D1892B82
:102A000011F0E801F5CFBDE27B1205C00F5F1F4F4B
:102A10007980C1E008C0EBE27E1204C08E010E5F37
:102A20001F4F7980C0E06801F1E0CF1AD10843E080
:102A300050E064E371E0C60133D1892BE9F4680109
:102A400022E0C20ED11C45E050E06FE271E0C60109
:102A500027D1892B21F4680187E0C80ED11CE1142D
:102A6000F10419F0D701CD92DC92C111F9C060E0F8
:102A700070E080E89FE7FDC043E050E06CE271E069
:102A8000C6010ED1892B51F4E114F10409F4EDC013
:102A90000E5F1F4FF70111830083E7C0680160E0FC
:102AA00070E0CB0100E010E0F601D0EDD70DDA3098
:102AB00050F52C2F2260622E2C2F2870C2FF05C0EB
:102AC000211127C00F5F1F4F24C0222311F0015096
:102AD0001109A5E0B0E09B01AC012CD24B015C01D7
:102AE000880C991CAA1CBB1CC501B4016D0F711D7B
:102AF000811D911D6839A9E97A078A07A9E19A071A
:102B000040F0C66005C0DE3F51F4C3FD44C0C8605C
:102B10006C2EBFEFCB1ADB0A7080C62DC5CF2D2FD0
:102B20002F7D2531C1F540814D3211F4C06106C0C1
:102B30004B3221F0319621E030E006C03296D601CA
:102B400011964C9122E030E0A0EDA40FAA3018F0CD
:102B5000E21BF30B20C040E050E04038BCE05B07D4
:102B60005CF49A01220F331F220F331F420F531FB1
:102B7000440F551F4A0F511D3196DF0111972C91BB
:102B8000A0EDA20FAA3048F3C4FF03C051954195B0
:102B90005109040F151FC1FF07C0E114F10421F012
:102BA0003197D701ED93FC9397D0C370C33019F0E0
:102BB0006B017C0106C06B017C01F7FAF094F7F819
:102BC000F09420E030E0A901C701B60181D088234C
:102BD00009F443C017FF06C0119501951109CBE414
:102BE000D1E002C0C3E6D1E05E01B8E1AB1AB108A2
:102BF0004601BE2DAF2D90E2E92EF12C0E151F05DA
:102C00007CF0FE012591359145915491B4018B2FB3
:102C10009A2FC3D04B01B82FA92F0E191F09EECF41
:102C20002497F594E794CA15DB0541F76401EB2E70
:102C3000FA2E8E2D880F8F2D881F8F3F41F020E0B8
:102C400030E0A901C701B60143D0811106C082E27C
:102C500090E090937F0480937E04C701B60109C081
:102C600060E070E080E89FEF04C060E070E080EC1E
:102C70009FE7DF91CF911F910F91FF90EF90DF9031
:102C8000CF90BF90AF909F908F907F906F9008955E
:102C90009111E6C0803219F089508550D0F708951F
:102CA000FB01DC014150504088F08D9181341CF0D3
:102CB0008B350CF4805E659161341CF06B350CF43F
:102CC000605E861B611171F3990B0895881BFCCF20
:102CD00040D008F481E00895E89409C097FB3EF4E1
:102CE00090958095709561957F4F8F4F9F4F992359
:102CF000A9F0F92F96E9BB279395F69587957795D7
:102D00006795B795F111F8CFFAF4BB0F11F460FF96
:102D10001BC06F5F7F4F8F4F9F4F16C0882311F0EE
:102D200096E911C0772321F09EE8872F762F05C002
:102D3000662371F096E8862F70E060E02AF09A959D
:102D4000660F771F881FDAF7880F9695879597F992
:102D50000895990F0008550FAA0BE0E8FEEF16162C
:102D60001706E807F907C0F012161306E407F5077F
:102D700098F0621B730B840B950B39F40A2661F0F3
:102D8000232B242B252B21F408950A2609F4A14096
:102D9000A6958FEF811D811D08950BD07BC06CD04F
:102DA00028F071D018F0952309F05DC062C011249D
:102DB000A5C081D0A0F3959FD1F3950F50E0551F8A
:102DC000629FF001729FBB27F00DB11D639FAA2780
:102DD000F00DB11DAA1F649F6627B00DA11D661FCF
:102DE000829F2227B00DA11D621F739FB00DA11DF0
:102DF000621F839FA00D611D221F749F3327A00DAA
:102E0000611D231F849F600D211D822F762F6A2F45
:102E100011249F5750408AF0E1F088234AF0EE0FCA
:102E2000FF1FBB1F661F771F881F91505040A9F7D7
:102E30009E3F510570F017C061C05F3FECF3983EB4
:102E4000DCF3869577956795B795F795E7959F5F3E
:102E5000C1F7FE2B880F911D9695879597F90895D8
:102E600099278827089597F99F6780E870E060E0C8
:102E700008959FEF80EC089500240A941616170613
:102E800018060906089500240A941216130614065B
:102E900005060895092E0394000C11F4882352F0BE
:102EA000BB0F40F4BF2B11F460FF04C06F5F7F4F76
:102EB0008F4F9F4F089557FD9058440F551F59F05D
:102EC0005F3F71F04795880F97FB991F61F09F3F17
:102ED00079F087950895121613061406551FF2CF40
:102EE0004695F1DF08C0161617061806991FF1CF90
:102EF00086957105610508940895E894BB276627B7
:102F00007727CB0197F90895F999FECF92BD81BD3E
:102F1000F89A992780B50895262FF999FECF1FBA00
:102F200092BD81BD20BD0FB6F894FA9AF99A0FBEF2
:102F30000196089509D0A59F900DB49F900DA49F70
:102F4000800D911D11240895A29FB001B39FC0016F
:102F5000A39F700D811D1124911DB29F700D811DC5
:102F60001124911D08955058BB27AA270ED092CF47
:102F700083DF30F088DF20F031F49F3F11F41EF43E
:102F800078CF0EF4E095E7FB6ECFE92F94DF80F366
:102F9000BA17620773078407950718F071F49EF556
:102FA000ACCF0EF4E0950B2EBA2FA02D0B01B9017A
:102FB00090010C01CA01A0011124FF27591B99F0AF
:102FC000593F50F4503E68F11A16F040A22F232FBB
:102FD000342F4427585FF3CF469537952795A7950B
:102FE000F0405395C9F77EF41F16BA0B620B730BB2
:102FF000840BBAF09150A1F0FF0FBB1F661F771F23
:10300000881FC2F70EC0BA0F621F731F841F48F4D7
:10301000879577956795B795F7959E3F08F0B3CF5D
:103020009395880F08F09927EE0F97958795089547
:103030000CD030CF28DF40F01FDF30F021F45F3FAD
:1030400019F011CF51115ACF14CF35DF98F39923CE
:10305000C9F35523B1F3951B550BBB27AA2762175C
:103060007307840738F09F5F5F4F220F331F441FA1
:10307000AA1FA9F333D00E2E3AF0E0E830D09150D9
:103080005040E695001CCAF729D0FE2F27D0660FC6
:10309000771F881FBB1F261737074807AB07B0E805
:1030A00009F0BB0B802DBF01FF2793585F4F2AF01B
:1030B0009E3F510568F0D7CE21CF5F3FECF3983E9D
:1030C000DCF3869577956795B795F7959F5FC9F778
:1030D000880F911D9695879597F90895E1E0660F01
:1030E000771F881FBB1F621773078407BA0720F07A
:1030F000621B730B840BBA0BEE1F88F7E0950895E3
:1031000004D06894B111FACE0895DDDE88F09F579F
:1031100090F0B92F9927B751A0F0D1F0660F771F23
:10312000881F991F1AF0BA95C9F712C0B13081F003
:10313000E4DEB1E00895E1CE672F782F8827B85FED
:1031400039F0B93FCCF3869577956795B395D9F764
:103150003EF490958095709561957F4F8F4F9F4F6E
:1031600008958ADE18F011F08EDE38F482CEC6CED5
:10317000E92FA1DEB0F35523C9F3E7FB621773070C
:1031800084079507A8F199F3E92FFF2788232AF0F0
:103190003197660F771F881FDAF7952F552744233D
:1031A00032F091505040220F331F441FD2F7BB27FB
:1031B000E91BF50B621B730B840BB109C1F222F4FE
:1031C000620F731F841FB11D31972AF0660F771F9E
:1031D000881FBB1FEFCF915050405AF041F0882319
:1031E00032F0660F771F881F91505040C1F79395BA
:1031F00006C08695779567959F5FD9F7F8CF9F3F73
:1032000031F0915020F4879577956795B795880FA1
:10321000911D9695879597F908959BDD08F48FEF9A
:103220000895EE0FFF1F881F8BBF0790F691E02DCA
:103230001994CF93DF938230910510F482E090E0EF
:10324000E0918204F091830420E030E0C0E0D0E01F
:10325000309711F14081518148175907C0F0481744
:10326000590761F482819381209719F09B838A83A7
:103270002BC0909383048093820426C021153105CE
:1032800019F04217530718F49A01BE01DF01EF014C
:103290000280F381E02DDCCF2115310509F1281BD7
:1032A000390B2430310590F412968D919C9113972F
:1032B0006115710521F0FB019383828304C0909313
:1032C000830480938204FD01329644C0FD01E20F25
:1032D000F31F81939193225031092D933C933AC06F
:1032E0002091800430918104232B41F4209102022B
:1032F00030910302309381042093800420910002D6
:10330000309101022115310541F42DB73EB74091AE
:10331000040250910502241B350BE0918004F091CA
:103320008104E217F307A0F42E1B3F0B281739077F
:1033300078F0AC014E5F5F4F2417350748F04E0F11
:103340005F1F50938104409380048193919302C046
:10335000E0E0F0E0CF01DF91CF9108950F931F934C
:10336000CF93DF93009709F48CC0FC01329713824E
:10337000128200918204109183040115110581F4D9
:1033800020813181820F931F20918004309181042C
:103390002817390779F5F0938104E093800471C010
:1033A000D80140E050E0AE17BF0750F412962D91BF
:1033B0003C911397AD012115310509F1D901F3CFE6
:1033C0009D01DA013383228360817181860F971F0B
:1033D0008217930769F4EC0128813981260F371F82
:1033E0002E5F3F4F318320838A819B819383828329
:1033F000452B29F4F0938304E093820442C0139692
:10340000FC93EE931297ED01499159919E01240F7F
:10341000351FE217F30771F480819181840F951FA6
:10342000029611969C938E938281938113969C931E
:103430008E931297E0E0F0E0D80112968D919C9166
:103440001397009719F0F8018C01F6CF8D919C919C
:1034500098012E5F3F4F820F931F2091800430917F
:1034600081042817390769F4309729F410928304EE
:103470001092820402C0138212821093810400937E
:103480008004DF91CF911F910F9108956F927F92E9
:103490008F929F92AF92BF92CF92DF92EF92FF9264
:1034A0000F931F93CF93DF93EC01009781F4CB012F
:1034B000DF91CF911F910F91FF90EF90DF90CF9010
:1034C000BF90AF909F908F907F906F90B2CEFC0195
:1034D000E60FF71F9C0122503109E217F30708F4A9
:1034E000A8C0D9010D911C91119706171707A8F0D4
:1034F0000530110508F49BC0C8010497861797078B
:1035000008F495C002501109061B170B0193119383
:103510006D937C93CF0122DF8AC05B01A01AB10AB0
:103520004C01800E911EA0918204B091830440E072
:1035300050E0E12CF12C109709F44AC0A815B90508
:10354000D1F56D907C901197630182E0C80ED11C7B
:10355000CA14DB0480F1A3014A195B096A0182E005
:10356000C80ED11C1296BC9012971396AC91B5E080
:10357000CB16D10440F0B282A38351834083D9019A
:103580006D937C930AC00E5F1F4FC301800F911F84
:10359000F90191838083EB2DFA2FE114F10431F0CE
:1035A000D7011396FC93EE93129741C0F0938304D6
:1035B000E09382043CC08D919C9111974817590764
:1035C00008F4AC017D0112960D90BC91A02DB3CFF3
:1035D000809180049091810488159905E1F4461743
:1035E0005707C8F48091000290910102009741F4BE
:1035F0008DB79EB74091040250910502841B950B34
:10360000E817F907B0F4F0938104E0938004F9011E
:10361000718360830CC0CB010CDE7C01009749F004
:10362000A801BE011BD0CE0199DEC70104C0CE01A6
:1036300002C080E090E0DF91CF911F910F91FF9049
:10364000EF90DF90CF90BF90AF909F908F907F9042
:103650006F90089581E090E0F89442C0FB01DC0196
:1036600002C001900D9241505040D8F70895FB01DF
:10367000DC018D91019080190110D9F3990B089507
:10368000FB01DC0101900D920020E1F70895FB01A0
:10369000DC014150504048F001900D920020C9F7E4
:1036A00001C01D9241505040E0F70895FB01519137
:1036B0005523A9F0BF01DC014D9145174111E1F7F8
:1036C00059F4CD010190002049F04D914015411170
:1036D000C9F3FB014111EFCF81E090E0019708951C
:0436E000F894FFCF8C
:1036E400000084048000000000001810820FB10F55
:1036F4005E10E20FC00FD40F09000B000A002C006B
:1037040073617665003A00737400627200302C3085
:103714002C30007261003235352C302C300073654A
:0E372400007C003B00690061750073630000CB
:00000001FF
