:100000000C947B000C94A3000C94A3000C94A3000C
:100010000C94A3000C94A3000C94A3000C94A300D4
:100020000C94A3000C94A3000C94A3000C94A300C4
:100030000C94A3000C94A3000C94A3000C94A300B4
:100040000C94DB110C94A3000C94A9110C94831153
:100050000C94A3000C94A3000C94A3000C94A30094
:100060000C94A3000C94A3004E414E494E495459A0
:10007000494E46CDCCCC3D0AD7233C17B7D1387773
:10008000CC2B329595E6241FB14F0A000020410089
:1000900000C84200401C4620BCBE4CCA1B0E5AAED3
:1000A000C59D740000000800020100000304070061
:1000B0000000000000000000000000250028002BC8
:1000C0000000000000240027002A000404040404A7
:1000D00004040402020202020203030303030301F5
:1000E00002040810204080010204081020010204CC
:1000F00008102000ED1211241FBECFEFD8E0DEBFA4
:10010000CDBF23E0A8E4B1E001C01D92AE37B20735
:10011000E1F711E0A0E0B1E0ECE7F4E302C0059004
:100120000D92A834B107D9F710E0CBE7D0E004C0B6
:100130002197FE010E94F817CA37D107C9F70E941C
:1001400025120C943C1A0C94000090E0FC01E15242
:10015000FF4F2491FC01E553FF4F8491882399F0D0
:1001600090E0880F991FFC01EF53FF4FA591B491C8
:10017000FC01E954FF4F859194918FB7F894EC916D
:10018000E22BEC938FBF0895CF92DF92EF92FF9214
:100190000F931F93CF93DF936C017A018B01C0E023
:1001A000D0E0CE15DF0589F0D8016D918D01D60123
:1001B000ED91FC910190F081E02DC6010995892B0C
:1001C00011F47E0102C02196ECCFC701DF91CF91DF
:1001D0001F910F91FF90EF90DF90CF9008950895B9
:1001E00080E090E00895FC01538D448D252F30E090
:1001F000842F90E0821B930B541710F0CF96089534
:1002000001970895FC01918D828D981761F0828D80
:10021000DF01A80FB11D5D968C91928D9F5F9F733A
:10022000928F90E008958FEF9FEF0895FC01918DDC
:10023000828D981731F0828DE80FF11D858D90E049
:1002400008958FEF9FEF0895FC01918D228D892FE6
:1002500090E0805C9F4F821B91098F7399270895CE
:1002600089ED92E00E94240121E0892B09F420E02D
:10027000822F0895FC01848DDF01A80FB11DA35AC0
:10028000BF4F2C91848D90E001968F739927848FB6
:10029000A689B7892C93A089B1898C9180648C93AD
:1002A000938D848D981306C00288F389E02D808198
:1002B0008F7D80830895EF92FF920F931F93CF93CA
:1002C000DF93EC0181E0888F9B8D8C8D981305C0A6
:1002D000E889F989808185FD24C0F62E0B8D10E018
:1002E0000F5F1F4F0F731127E02E8C8DE8120CC08B
:1002F0000FB607FCFACFE889F989808185FFF5CF31
:10030000CE010E943A01F1CF8B8DFE01E80FF11D65
:10031000E35AFF4FF0820B8FEA89FB89808180626C
:1003200007C0EE89FF896083E889F989808180644C
:10033000808381E090E0DF91CF911F910F91FF903A
:10034000EF900895CF93DF93EC01888D8823C9F057
:10035000EA89FB89808185FD05C0A889B9898C91CE
:1003600086FD0FC00FB607FCF5CF808185FFF2CF69
:10037000A889B9898C9185FFEDCFCE010E943A0101
:10038000E7CFDF91CF91089580E090E0892B29F0AD
:100390000E94300181110C940000089590E0FC014E
:1003A000ED55FF4F3491FC01E152FF4F2491FC01C8
:1003B000E553FF4FE491EE2309F43BC0332339F1B9
:1003C000333091F038F43130A9F0323001F584B592
:1003D0008F7D12C0373091F03830A1F03430B9F44D
:1003E000809180008F7D03C0809180008F77809303
:1003F00080000DC084B58F7784BD09C08091B000A6
:100400008F7703C08091B0008F7D8093B000F0E0C3
:10041000EE0FFF1FE954FF4FA591B4918FB7F894E9
:10042000EC91611103C020952E2301C02E2B2C933B
:100430008FBF08951F93CF93DF93182FEB010E9476
:10044000A500209711F460E004C0CF3FD10539F436
:1004500061E0812FDF91CF911F910C94CE01E12FAC
:10046000F0E0ED55FF4FE491E330F9F048F4E1306E
:10047000B9F0E230A1F584B5806284BDC8BD34C056
:10048000E730E9F0E83019F1E43049F58091800077
:10049000806280938000D0938B00C0938A0024C038
:1004A00084B5806884BDC7BD1FC08091800080680E
:1004B00080938000D0938900C093880015C08091FC
:1004C000B00080688093B000C093B3000DC08091ED
:1004D000B00080628093B000C093B40005C0C03803
:1004E000D1050CF0B5CFAFCFDF91CF911F9108951B
:1004F0003FB7F8948091750190917601A0917701B2
:10050000B091780126B5A89B05C02F3F19F0019640
:10051000A11DB11D3FBFBA2FA92F982F8827820F89
:10052000911DA11DB11DBC01CD0142E0660F771FD9
:10053000881F991F4A95D1F708958F929F92AF9285
:10054000BF92CF92DF92EF92FF926B017C010E94EB
:1005500078024B015C01C114D104E104F104F1F013
:100560000E947802DC01CB0188199909AA09BB090C
:10057000883E9340A105B10570F321E0C21AD1086D
:10058000E108F10888EE880E83E0981EA11CB11CDA
:10059000C114D104E104F10419F7DDCFFF90EF900D
:1005A000DF90CF90BF90AF909F908F9008954F9223
:1005B0005F926F927F928F929F92AF92BF92CF92F3
:1005C000DF92EF92FF920F931F93CF93DF93CDB7FC
:1005D000DEB7A0970FB6F894DEBF0FBECDBFE9829D
:1005E000FA820B831C832D833E834F835887698750
:1005F0007A878B879C872396CCACDDACEEACFFACC6
:1006000023978BA99CA9ADA9BEA98D879E87AF878B
:10061000B88B4FA858AC69AC7AAC8BAC9CACADAC89
:10062000BEAC20E030E04AE753E4C701B6010E94C7
:10063000EE1487FF13C020E030E040E85FE3C7011D
:10064000B6010E94F3171816E4F480E090E0A0E8E9
:10065000BFE3898B9A8BAB8BBC8B1DC020E030E055
:100660004AE753E4C701B6010E94E916698B7A8B09
:100670008B8B9C8BC12CD12C8AE7E82E83E4F82E3F
:100680000AC080E090E0A0E8BFE3898B9A8BAB8B37
:10069000BC8B6C017D012D853E854F855889698114
:1006A0007A818B819C810E947C16A70196010E9411
:1006B000E9166D8B7E8B8F8B988FA30192016D81D4
:1006C0007E818F8198850E947C16A70196010E94E9
:1006D000E916698F7A8F8B8F9C8FA50194016985AC
:1006E0007A858B859C850E947C16A70196010E94C5
:1006F000E9166D8F7E8F8F8F98A300E010E0C70101
:10070000B6010E945B17061717070CF06AC02D8907
:100710003E894F89588D6D857E858F8598890E9489
:100720007D166D877E878F87988B298D3A8D4B8DAF
:100730005C8DC301B2010E947D162B013C012D8D01
:100740003E8D4F8D58A1C501B4010E947D164B010D
:100750005C016D857E858F8598890E945B178AE094
:100760000E941A02C301B2010E945B178BE00E9433
:100770001A02C501B4010E945B1789E00E941A02A7
:100780008D859E85AF85B8898093640190936501BE
:10079000A0936601B093670140926801509269018D
:1007A00060926A0170926B0180926C0190926D016F
:1007B000A0926E01B0926F0169897A898B899C89B8
:1007C0000E945B17072E000C880B990B0E949D025C
:1007D00089ED92E00E942401892B19F40F5F1F4FCD
:1007E0008ECFA0960FB6F894DEBF0FBECDBFDF91BF
:1007F000CF911F910F91FF90EF90DF90CF90BF901E
:10080000AF909F908F907F906F905F904F900895E2
:100810000E94F519CF93DF93FC0124813581232BAE
:1008200071F0FB01DC01CD91DC9160817181CE0121
:100830000E94221A009719F08C1B9D0B02C08FEFAB
:100840009FEFDF91CF9108950F931F93CF93DF9385
:10085000EC0188819981009729F02A813B81261734
:10086000370788F48B016F5F7F4F0E942B19009729
:1008700061F0998388831B830A832C813D81232B1C
:1008800011F4FC01108281E001C080E0DF91CF9182
:100890001F910F910895CF93DF93EC018881998187
:1008A000009711F00E949318198218821D821C82F1
:1008B0001B821A82DF91CF910895EF92FF920F93DE
:1008C0001F93CF93DF93EC017B018A01BA010E9451
:1008D0002404811104C0CE010E944B0407C01D8373
:1008E0000C83B701888199810E940C1ACE01DF9197
:1008F000CF911F910F91FF90EF900895CF93DF93C9
:10090000EC016115710559F0FB0101900020E9F738
:100910003197AF01461B570B0E945D0402C00E9435
:100920004B04CE01DF91CF910895FC01118210821A
:1009300013821282158214826115710551F0FB0138
:1009400001900020E9F73197AF01461B570B0C943B
:100950005D040895BF92CF92DF92EF92FF920F93C2
:100960001F93CF93DF937C016B018A01E901241768
:10097000350720F4812F8901C42FD82F69E171E058
:10098000C7010E949504D60114968D919C911597EC
:1009900008171907D0F48C179D0708F4EC01D6014D
:1009A000ED91FC911197EC0FFD1FB08010824D91DD
:1009B0005C91BA01600F711FC7010E947E04D601CD
:1009C000ED91FC91EC0FFD1FB082C701DF91CF913B
:1009D0001F910F91FF90EF90DF90CF90BF900895FF
:1009E000FC01808191810C9493188F929F92AF9219
:1009F000BF92CF92DF92EF92FF920F931F93CF930C
:100A0000DF9300D0CDB7DEB76C017B01ADB6BEB6CB
:100A100019821A82FB01048115810F5F1F4FB801F3
:100A2000C7010E942404882379F0F70120813181D5
:100A300084819581BE016F5F7F4F820F931F0E945B
:100A40000C1AF70115830483F701848195818C01C9
:100A5000015011092DB73EB7281B390B0FB6F8947A
:100A60003EBF0FBE2DBFEDB7FEB731964F010097C9
:100A700089F0EF2B79F08017910708F48C01F701CA
:100A800060817181A801C4010E94131AF401E00F72
:100A9000F11F108268E171E0C4010E943C130E94C2
:100AA0001A13F601608371838283938368E171E096
:100AB00080E090E00E943C130E941A13F6016483C8
:100AC00075838683978368E171E080E090E00E94FF
:100AD0003C130E941A13F6016087718782879387FF
:100AE000C6010FB6F894BEBE0FBEADBE0F900F90FC
:100AF000DF91CF911F910F91FF90EF90DF90CF90FA
:100B0000BF90AF909F908F9008952F923F924F92F9
:100B10005F926F927F928F929F92AF92BF92CF928D
:100B2000DF92EF92FF920F931F93CF93DF93CDB796
:100B3000DEB7C256D1090FB6F894DEBF0FBECDBFE7
:100B40002DB73EB7A3963FAF2EAFA39721969FAF89
:100B50008EAF21978E01095C1F4FAE01415C5F4F44
:100B60006FE171E021968EAD9FAD21970E944113F8
:100B7000009781F0D8018D939D938D016AE171E01A
:100B80000E94031A892B49F721968EAD9FAD2197BC
:100B90009AAF89AF0FA918AD61E271E0C8010E9458
:100BA000031A892B09F046C010926301109262016A
:100BB00069AD7AADCE010D960E949504BE01635FCA
:100BC0007F4FCE0101960E94F504CE010D960E9442
:100BD000F00483E48F938AE78F931F921F92EDB7FF
:100BE000FEB73C970FB6F894FEBF0FBEEDBFADB792
:100BF000BEB711968CE0E4E6F1E001900D928A9583
:100C0000E1F7E980FA800B811C812D813E814F81C3
:100C1000588569857A858B859C850E94D7022DB77A
:100C20003EB7205F3F4F0FB6F8943EBF0FBE2DBFBB
:100C30000C94291164E271E0C8010E94031A892B07
:100C400009F092C1109263011092620169AD7AAD10
:100C5000CE010D960E949504BE01635F7F4FCE01C9
:100C600001960E94F504CE010D960E94F0048BAD12
:100C70009CAD0E941A134B015C0189819A81AB8162
:100C8000BC816D968CAF9DAFAEAFBFAF6D978D81C0
:100C90009E81AF81B88569968CAF9DAFAEAFBFAF77
:100CA000699789859A85AB85BC8561968CAF9DAF28
:100CB000AEAFBFAF619767E271E0CE010D960E94C3
:100CC0009504BE01635F7F4FCE0149960E94F504F3
:100CD00083E48F938AE78F931F921F92ADB7BEB7BD
:100CE0001C970FB6F894BEBF0FBEADBF11968CE037
:100CF000E4E6F1E001900D928A95E1F7E98CFA8C37
:100D00000B8D1C8D2D8D3E8D4F8D58A169A17AA123
:100D10008BA19CA10E94D702CE010D960E94F004E7
:100D2000A501940160E070E080E89FE30E94E9166D
:100D300020E030E040E05FE30E94541520E030E026
:100D40004AE753E40E94E91620E030E04AE754E421
:100D50000E945415A1966CAF7DAF8EAF9FAFA19747
:100D6000EDB7FEB770960FB6F894FEBF0FBEEDBF9D
:100D7000212C312CB101032C000C880B990B0E9403
:100D8000F5142B013C019B01AC016D966CAD7DAD62
:100D90008EAD9FAD6D970E94541520E030E04AE77C
:100DA00053E40E94E9164B015C010E945B178AE044
:100DB0000E941A02A301920169966CAD7DAD8EADC1
:100DC0009FAD69970E94541520E030E04AE753E454
:100DD0000E94E9166B017C010E945B178BE00E9468
:100DE0001A02A301920161966CAD7DAD8EAD9FADEF
:100DF00061970E94541520E030E04AE753E40E94D6
:100E0000E9162B013C010E945B1789E00E941A023F
:100E1000A1966CAD7DAD8EAD9FADA1970E9462177E
:100E200065966CAF7DAF8EAF9FAF65970E949D02B8
:100E300089ED92E00E942401892BD1F08092640117
:100E400090926501A0926601B0926701C09268011C
:100E5000D0926901E0926A01F0926B0140926C01BC
:100E600050926D0160926E0170926F010C94291185
:100E7000FFEF2F1A3F0A2AEF2216310409F07ACF2A
:100E80000AEF10E0B801012E000C880B990B0E94AC
:100E9000F5146B017C019B01AC016D966CAD7DADD1
:100EA0008EAD9FAD6D970E94541520E030E04AE76B
:100EB00053E40E94E9162B013C010E945B178AE073
:100EC0000E941A02A701960169966CAD7DAD8EADA8
:100ED0009FAD69970E94541520E030E04AE753E443
:100EE0000E94E9164B015C010E945B178BE00E9497
:100EF0001A02A701960161966CAD7DAD8EAD9FADD6
:100F000061970E94541520E030E04AE753E40E94C4
:100F1000E9166B017C010E945B1789E00E941A02AE
:100F200065966CAD7DAD8EAD9FAD65970E949D02BF
:100F300089ED92E00E942401892B89F0409264019E
:100F4000509265016092660170926701809268011B
:100F500090926901A0926A01B0926B0178C501502C
:100F6000110909F08FCF04CF6DE271E0C8010E9432
:100F7000031A892B09F082C5109263011092620155
:100F800089AD9AAD0E941A134B015C0160E371E0D8
:100F9000CE0101960E949504BE016F5F7F4FCE0186
:100FA0000D960E94F50483E48F938AE78F931F9236
:100FB0001F928DB79EB70C970FB6F8949EBF0FBEC9
:100FC0008DBFADB7BEB711968CE0E4E6F1E00190BD
:100FD0000D928A95E1F7ED84FE840F8518892989A1
:100FE0003A894B895C896D897E898F89988D0E94A9
:100FF000D702CE0101960E94F00420E030E044EBDD
:1010000053E4C501B4010E94E91620E030E04AE74C
:1010100054E40E9454156D966CAF7DAF8EAF9FAFB8
:101020006D97ADB7BEB750960FB6F894BEBF0FBE62
:10103000ADBF2F961FAE1EAE2F972F96EEADFFAD14
:101040002F97BF01FF0F880B990B0E94F51420E02A
:1010500030E040E752E40E94E91665966CAF7DAF40
:101060008EAF9FAF659720E030E040EA50E40E94E9
:101070007D1620E030E040EC50E40E949C175B01BC
:101080006C013B014C019B01AC0160E070E080E829
:1010900090E40E947C16162F072FF82EE92E20E0F0
:1010A00030E040E85FE30E94EE1487FD25C020E0B9
:1010B00030E040E85FE3B501C6010E94EE1487FF0F
:1010C0000AC020E030E0A901B501C6010E94F31773
:1010D00018160CF05AC020E030E040E85FE3612FC2
:1010E000702F8F2D9E2D0E94EE1487FD18C070E08A
:1010F00060E090E88FE315C0212F302F4F2D5E2D3B
:10110000B501C6010E94EE1487FF71C020E030E0F7
:10111000A901B501C6010E94F3171816B4F5B8016C
:10112000C701272F362F492F582FB501C6010E941E
:10113000EE1487FD0FC020E030E040E85FE3612F50
:10114000702F8F2D9E2D0E94EE1487FF08C0B801CE
:10115000C70109C07A2D6B2D9C2D8D2D04C070E028
:1011600060E090E88FE3272F362F492F582F60E05B
:1011700070E080E89FE30E947C1620E030E0A90147
:101180000E94F31718160CF080C020E030E040E811
:101190005FE3612F702F8F2D9E2D0E94EE1487FD2F
:1011A00032C020E030E040E85FE3B501C6010E94B4
:1011B000EE1487FF0BC020E030E0A901B501C601A5
:1011C0000E94F317181614F00C94ED1020E030E094
:1011D00040E85FE3612F702F8F2D9E2D0E94EE144B
:1011E00087FD27C070E060E090E88FE324C020E036
:1011F00030E0A901612F702F8F2D9E2D0E94F317D3
:1012000018160CF48CCF212F302F4F2D5E2DB501E9
:10121000C6010E94EE1487FDDAC720E030E0A90184
:10122000612F702F8F2D9E2D0E94F31718160CF032
:10123000D4C7B801C701272F362F492F582FB50122
:10124000C6010E94EE1487FD17C020E030E040E8A0
:101250005FE3612F702F8F2D9E2D0E94EE1487FF6C
:1012600005C0612E702E8F2C9E2C06C0612C712C17
:10127000B0E88B2E1FE3912E9301A40160E070E093
:1012800080E89FE30E947C1673C020E030E040E8D5
:101290005FE3612F702F8F2D9E2D0E94EE1487FD2E
:1012A00025C020E030E040E85FE3B501C6010E94C0
:1012B000EE1487FF0AC020E030E0A901B501C601A5
:1012C0000E94F31718160CF093C720E030E040E8B6
:1012D0005FE3612F702F8F2D9E2D0E94EE1487FDEE
:1012E0001BC070E060E090E88FE318C0212F302F22
:1012F0004F2D5E2DB501C6010E94EE1487FD72C709
:1013000020E030E0A901612F702F8F2D9E2D0E94CB
:10131000F31718160CF06CC7B801C701272F362F2A
:10132000492F582FB501C6010E94EE1487FD17C042
:1013300020E030E040E85FE3612F702F8F2D9E2D7D
:101340000E94EE1487FF05C0612E702E8F2C9E2CFC
:1013500006C0612C712CF0E88F2EAFE39A2E93011A
:10136000A40160E070E080E89FE30E947C16905842
:1013700020E030E04FE753E40E94541569966CAFCB
:101380007DAF8EAF9FAF699720E030E040E450E43E
:1013900065966CAD7DAD8EAD9FAD65970E947D1657
:1013A00020E030E040EC50E40E949C175B016C01AF
:1013B0003B014C019B01AC0160E070E080E890E4EF
:1013C0000E947C16162F072FF82EE92E20E030E021
:1013D00040E85FE30E94EE1487FD25C020E030E086
:1013E00040E85FE3B501C6010E94EE1487FF0AC022
:1013F00020E030E0A901B501C6010E94F3171816DC
:101400000CF05AC020E030E040E85FE3612F702F1D
:101410008F2D9E2D0E94EE1487FD18C070E060E0B5
:1014200090E88FE315C0212F302F4F2D5E2DB50191
:10143000C6010E94EE1487FF70C020E030E0A901D1
:10144000B501C6010E94F3171816B4F5B801C7011B
:10145000272F362F492F582FB501C6010E94EE14B1
:1014600087FD0FC020E030E040E85FE3612F702F80
:101470008F2D9E2D0E94EE1487FF08C0B801C70172
:1014800009C07A2D6B2D9C2D8D2D04C070E060E07D
:1014900090E88FE3272F362F492F582F60E070E018
:1014A00080E89FE30E947C1620E030E0A9010E94C2
:1014B000F31718160CF07FC020E030E040E85FE33F
:1014C000612F702F8F2D9E2D0E94EE1487FD31C04D
:1014D00020E030E040E85FE3B501C6010E94EE1471
:1014E00087FF0AC020E030E0A901B501C6010E94D3
:1014F000F31718160CF087C620E030E040E85FE3F1
:10150000612F702F8F2D9E2D0E94EE1487FD27C016
:1015100070E060E090E88FE324C020E030E0A901B3
:10152000612F702F8F2D9E2D0E94F31718160CF42B
:101530008DCF212F302F4F2D5E2DB501C6010E947A
:10154000EE1487FD5AC620E030E0A901612F702F0C
:101550008F2D9E2D0E94F31718160CF054C6B8015B
:10156000C701272F362F492F582FB501C6010E94DA
:10157000EE1487FD17C020E030E040E85FE3612F04
:10158000702F8F2D9E2D0E94EE1487FF05C0612EB7
:10159000702E8F2C9E2C06C0612C712C70E8872E2B
:1015A000EFE39E2E9301A40160E070E080E89FE3EA
:1015B0000E947C1673C020E030E040E85FE3612FBA
:1015C000702F8F2D9E2D0E94EE1487FD25C020E0E8
:1015D00030E040E85FE3B501C6010E94EE1487FFEA
:1015E0000AC020E030E0A901B501C6010E94F3174E
:1015F00018160CF013C620E030E040E85FE3612FDE
:10160000702F8F2D9E2D0E94EE1487FD1BC070E061
:1016100060E090E88FE318C0212F302F4F2D5E2D12
:10162000B501C6010E94EE1487FDF2C520E030E04E
:10163000A901612F702F8F2D9E2D0E94F317181670
:101640000CF0ECC5B801C701272F362F492F582FB2
:10165000B501C6010E94EE1487FD17C020E030E0FE
:1016600040E85FE3612F702F8F2D9E2D0E94EE14B6
:1016700087FF05C0612E702E8F2C9E2C06C0612C1A
:10168000712C50E8852E6FE3962E9301A40160E043
:1016900070E080E89FE30E947C16905820E030E0E4
:1016A0004FE753E40E9454152B013C0120E030E049
:1016B00040E85FE365966CAD7DAD8EAD9FAD6597FF
:1016C0000E947D1620E030E040EC50E40E949C1720
:1016D0005B016C011B014C019B01AC0160E070E0FF
:1016E00080E890E40E947C16162F072FF82EE92E32
:1016F00020E030E040E85FE30E94EE1487FD25C063
:1017000020E030E040E85FE3B501C6010E94EE143E
:1017100087FF0AC020E030E0A901B501C6010E94A0
:10172000F31718160CF05AC020E030E040E85FE3F1
:10173000612F702F8F2D9E2D0E94EE1487FD18C0F3
:1017400070E060E090E88FE315C0212F302F4F2D1F
:101750005E2DB501C6010E94EE1487FF70C020E027
:1017600030E0A901B501C6010E94F3171816B4F5BF
:10177000B801C701272F362F492F582FB501C601B1
:101780000E94EE1487FD0FC020E030E040E85FE3E8
:10179000612F702F8F2D9E2D0E94EE1487FF08C0A1
:1017A000B801C70109C07A2D6B2D9C2D8D2D04C069
:1017B00070E060E090E88FE3272F362F492F582FF5
:1017C00060E070E080E89FE30E947C1620E030E05B
:1017D000A9010E94F31718160CF07FC020E030E03A
:1017E00040E85FE3612F702F8F2D9E2D0E94EE1435
:1017F00087FD31C020E030E040E85FE3B501C6017D
:101800000E94EE1487FF0AC020E030E0A901B50174
:10181000C6010E94F31718160CF00BC520E030E04B
:1018200040E85FE3612F702F8F2D9E2D0E94EE14F4
:1018300087FD27C070E060E090E88FE324C020E0DF
:1018400030E0A901612F702F8F2D9E2D0E94F3177C
:1018500018160CF48DCF212F302F4F2D5E2DB50192
:10186000C6010E94EE1487FDDEC420E030E0A9012D
:10187000612F702F8F2D9E2D0E94F31718160CF0DC
:10188000D8C4B801C701272F362F492F582FB501CB
:10189000C6010E94EE1487FD17C020E030E040E84A
:1018A0005FE3612F702F8F2D9E2D0E94EE1487FF16
:1018B00005C0212E302E8F2C9E2C06C0212C312CC1
:1018C00030E8832E4FE3942E9101A40160E070E094
:1018D00080E89FE30E947C1673C020E030E040E87F
:1018E0005FE3612F702F8F2D9E2D0E94EE1487FDD8
:1018F00025C020E030E040E85FE3B501C6010E946A
:10190000EE1487FF0AC020E030E0A901B501C6014E
:101910000E94F31718160CF097C420E030E040E85E
:101920005FE3612F702F8F2D9E2D0E94EE1487FD97
:101930001BC070E060E090E88FE318C0212F302FCB
:101940004F2D5E2DB501C6010E94EE1487FD76C4B1
:1019500020E030E0A901612F702F8F2D9E2D0E9475
:10196000F31718160CF070C4B801C701272F362FD3
:10197000492F582FB501C6010E94EE1487FD17C0EC
:1019800020E030E040E85FE3612F702F8F2D9E2D27
:101990000E94EE1487FF05C0212E302E8F2C9E2C26
:1019A00006C0212C312C90E8892E2FE3922E910134
:1019B000A40160E070E080E89FE30E947C169058EC
:1019C00020E030E04FE753E40E9454156B017C01A6
:1019D00069966CAD7DAD8EAD9FAD69970E945B172A
:1019E0008AE00E941A02C301B2010E945B178BE0D9
:1019F0000E941A02C701B6010E945B1789E00E948B
:101A00001A026D966CAD7DAD8EAD9FAD6D970E9447
:101A100062170E949D0289ED92E00E942401892BA9
:101A2000F9F069968CAD9DADAEADBFAD6997809371
:101A3000640190936501A0936601B09367014092A1
:101A400068015092690160926A0170926B01C092C4
:101A50006C01D0926D01E0926E01F0926F01F9C3BA
:101A60002F96AEADBFAD2F9711962F96BFAFAEAFED
:101A70002F97A836B14009F0E0CADBCA68E371E0ED
:101A8000C8010E94031A892B09F0D0C1109263018A
:101A9000109262018BAD9CAD0E941A1365966CAFDB
:101AA0007DAF8EAF9FAF6597C9ACDAACD6010D9014
:101AB0000020E9F7F601CD010197212C312CE81720
:101AC000F90739F021912C37D1F72FEF221A320A7A
:101AD000F6CF31E0231A31088DB69EB6F60101909B
:101AE0000020E9F73197EC19FD098DB79EB78E1BE1
:101AF0009F0B0FB6F8949EBF0FBE8DBF0DB71EB7DC
:101B00000F5F1F4FF60101900020E9F73197AF01F9
:101B10004C195D09B601C8010E94FA191EAF0DAF3C
:101B200069E171E0CE01C1960E949504AE01435C6B
:101B30005F4F6BE371E08DAD9EAD0E944113009746
:101B400029F0BC01CE01C1960E947E046DE371E0D4
:101B5000CE0149960E949504BE01675E7F4FCE017B
:101B6000C1960E940A049C0140E050E0BE016F5CF7
:101B70007F4FCE010D960E94AA04BE01635F7F4F86
:101B8000CE0101960E94F50483E48F938AE78F9338
:101B90001F921F92ADB7BEB71C970FB6F894BEBF89
:101BA0000FBEADBF11968CE0E4E6F1E001900D921E
:101BB0008A95E1F7E980FA800B811C812D813E81B5
:101BC0004F81588569857A858B859C850E94D702CF
:101BD000CE010D960E94F004CE0149960E94F004B9
:101BE000EDB7FEB770960FB6F894FEBF0FBEEDBF0F
:101BF000A12CB12CA214B3040CF00EC169E171E068
:101C0000CE018B960E949504AE01435C5F4F6BE35F
:101C100071E08DAD9EAD0E944113009729F0BC018B
:101C2000CE018B960E947E046DE371E0CE01859615
:101C30000E949504BE016B5D7F4FCE018B960E9482
:101C40000A049C0140E050E0BE01655D7F4FCE017B
:101C500049960E94AA04BE01675E7F4FCE010D9691
:101C60000E94F504CE0149960E94F004CE018596AB
:101C70000E94F0046DE371E0CE0185960E94950408
:101C8000BE016B5D7F4FCE01C1960E940A042DA953
:101C90003EA9AC014F5F5F4FBE016F5C7F4FCE012D
:101CA00049960E94AA04898D9A8D009729F00E9476
:101CB0001A132B013C0103C0412C512C3201CE01DF
:101CC00049960E94F004CE0185960E94F0046DE3CF
:101CD00071E0CE0185960E949504BE016B5D7F4F39
:101CE000CE018B960E940A042FA538A9AC014F5F44
:101CF0005F4FBE01655D7F4FCE0149960E94AA04E9
:101D0000898D9A8D009749F00E941A1361966CAFE5
:101D10007DAF8EAF9FAF619706C061961CAE1DAEC2
:101D20001EAE1FAE6197CE0149960E94F004CE010F
:101D300085960E94F004A301920161966CAD7DAD81
:101D40008EAD9FAD61970E947C1665962CAD3DAD22
:101D50004EAD5FAD65970E94541520E030E04AE734
:101D600054E40E9454159F938F937F936F932DB7E4
:101D70003EB72C5031090FB6F8943EBF0FBE2DBFB1
:101D8000ADB7BEB71196E4E6F1E08CE001900D929C
:101D90008A95E1F7ED84FE840F85188929893A89AF
:101DA0004B895C896D897E898F89988D0E94D702C5
:101DB0006BA57CA58DB79EB740960FB6F8949EBFD5
:101DC0000FBE8DBF6115710539F04FA558A9CE0121
:101DD000C1960E945D0404C0CE01C1960E944B04CE
:101DE00089ED92E00E942401892B41F4CE018B966B
:101DF0000E94F0049FEFA91AB90AFCCECE018B967F
:101E00000E94F004CE01C1960E94F0040FB6F8942F
:101E10009EBE0FBE8DBE1DC2CE01C1960E94F004B3
:101E20000FB6F8949EBE0FBE8DBE56CE6AE171E02D
:101E3000C8010E94031A892B39F563E680E090E01F
:101E40000E941D16EE24E394F12C09AD1AADF801A1
:101E500001900020E9F7CF01801B910BE816F906ED
:101E600060F40E0D1F1DF80131976081C7010E94BB
:101E70001D16AFEFEA1AFA0AE8CF6FEF0E941D169F
:101E8000C8010E948505E5C16FE371E0C8010E94A9
:101E9000031A892B29F41092630110926201D9C1AF
:101EA00061E471E0C8010E94031A892B09F055C052
:101EB0001092620181E08093630189AD9AAD9EA387
:101EC0008DA3AE014B5D5F4F6BE371E00E94411348
:101ED0000097D9F0BC01CE0101960E949504BE0185
:101EE0006F5F7F4FCE018F5B9F4F0E94F5048CE0A8
:101EF000FE01EF5BFF4FA8E4B1E001900D928A95DF
:101F0000E1F7CE0101960E94F004AE014B5D5F4FF8
:101F10006BE371E08DA19EA10E944113009709F42B
:101F200098C1BC01CE0101960E949504BE016F5F6D
:101F30007F4FCE018F5B9F4F0E94F5048CE0FE0126
:101F4000EF5BFF4FA4E5B1E001900D928A95E1F7B8
:101F5000CE0101960E94F0047CC164E471E0C801E6
:101F60000E94031A892B71F41092630181E080931F
:101F7000620189AD9AAD0E941E1390936101809316
:101F8000600167C180916301882309F4D3C0F8011F
:101F90008081082E000C990BC0970A9708F059C150
:101FA000C8010E941E13BC01990F880B990B0E9457
:101FB000F51420E030E048EC52E40E94E9164B01B1
:101FC0005C018091480190914901A0914A01B09132
:101FD0004B0161968CAF9DAFAEAFBFAF61974090A4
:101FE0004C0150904D0160904E0170904F01A30143
:101FF0009201609158017091590180915A0190911C
:102000005B010E947C1665966CAF7DAF8EAF9FAF73
:102010006597C0905001D0905101E0905201F0902E
:102020005301A701960160915C0170915D0180915F
:102030005E0190915F010E947C1669966CAF7DAF46
:102040008EAF9FAF699761962CAD3DAD4EAD5FAD44
:102050006197609154017091550180915601909162
:1020600057010E947C16A50194010E9454159B0102
:10207000AC0161966CAD7DAD8EAD9FAD61970E9458
:102080007D1669837A838B839C83A5019401659671
:102090006CAD7DAD8EAD9FAD65970E9454159B01D3
:1020A000AC01C301B2010E947D166D837E838F83D4
:1020B0009887A501940169966CAD7DAD8EAD9FADFD
:1020C00069970E9454159B01AC01C701B6010E949B
:1020D0007D1669877A878B879C8781E48F9380EF51
:1020E0008F931F921F92ADB7BEB71C970FB6F8948F
:1020F000BEBF0FBEADBF11968CE0E4E6F1E00190EB
:102100000D928A95E1F7E980FA800B811C812D817F
:102110003E814F81588569857A858B859C850E9493
:10212000D702EDB7FEB770960FB6F894FEBF0FBE9C
:10213000EDBF8FC080916201882309F48AC0B80185
:10214000CE010D960E949504BE01635F7F4FCE01C4
:1021500001960E94F504CE010D960E94F004609154
:10216000600170916101072E000C880B990B0E9491
:10217000F5149F938F937F936F932DB73EB72C5099
:1021800031090FB6F8943EBF0FBE2DBFADB7BEB735
:1021900011968CE0E4E6F1E001900D928A95E1F76A
:1021A000E980FA800B811C812D813E814F81588509
:1021B00069857A858B859C850E94D7028DB79EB7ED
:1021C00040960FB6F8949EBF0FBE8DBF42C020E070
:1021D00030E0A901B501C60127C8612C712C812C02
:1021E000912C4AC820E030E0A901B501C6018FC892
:1021F000612C712C812C912CB2C820E030E0A90117
:10220000B501C601A7C9612C712C812C912CCAC9BA
:1022100020E030E0A901B501C6010FCA612C712C84
:10222000812C912C32CA20E030E0A901B501C60111
:1022300023CB212C312C812C912C46CB20E030E07B
:10224000A901B501C6018BCB212C312C812C912CFD
:10225000AECBA396AEADBFADA3970FB6F894BEBFFD
:102260000FBEADBFCE59DF4F0FB6F894DEBF0FBE25
:10227000CDBFDF91CF911F910F91FF90EF90DF9035
:10228000CF90BF90AF909F908F907F906F905F9016
:102290004F903F902F900895CF92DF92EF92FF9250
:1022A0000F931F93CF93DF93CDB7DEB7CE55D140B9
:1022B0000FB6F894DEBF0FBECDBF8E010F5F1F4F6C
:1022C000EE24E394F12C6801C7010E9415168F3F9C
:1022D00039F0F80181938F01FFEFEF1AFF0AF4CF75
:1022E000C6010E948505C25ADE4F0FB6F894DEBFC4
:1022F0000FBECDBFDF91CF911F910F91FF90EF9057
:10230000DF90CF9008951F920F920FB60F92112475
:102310002F933F934F935F936F937F938F939F93ED
:10232000AF93BF93EF93FF9389ED92E00E943A0140
:10233000FF91EF91BF91AF919F918F917F916F919D
:102340005F914F913F912F910F900FBE0F901F9073
:1023500018951F920F920FB60F9211242F938F93FF
:102360009F93EF93FF93E091E902F091EA0280815D
:10237000E091EF02F091F00282FD12C09081809115
:10238000F2028F5F8F732091F302821751F0E09178
:10239000F202F0E0E752FD4F958F8093F20201C008
:1023A0008081FF91EF919F918F912F910F900FBEA0
:1023B0000F901F9018951F920F920FB60F92112435
:1023C0002F933F938F939F93AF93BF93809171010E
:1023D00090917201A0917301B091740130917001DC
:1023E00023E0230F2D3720F40196A11DB11D05C058
:1023F00026E8230F0296A11DB11D20937001809342
:10240000710190937201A0937301B0937401809154
:10241000750190917601A0917701B09178010196B4
:10242000A11DB11D8093750190937601A093770152
:10243000B0937801BF91AF919F918F913F912F9170
:102440000F900FBE0F901F901895789484B58260FE
:1024500084BD84B5816084BD85B5826085BD85B548
:10246000816085BD80916E00816080936E001092C6
:102470008100809181008260809381008091810041
:1024800081608093810080918000816080938000D2
:102490008091B10084608093B1008091B000816030
:1024A0008093B00080917A00846080937A0080915C
:1024B0007A00826080937A0080917A0081608093B4
:1024C0007A0080917A00806880937A001092C1002F
:1024D000E091E902F091EA0282E08083E091E50276
:1024E000F091E6021082E091E702F091E80283E3C6
:1024F00080831092F102E091ED02F091EE0286E00D
:102500008083E091EB02F091EC0280818061808316
:10251000E091EB02F091EC02808188608083E09191
:10252000EB02F091EC02808180688083E091EB0205
:10253000F091EC0280818F7D80838AE00E94A5006B
:102540008BE00E94A50089E00E94A5008AE090E04F
:10255000A0E0B0E08093DD029093DE02A093DF0262
:10256000B093E00280E090E00E941516833611F4EB
:102570000E944C11CEE5D1E089ED92E00E94240149
:10258000892B41F189ED92E00E9402018A30A1F489
:1025900089E791E00E94850589ED92E00E94A20101
:1025A000E9E7F1E0DF01CE011D920197E9F7109212
:1025B000D8021092D7020EC02091D7023091D802D3
:1025C000F901E758FE4F80832F5F3F4F3093D802C9
:1025D0002093D7020E94C401CFCFE9EDF2E013822D
:1025E000128288EE93E0A0E0B0E084839583A68316
:1025F000B7838AE091E09183808385EC90E09587B2
:10260000848784EC90E09787868780EC90E0918BBC
:10261000808B81EC90E0938B828B82EC90E0958BA9
:10262000848B86EC90E0978B868B118E128E138EA6
:10263000148E0895662777270C947013FC01882761
:102640009927E89421912032E9F3293010F02E30B7
:10265000C8F32B3241F02D3239F4689404C00E9443
:102660006813820F911D219120532A30C0F31EF46C
:10267000909581959F4F089546E753E00E9441133E
:102680000895FA01A191B081009719F41097E1F033
:10269000CD01DC01CD010D90002011F4C00113C06B
:1026A000FB012191222319F02015D9F7F3CFFB016B
:1026B0002191201519F41E92119606C02223C1F70C
:1026C0000D900020A1F7D001FA01A193B0830895E5
:1026D0007AE0979F902D879F802D910D112408956A
:1026E000A0E0B0E0E6E7F3E10C943A16EC017B01E0
:1026F0006115710519F0DB018D939C938E010F5FBD
:102700001F4F7880872D90E00E94CD14892B11F007
:10271000E801F4CFBDE27B1205C00F5F1F4F798047
:10272000C1E008C0EBE27E1204C08E010E5F1F4FB5
:102730007980C0E06801F1E0CF1AD10843E050E0B1
:1027400060E770E0C6010E94D614892BF1F468019D
:1027500022E0C20ED11C45E050E06BE670E0C601FD
:102760000E94D614892B21F4680187E0C80ED11C81
:10277000E114F10419F0D701CD92DC92C111FFC030
:1027800060E070E080E89FE703C143E050E068E666
:1027900070E0C6010E94D614892B51F4E114F104B3
:1027A00009F4F2C00E5F1F4FF70111830083ECC0E4
:1027B000680160E070E0CB0100E010E0F601D0EDD0
:1027C000D70DDA3058F52C2F2260622E2C2F28706E
:1027D000C2FF05C0211128C00F5F1F4F25C0222353
:1027E00011F001501109A5E0B0E09B01AC010E947D
:1027F0002B164B015C01880C991CAA1CBB1CC50143
:10280000B4016D0F711D811D911D6839A9E97A0709
:102810008A07A9E19A0740F0C66005C0DE3F51F47F
:10282000C3FD44C0C8606C2EBFEFCB1ADB0A7080BA
:10283000C62DC4CF2D2F2F7D2531C1F540814D32BE
:1028400011F4C06106C04B3221F0319621E030E036
:1028500006C03296D60111964C9122E030E0A0EDF0
:10286000A40FAA3018F0E21BF30B20C040E050E0A8
:102870004038BCE05B075CF49A01220F331F220F43
:10288000331F420F531F440F551F4A0F511D3196DE
:10289000DF0111972C91A0EDA20FAA3048F3C4FFDD
:1028A00003C0519541955109040F151FC1FF07C081
:1028B000E114F10421F03197D701ED93FC930E94CC
:1028C000F314C370C33019F06B017C0106C06B01B7
:1028D0007C01F7FAF094F7F8F09420E030E0A901D9
:1028E000C701B6010E94EE14882309F445C017FF02
:1028F00006C0119501951109C7E8D0E002C0CFE9E3
:10290000D0E05E01B8E1AB1AB1084601BE2DAF2D93
:1029100090E2E92EF12C0E151F0584F0FE012591A1
:10292000359145915491B4018B2F9A2F0E945415E3
:102930004B01B82FA92F0E191F09EDCF2497F5943D
:10294000E794CA15DB0539F76401EB2EFA2E8E2DBC
:10295000880F8F2D881F8F3F49F020E030E0A901BC
:10296000C701B6010E94EE14811106C082E290E018
:102970009093790380937803C701B60109C060E0A2
:1029800070E080E89FEF04C060E070E080EC9FE7BB
:10299000CDB7DEB7EEE00C94561691110C94C1152C
:1029A000803219F089508550C8F70895FB01DC0189
:1029B0004150504088F08D9181341CF08B350CF4DF
:1029C000805E659161341CF06B350CF4605E861B93
:1029D000611171F3990B0895881BFCCF0E9430158B
:1029E00008F481E00895E89409C097FB3EF49095BF
:1029F0008095709561957F4F8F4F9F4F9923A9F0D8
:102A0000F92F96E9BB279395F69587957795679566
:102A1000B795F111F8CFFAF4BB0F11F460FF1BC0AA
:102A20006F5F7F4F8F4F9F4F16C0882311F096E93D
:102A300011C0772321F09EE8872F762F05C06623EB
:102A400071F096E8862F70E060E02AF09A95660FA4
:102A5000771F881FDAF7880F9695879597F908955D
:102A6000990F0008550FAA0BE0E8FEEF161617069F
:102A7000E807F907C0F012161306E407F50798F007
:102A8000621B730B840B950B39F40A2661F0232B20
:102A9000242B252B21F408950A2609F4A140A6959C
:102AA0008FEF811D811D08950E9467150C94DB1521
:102AB0000E94CD1538F00E94D41520F0952311F016
:102AC0000C94C4150C94CA1511240C940F160E9472
:102AD000EC1570F3959FC1F3950F50E0551F629F61
:102AE000F001729FBB27F00DB11D639FAA27F00D67
:102AF000B11DAA1F649F6627B00DA11D661F829F8E
:102B00002227B00DA11D621F739FB00DA11D621F72
:102B1000839FA00D611D221F749F3327A00D611D8F
:102B2000231F849F600D211D822F762F6A2F112471
:102B30009F5750409AF0F1F088234AF0EE0FFF1FA4
:102B4000BB1F661F771F881F91505040A9F79E3FFB
:102B5000510580F00C94C4150C940F165F3FE4F3FC
:102B6000983ED4F3869577956795B795F795E79551
:102B70009F5FC1F7FE2B880F911D9695879597F95A
:102B8000089599278827089597F99F6780E870E04E
:102B900060E008959FEF80EC089500240A941616D3
:102BA000170618060906089500240A94121613063B
:102BB000140605060895092E0394000C11F48823C9
:102BC00052F0BB0F40F4BF2B11F460FF04C06F5FE5
:102BD0007F4F8F4F9F4F089557FD9058440F551FBB
:102BE00059F05F3F71F04795880F97FB991F61F08F
:102BF0009F3F79F087950895121613061406551F06
:102C0000F2CF4695F1DF08C0161617061806991F71
:102C1000F1CF86957105610508940895E894BB2766
:102C200066277727CB0197F90895F999FECF92BDD2
:102C300081BDF89A992780B50895262FF999FECF7E
:102C40001FBA92BD81BD20BD0FB6F894FA9AF99AC9
:102C50000FBE019608950E946D16A59F900DB49F1A
:102C6000900DA49F800D911D112408952F923F92E5
:102C70004F925F926F927F928F929F92AF92BF928C
:102C8000CF92DF92EF92FF920F931F93CF93DF9338
:102C9000CDB7DEB7CA1BDB0B0FB6F894DEBF0FBE95
:102CA000CDBF09942A88398848885F846E847D84E2
:102CB0008C849B84AA84B984C884DF80EE80FD80E4
:102CC0000C811B81AA81B981CE0FD11D0FB6F8945A
:102CD000DEBF0FBECDBFED010895A29FB001B39F2F
:102CE000C001A39F700D811D1124911DB29F700D15
:102CF000811D1124911D08955058BB27AA270E94B9
:102D000094160C94DB150E94CD1538F00E94D41552
:102D100020F039F49F3F19F426F40C94CA150EF4F0
:102D2000E095E7FB0C94C415E92F0E94EC1558F3CD
:102D3000BA17620773078407950720F079F4A6F5A0
:102D40000C940E160EF4E0950B2EBA2FA02D0B014D
:102D5000B90190010C01CA01A0011124FF27591BE0
:102D600099F0593F50F4503E68F11A16F040A22FE6
:102D7000232F342F4427585FF3CF46953795279557
:102D8000A795F0405395C9F77EF41F16BA0B620B56
:102D9000730B840BBAF09150A1F0FF0FBB1F661F9D
:102DA000771F881FC2F70EC0BA0F621F731F841FE0
:102DB00048F4879577956795B795F7959E3F08F006
:102DC000B0CF9395880F08F09927EE0F97958795C8
:102DD00008950E94FD160C94DB150E94D41558F03E
:102DE0000E94CD1540F029F45F3F29F00C94C415E2
:102DF00051110C940F160C94CA150E94EC1568F32F
:102E00009923B1F3552391F3951B550BBB27AA27A3
:102E100062177307840738F09F5F5F4F220F331FDD
:102E2000441FAA1FA9F335D00E2E3AF0E0E832D0A5
:102E300091505040E695001CCAF72BD0FE2F29D0A8
:102E4000660F771F881FBB1F261737074807AB077A
:102E5000B0E809F0BB0B802DBF01FF2793585F4FEF
:102E60003AF09E3F510578F00C94C4150C940F165F
:102E70005F3FE4F3983ED4F3869577956795B795D1
:102E8000F7959F5FC9F7880F911D9695879597F9DC
:102E90000895E1E0660F771F881FBB1F6217730755
:102EA0008407BA0720F0621B730B840BBA0BEE1F6A
:102EB00088F7E09508950E9462176894B1110C9408
:102EC0000F1608950E94F41588F09F5798F0B92FB7
:102ED0009927B751B0F0E1F0660F771F881F991F4F
:102EE0001AF0BA95C9F714C0B13091F00E940E16CD
:102EF000B1E008950C940E16672F782F8827B85FDD
:102F000039F0B93FCCF3869577956795B395D9F7A6
:102F10003EF490958095709561957F4F8F4F9F4FB0
:102F200008950E94CD1520F019F00E94D41550F498
:102F30000C94CA150C940F16E92F0E94EC1588F317
:102F40005523B1F3E7FB6217730784079507A8F1D0
:102F500089F3E92FFF2788232AF03197660F771F1F
:102F6000881FDAF7952F5527442332F091505040AF
:102F7000220F331F441FD2F7BB27E91BF50B621B3F
:102F8000730B840BB109B1F222F4620F731F841F1B
:102F9000B11D31972AF0660F771F881FBB1FEFCF37
:102FA0009150504062F041F0882332F0660F771F55
:102FB000881F91505040C1F793950C94E517869562
:102FC000779567959F5FD9F7F7CF9F3F31F0915085
:102FD00020F4879577956795B795880F911D9695FD
:102FE000879597F908950E94301508F48FEF08959A
:102FF000EE0FFF1F0590F491E02D0994CF93DF931E
:103000008230910510F482E090E0E0917C03F09131
:103010007D0320E030E0C0E0D0E0309711F1408146
:10302000518148175907C0F04817590761F4828148
:103030009381209719F09B838A832BC090937D0303
:1030400080937C0326C02115310519F042175307E0
:1030500018F49A01BE01DF01EF010280F381E02D37
:10306000DCCF2115310509F1281B390B243031053E
:1030700090F412968D919C9113976115710521F032
:10308000FB019383828304C090937D0380937C0330
:10309000FD01329644C0FD01E20FF31F819391932D
:1030A000225031092D933C933AC020917A033091FC
:1030B0007B03232B41F420910201309103013093D3
:1030C0007B0320937A0320910001309101012115A7
:1030D000310541F42DB73EB74091040150910501EF
:1030E000241B350BE0917A03F0917B03E217F30781
:1030F000A0F42E1B3F0B2817390778F0AC014E5F68
:103100005F4F2417350748F04E0F5F1F50937B0326
:1031100040937A038193919302C0E0E0F0E0CF0105
:10312000DF91CF9108950F931F93CF93DF93009773
:1031300009F48CC0FC0132971382128200917C0347
:1031400010917D030115110581F420813181820FD9
:10315000931F20917A0330917B032817390779F563
:10316000F0937B03E0937A0371C0D80140E050E014
:10317000AE17BF0750F412962D913C911397AD01F5
:103180002115310509F1D901F3CF9D01DA0133830E
:10319000228360817181860F971F8217930769F4DC
:1031A000EC0128813981260F371F2E5F3F4F318375
:1031B00020838A819B8193838283452B29F4F0931A
:1031C0007D03E0937C0342C01396FC93EE93129729
:1031D000ED01499159919E01240F351FE217F30724
:1031E00071F480819181840F951F029611969C93B2
:1031F0008E938281938113969C938E931297E0E035
:10320000F0E0D80112968D919C911397009719F0D8
:10321000F8018C01F6CF8D919C9198012E5F3F4F64
:10322000820F931F20917A0330917B03281739076F
:1032300069F4309729F410927D0310927C0302C048
:103240001382128210937B0300937A03DF91CF9154
:103250001F910F910895A0E0B0E0E1E3F9E10C9433
:103260003A16EC01009721F4CB010E94FE17B8C07A
:10327000FC01E60FF71F9C0122503109E217F3070A
:1032800008F4ACC0D9010D911C91119706171707CE
:10329000B0F00530110508F49FC0C80104978617E7
:1032A000970708F499C002501109061B170B0193E8
:1032B00011936D937C93CF010E9493188DC05B0195
:1032C000A01AB10A4C01800E911EA0917C03B0910E
:1032D0007D0340E050E0E12CF12C109709F44AC046
:1032E000A815B905D1F56D907C901197630182E026
:1032F000C80ED11CCA14DB0480F1A3014A195B0972
:103300006A0182E0C80ED11C1296BC9012971396E7
:10331000AC91B5E0CB16D10440F0B282A3835183C7
:103320004083D9016D937C930AC00E5F1F4FC30188
:10333000800F911FF90191838083EB2DFA2FE11407
:10334000F10431F0D7011396FC93EE93129744C029
:10335000F0937D03E0937C033FC08D919C91119786
:103360004817590708F4AC017D0112960D90BC91E5
:10337000A02DB3CF80917A0390917B038815990596
:10338000E1F446175707C8F48091000190910101BC
:10339000009741F48DB79EB740910401509105010B
:1033A000841B950BE817F907C8F4F0937B03E093AF
:1033B0007A03F901718360830FC0CB010E94FE176D
:1033C0007C01009759F0A801BE010E94FA19CE01B4
:1033D0000E949318C70104C0CE0102C080E090E0B3
:1033E000CDB7DEB7EEE00C94561681E090E0F8948D
:1033F0000C943C1AFB01DC0102C001900D9241507B
:103400005040D8F70895FB01DC018D91019080199F
:103410000110D9F3990B0895FB01DC0101900D9285
:103420000020E1F70895FB01DC014150504048F0D5
:1034300001900D920020C9F701C01D9241505040EB
:10344000E0F70895FB0151915523A9F0BF01DC017C
:103450004D9145174111E1F759F4CD01019000203C
:1034600049F04D9140154111C9F3FB014111EFCFD6
:0C34700081E090E001970895F894FFCFF0
:10347C0000007E038000000000005B01C400F3002C
:10348C00A2012401020116012C0073617665003A39
:10349C0000737400627200302C302C3000726100AA
:1034AC003235352C302C30007365007C003B0069C4
:0834BC0000617500736300005C
:00000001FF
