:1000000037C1000066C1000064C1000062C1000089
:1000100060C100005EC100005CC100005AC1000068
:1000200058C1000056C1000054C1000052C1000078
:1000300050C100004EC100004CC100004AC1000088
:1000400048C1000046C1000044C1000042C1000098
:1000500040C100003EC100003CC100000C94150FDF
:1000600038C100000C9470120C94471232C1000089
:1000700030C100002EC100002CC100002AC10000C8
:1000800028C1000026C1000024C1000022C10000D8
:1000900020C100001EC100001CC100001AC10000E8
:1000A00018C1000016C1000014C1000012C10000F8
:1000B00010C100000EC100000CC100000AC1000008
:1000C00008C1000006C1000004C1000002C1000018
:1000D00000C10000FEC00000FCC00000FAC000002B
:1000E000F8C000001411171106110A110E114E115B
:1000F0001B111F11251129112D11331137113B111E
:100100004E11411145114911CB12D012D512DF12F7
:10011000E9126213F312FB1203130D1317132113C9
:1001200030133A13621344134E1358134E414E4981
:100130004E495459494E46CDCCCC3D0AD7233C17A5
:10014000B7D13877CC2B329595E6241FB14F0A00F2
:100150000020410000C84200401C4620BCBE4CCAE2
:100160001B0E5AAEC59D7400000A0B02090C0D0E41
:100170000807030401000000000000000000000068
:10018000000000000000000000000000000000006F
:10019000000000121110000000000000000000002C
:1001A000000000000000000000000000000000222D
:1001B00000250028002B002E003100340002010031
:1001C00000050108010B0100002100240027002A7E
:1001D000002D003000330001010000040107010A76
:1001E0000105050505070508080808020202020ABC
:1001F0000A080804040404010101010101010103CA
:1002000003030303030303040707070C0C0C0C0C84
:100210000C0C0C0202020206060606060606060B77
:100220000B0B0B0B0B0B0B010210202008081020EE
:100230004010204080020102010804020101020472
:100240000810204080804020100804020180040231
:100250000180402010080402010804020101020488
:100260000810204080010204081020408000621421
:1002700011241FBECFEFD1E2DEBFCDBF00E00CBF27
:1002800024E0AEE4B2E001C01D92A438B207E1F769
:1002900012E0A0E0B2E0E2EEF6E300E00BBF02C045
:1002A00007900D92AE34B107D9F711E0C8E3D1E061
:1002B00000E006C021970109802FFE010E9410195D
:1002C000C733D10780E00807A9F70E94A3130C9455
:1002D0006F1B96CE4F925F926F927F928F929F92FA
:1002E000AF92BF92CF92DF92EF92FF920F931F9344
:1002F000CF93DF93CDB7DEB7A0970FB6F894DEBFEC
:100300000FBECDBFE982FA820B831C832D833E830F
:100310004F83588769877A878B879C872496CCACD4
:10032000DDACEEACFFAC24978CA99DA9AEA9BFA90A
:100330008D879E87AF87B88B48AC59AC6AAC7BACD5
:100340008CAC9DACAEACBFAC20E030E04AE753E4EF
:10035000C701B6010E94671687FF13C020E030E096
:1003600040E85FE3C701B6010E940C191816E4F4D7
:1003700080E090E0A0E8BFE3898B9A8BAB8BBC8BCD
:100380001DC020E030E04AE753E4C701B6010E94F7
:100390001718698B7A8B8B8B9C8BC12CD12C8AE79D
:1003A000E82E83E4F82E0AC080E090E0A0E8BFE3E6
:1003B000898B9A8BAB8BBC8B6C017D012D853E8527
:1003C0004F85588969817A818B819C810E94B217FF
:1003D000A70196010E9417186D8B7E8B8F8B988FCB
:1003E000A30192016D817E818F8198850E94B21751
:1003F000A70196010E941718698F7A8F8B8F9C8FA7
:10040000A501940169857A858B859C850E94B21728
:10041000A70196010E9417186D8F7E8F8F8F98A36A
:1004200000E010E0C701B6010E947F180617170709
:100430000CF06AC02D893E894F89588D6D857E8567
:100440008F8598890E94B3176D877E878F87988BD9
:10045000298D3A8D4B8D5C8DC301B2010E94B3177B
:100460002B013C012D8D3E8D4F8D58A1C501B4014E
:100470000E94B3174B015C016D857E858F8598893D
:100480000E947F188AE00E94A612C301B2010E9456
:100490007F188BE00E94A612C501B4010E947F184C
:1004A00089E00E94A6128D859E85AF85B8898093CC
:1004B000CA039093CB03A093CC03B093CD03409297
:1004C000CE035092CF036092D0037092D1038092FA
:1004D000D2039092D303A092D403B092D50369893A
:1004E0007A898B899C890E947F18072E000C880BC3
:1004F000990B0E946B138FED93E00E941510892BCE
:1005000019F40F5F1F4F8ECFA0960FB6F894DEBF81
:100510000FBECDBFDF91CF911F910F91FF90EF9054
:10052000DF90CF90BF90AF909F908F907F906F9013
:100530005F904F9008958F929F92AF92BF92CF920B
:10054000DF92EF92FF920F931F93CF93DF931F924F
:100550001F92CDB7DEB76C017B01ADB6BEB6198276
:100560001A82FB01048115810F5F1F4FB801C7017B
:100570000E947E11882379F0F701208131818481E6
:100580009581BE016F5F7F4F820F931F0E943F1BBB
:10059000F70115830483F701848195818C01015053
:1005A00011092DB73EB7281B390B0FB6F8943EBF83
:1005B0000FBE2DBFEDB7FEB731964F01009789F002
:1005C000EF2B79F08017910708F48C01F701608117
:1005D0007181A801C4010E94461BF401E00FF11FC4
:1005E00010826EE172E0C4010E94AF140E948F1469
:1005F000F60160837183828393836EE172E080E011
:1006000090E00E94AF140E948F14F60164837583FA
:10061000868397836EE172E080E090E00E94AF14E1
:100620000E948F14F6016087718782879387C601C5
:100630000FB6F894BEBE0FBEADBE0F900F90DF9107
:10064000CF911F910F91FF90EF90DF90CF90BF90CF
:10065000AF909F908F9008952F923F924F925F920C
:100660006F927F928F929F92AF92BF92CF92DF92C2
:10067000EF92FF920F931F93CF93DF93CDB7DEB727
:10068000C256D1090FB6F894DEBF0FBECDBF2DB74D
:100690003EB7A3963FAF2EAFA39721969FAF8EAFE5
:1006A00021978E01095C1F4FAE01415C5F4F65E2EF
:1006B00072E021968EAD9FAD21970E94B2140097F3
:1006C00081F0D8018D939D938D0160E272E00E94CC
:1006D000361B892B49F721968EAD9FAD21979AAF96
:1006E00089AF0FA918AD67E272E0C8010E94361BFE
:1006F000892B09F044C01092C9031092C80369AD58
:100700007AADCE010D960E94EF11BE01635F7F4F5F
:10071000CE01019610DFCE010D960E94EB1183E40D
:100720008F938AE78F931F921F92EDB7FEB73C9786
:100730000FB6F894FEBF0FBEEDBFADB7BEB71196B2
:100740008CE0EAECF3E001900D928A95E1F7E98004
:10075000FA800B811C812D813E814F8158856985EE
:100760007A858B859C85B6DD2DB73EB7205F3F4FE0
:100770000FB6F8943EBF0FBE2DBF0C949E0E6AE2DA
:1007800072E0C8010E94361B892B09F08FC11092BC
:10079000C9031092C80369AD7AADCE010D960E94CF
:1007A000EF11BE01635F7F4FCE010196C4DECE0123
:1007B0000D960E94EB118BAD9CAD0E948F144B01E6
:1007C0005C0189819A81AB81BC816D968CAF9DAFB4
:1007D000AEAFBFAF6D978D819E81AF81B8856996B1
:1007E0008CAF9DAFAEAFBFAF699789859A85AB855A
:1007F000BC8561968CAF9DAFAEAFBFAF61976DE228
:1008000072E0CE010D960E94EF11BE01635F7F4F33
:10081000CE01499690DE83E48F938AE78F931F92EF
:100820001F92ADB7BEB71C970FB6F894BEBF0FBEF0
:10083000ADBF11968CE0EAECF3E001900D928A9541
:10084000E1F7E98CFA8C0B8D1C8D2D8D3E8D4F8D33
:1008500058A169A17AA18BA19CA13CDDCE010D9686
:100860000E94EB11A501940160E070E080E89FE335
:100870000E94171820E030E040E05FE30E94CC16B1
:1008800020E030E04AE753E40E94171820E030E00F
:100890004AE754E40E94CC16A1966CAF7DAF8EAFB0
:1008A0009FAFA197EDB7FEB770960FB6F894FEBF55
:1008B0000FBEEDBF212C312CB101032C000C880B95
:1008C000990B0E946D162B013C019B01AC016D96AA
:1008D0006CAD7DAD8EAD9FAD6D970E94CC1620E0C6
:1008E00030E04AE753E40E9417184B015C010E9474
:1008F0007F188AE00E94A612A301920169966CAD4E
:100900007DAD8EAD9FAD69970E94CC1620E030E0A2
:100910004AE753E40E9417186B017C010E947F187C
:100920008BE00E94A612A301920161966CAD7DAD91
:100930008EAD9FAD61970E94CC1620E030E04AE773
:1009400053E40E9417182B013C010E947F1889E094
:100950000E94A612A1966CAD7DAD8EAD9FADA19704
:100960000E94841865966CAF7DAF8EAF9FAF659780
:100970000E946B138FED93E00E941510892BD1F02C
:100980008092CA039092CB03A092CC03B092CD0385
:10099000C092CE03D092CF03E092D003F092D10365
:1009A0004092D2035092D3036092D4037092D50345
:1009B0000C949E0EFFEF2F1A3F0A2AEF22163104E5
:1009C00009F07ACF0AEF10E0B801012E000C880B75
:1009D000990B0E946D166B017C019B01AC016D9619
:1009E0006CAD7DAD8EAD9FAD6D970E94CC1620E0B5
:1009F00030E04AE753E40E9417182B013C010E94A3
:100A00007F188AE00E94A612A701960169966CAD34
:100A10007DAD8EAD9FAD69970E94CC1620E030E091
:100A20004AE753E40E9417184B015C010E947F18AB
:100A30008BE00E94A612A701960161966CAD7DAD78
:100A40008EAD9FAD61970E94CC1620E030E04AE762
:100A500053E40E9417186B017C010E947F1889E003
:100A60000E94A61265966CAD7DAD8EAD9FAD65976B
:100A70000E946B138FED93E00E941510892B89F073
:100A80004092CA035092CB036092CC037092CD0384
:100A90008092CE039092CF03A092D003B092D10364
:100AA00074C50150110909F08FCF04CF63E372E0E0
:100AB000C8010E94361B892B09F07EC51092C9031C
:100AC0001092C80389AD9AAD0E948F144B015C014E
:100AD00066E372E0CE0101960E94EF11BE016F5FE6
:100AE0007F4FCE010D9627DD83E48F938AE78F93A6
:100AF0001F921F928DB79EB70C970FB6F8949EBFAA
:100B00000FBE8DBFADB7BEB711968CE0EAECF3E037
:100B100001900D928A95E1F7ED84FE840F85188986
:100B200029893A894B895C896D897E898F89988D5D
:100B3000D1DBCE0101960E94EB1120E030E044EBC6
:100B400053E4C501B4010E94171820E030E04AE7E1
:100B500054E40E94CC166D966CAF7DAF8EAF9FAF04
:100B60006D97ADB7BEB750960FB6F894BEBF0FBE27
:100B7000ADBF2F961FAE1EAE2F972F96EEADFFADD9
:100B80002F97BF01FF0F880B990B0E946D1620E075
:100B900030E040E752E40E94171865966CAF7DAFD5
:100BA0008EAF9FAF659720E030E040EA50E40E94AE
:100BB000B31720E030E040EC50E40E94B7185B012E
:100BC0006C013B014C019B01AC0160E070E080E8EE
:100BD00090E40E94B217162F072FF82EE92E20E07E
:100BE00030E040E85FE30E94671687FD25C020E003
:100BF00030E040E85FE3B501C6010E94671687FF59
:100C00000AC020E030E0A901B501C6010E940C191C
:100C100018160CF05AC020E030E040E85FE3612F86
:100C2000702F8F2D9E2D0E94671687FD18C070E0D3
:100C300060E090E88FE315C0212F302F4F2D5E2DFF
:100C4000B501C6010E94671687FF70C020E030E042
:100C5000A901B501C6010E940C191816B4F5B80116
:100C6000C701272F362F492F582FB501C6010E94E3
:100C7000671687FD0FC020E030E040E85FE3612F9A
:100C8000702F8F2D9E2D0E94671687FF08C0B80118
:100C9000C70109C07A2D6B2D9C2D8D2D04C070E0ED
:100CA00060E090E88FE3272F362F492F582F60E020
:100CB00070E080E89FE30E94B21720E030E0A901D5
:100CC0000E940C1918160CF07FC020E030E040E8BC
:100CD0005FE3612F702F8F2D9E2D0E94671687FD79
:100CE00031C020E030E040E85FE3B501C6010E947A
:100CF000671687FF0AC020E030E0A901B501C601F0
:100D00000E940C1918160CF0DDC720E030E040E816
:100D10005FE3612F702F8F2D9E2D0E94671687FD38
:100D200027C070E060E090E88FE324C020E030E06E
:100D3000A901612F702F8F2D9E2D0E940C1918165E
:100D40000CF48DCF212F302F4F2D5E2DB501C60114
:100D50000E94671687FDB0C720E030E0A901612F2F
:100D6000702F8F2D9E2D0E940C1918160CF0AAC7FB
:100D7000B801C701272F362F492F582FB501C601BB
:100D80000E94671687FD17C020E030E040E85FE36F
:100D9000612F702F8F2D9E2D0E94671687FF05C033
:100DA000612E702E8F2C9E2C06C0612C712CB0E809
:100DB0008B2E1FE3912E9301A40160E070E080E888
:100DC0009FE30E94B21773C020E030E040E85FE389
:100DD000612F702F8F2D9E2D0E94671687FD25C0D5
:100DE00020E030E040E85FE3B501C6010E946716ED
:100DF00087FF0AC020E030E0A901B501C6010E94CA
:100E00000C1918160CF069C720E030E040E85FE3E9
:100E1000612F702F8F2D9E2D0E94671687FD1BC09E
:100E200070E060E090E88FE318C0212F302F4F2D45
:100E30005E2DB501C6010E94671687FD48C720E0F8
:100E400030E0A901612F702F8F2D9E2D0E940C196B
:100E500018160CF042C7B801C701272F362F492FAB
:100E6000582FB501C6010E94671687FD17C020E004
:100E700030E040E85FE3612F702F8F2D9E2D0E94A0
:100E8000671687FF05C0612E702E8F2C9E2C06C022
:100E9000612C712CF0E88F2EAFE39A2E9301A40100
:100EA00060E070E080E89FE30E94B217905820E075
:100EB00030E04FE753E40E94CC1669966CAF7DAFEB
:100EC0008EAF9FAF699720E030E040E450E4659634
:100ED0006CAD7DAD8EAD9FAD65970E94B31720E0E0
:100EE00030E040EC50E40E94B7185B016C013B011C
:100EF0004C019B01AC0160E070E080E890E40E944E
:100F0000B217162F072FF82EE92E20E030E040E828
:100F10005FE30E94671687FD25C020E030E040E8CF
:100F20005FE3B501C6010E94671687FF0AC020E093
:100F300030E0A901B501C6010E940C1918160CF089
:100F40005AC020E030E040E85FE3612F702F8F2D22
:100F50009E2D0E94671687FD18C070E060E090E843
:100F60008FE315C0212F302F4F2D5E2DB501C60107
:100F70000E94671687FF70C020E030E0A901B5012C
:100F8000C6010E940C191816B4F5B801C701272F25
:100F9000362F492F582FB501C6010E94671687FDCD
:100FA0000FC020E030E040E85FE3612F702F8F2D0D
:100FB0009E2D0E94671687FF08C0B801C70109C0AF
:100FC0007A2D6B2D9C2D8D2D04C070E060E090E893
:100FD0008FE3272F362F492F582F60E070E080E8ED
:100FE0009FE30E94B21720E030E0A9010E940C1993
:100FF00018160CF07FC020E030E040E85FE3612F7E
:10100000702F8F2D9E2D0E94671687FD31C020E026
:1010100030E040E85FE3B501C6010E94671687FF34
:101020000AC020E030E0A901B501C6010E940C19F8
:1010300018160CF05DC620E030E040E85FE3612F59
:10104000702F8F2D9E2D0E94671687FD27C070E0A0
:1010500060E090E88FE324C020E030E0A901612F38
:10106000702F8F2D9E2D0E940C1918160CF48DCF09
:10107000212F302F4F2D5E2DB501C6010E9467161E
:1010800087FD30C620E030E0A901612F702F8F2D41
:101090009E2D0E940C1918160CF02AC6B801C70123
:1010A000272F362F492F582FB501C6010E946716EA
:1010B00087FD17C020E030E040E85FE3612F702F2C
:1010C0008F2D9E2D0E94671687FF05C0612E702E02
:1010D0008F2C9E2C06C0612C712C70E8872EEFE3BC
:1010E0009E2E9301A40160E070E080E89FE30E94DF
:1010F000B21773C020E030E040E85FE3612F702F4B
:101100008F2D9E2D0E94671687FD25C020E030E0C0
:1011100040E85FE3B501C6010E94671687FF0AC079
:1011200020E030E0A901B501C6010E940C19181693
:101130000CF0E9C520E030E040E85FE3612F702F5C
:101140008F2D9E2D0E94671687FD1BC070E060E00A
:1011500090E88FE318C0212F302F4F2D5E2DB50161
:10116000C6010E94671687FDC8C520E030E0A901CE
:10117000612F702F8F2D9E2D0E940C1918160CF0C8
:10118000C2C5B801C701272F362F492F582FB501E7
:10119000C6010E94671687FD17C020E030E040E8D6
:1011A0005FE3612F702F8F2D9E2D0E94671687FFA2
:1011B00005C0612E702E8F2C9E2C06C0612C712CC8
:1011C00050E8852E6FE3962E9301A40160E070E055
:1011D00080E89FE30E94B217905820E030E04FE78C
:1011E00053E40E94CC162B013C0120E030E040E8A3
:1011F0005FE365966CAD7DAD8EAD9FAD65970E944A
:10120000B31720E030E040EC50E40E94B7185B01D7
:101210006C011B014C019B01AC0160E070E080E8B7
:1012200090E40E94B217162F072FF82EE92E20E027
:1012300030E040E85FE30E94671687FD25C020E0AC
:1012400030E040E85FE3B501C6010E94671687FF02
:101250000AC020E030E0A901B501C6010E940C19C6
:1012600018160CF05AC020E030E040E85FE3612F30
:10127000702F8F2D9E2D0E94671687FD18C070E07D
:1012800060E090E88FE315C0212F302F4F2D5E2DA9
:10129000B501C6010E94671687FF70C020E030E0EC
:1012A000A901B501C6010E940C191816B4F5B801C0
:1012B000C701272F362F492F582FB501C6010E948D
:1012C000671687FD0FC020E030E040E85FE3612F44
:1012D000702F8F2D9E2D0E94671687FF08C0B801C2
:1012E000C70109C07A2D6B2D9C2D8D2D04C070E097
:1012F00060E090E88FE3272F362F492F582F60E0CA
:1013000070E080E89FE30E94B21720E030E0A9017E
:101310000E940C1918160CF07FC020E030E040E865
:101320005FE3612F702F8F2D9E2D0E94671687FD22
:1013300031C020E030E040E85FE3B501C6010E9423
:10134000671687FF0AC020E030E0A901B501C60199
:101350000E940C1918160CF0E1C420E030E040E8BF
:101360005FE3612F702F8F2D9E2D0E94671687FDE2
:1013700027C070E060E090E88FE324C020E030E018
:10138000A901612F702F8F2D9E2D0E940C19181608
:101390000CF48DCF212F302F4F2D5E2DB501C601BE
:1013A0000E94671687FDB4C420E030E0A901612FD8
:1013B000702F8F2D9E2D0E940C1918160CF0AEC4A4
:1013C000B801C701272F362F492F582FB501C60165
:1013D0000E94671687FD17C020E030E040E85FE319
:1013E000612F702F8F2D9E2D0E94671687FF05C0DD
:1013F000212E302E8F2C9E2C06C0212C312C30E833
:10140000832E4FE3942E9101A40160E070E080E808
:101410009FE30E94B21773C020E030E040E85FE332
:10142000612F702F8F2D9E2D0E94671687FD25C07E
:1014300020E030E040E85FE3B501C6010E94671696
:1014400087FF0AC020E030E0A901B501C6010E9473
:101450000C1918160CF06DC420E030E040E85FE392
:10146000612F702F8F2D9E2D0E94671687FD1BC048
:1014700070E060E090E88FE318C0212F302F4F2DEF
:101480005E2DB501C6010E94671687FD4CC420E0A1
:1014900030E0A901612F702F8F2D9E2D0E940C1915
:1014A00018160CF046C4B801C701272F362F492F54
:1014B000582FB501C6010E94671687FD17C020E0AE
:1014C00030E040E85FE3612F702F8F2D9E2D0E944A
:1014D000671687FF05C0212E302E8F2C9E2C06C04C
:1014E000212C312C90E8892E2FE3922E9101A4011A
:1014F00060E070E080E89FE30E94B217905820E01F
:1015000030E04FE753E40E94CC166B017C016996F2
:101510006CAD7DAD8EAD9FAD69970E947F188AE05E
:101520000E94A612C301B2010E947F188BE00E94A4
:10153000A612C701B6010E947F1889E00E94A61278
:101540006D966CAD7DAD8EAD9FAD6D970E9484188C
:101550000E946B138FED93E068D5892BF9F06996A3
:101560008CAD9DADAEADBFAD69978093CA0390932E
:10157000CB03A093CC03B093CD034092CE03509203
:10158000CF036092D0037092D103C092D203D09265
:10159000D303E092D403F092D503D0C32F96AEAD1F
:1015A000BFAD2F9711962F96BFAFAEAF2F97A8362E
:1015B000B14009F0E2CADDCA6EE372E0C8010E94E0
:1015C000361B892B09F0B1C11092C9031092C803D0
:1015D0008BAD9CAD0E948F1465966CAF7DAF8EAFC6
:1015E0009FAF6597C9ACDAACD6010D900020E9F742
:1015F000F601CD010197212C312CE817F90739F0BC
:1016000021912C37D1F72FEF221A320AF6CF31E091
:10161000231A31088DB69EB6F60101900020E9F735
:101620003197EC19FD098DB79EB78E1B9F0B0FB636
:10163000F8949EBF0FBE8DBF0DB71EB70F5F1F4F33
:10164000F60101900020E9F73197AF014C195D09CF
:10165000B601C8010E942D1B1EAF0DAF6FE172E0F5
:10166000CE01C196BCD6AE01435C5F4F61E472E02F
:101670008DAD9EAD0E94B214009721F0BC01CE0149
:10168000C19694D663E472E0CE014996A8D6BE0115
:10169000675E7F4FCE01C19617D69C0140E050E0B7
:1016A000BE016F5C7F4FCE010D96ADD6BE01635F6C
:1016B0007F4FCE0101960E949B0283E48F938AE7BD
:1016C0008F931F921F92ADB7BEB71C970FB6F894B9
:1016D000BEBF0FBEADBF11968CE0EAECF3E0019007
:1016E0000D928A95E1F7E980FA800B811C812D81AA
:1016F0003E814F81588569857A858B859C850E94BE
:101700006A01CE010D9667D6CE01499664D6EDB733
:10171000FEB770960FB6F894FEBF0FBEEDBFA12CBA
:10172000B12CA214B3040CF0F7C06FE172E0CE014B
:101730008B9655D6AE01435C5F4F61E472E08DAD90
:101740009EAD0E94B214009721F0BC01CE018B9691
:101750002DD663E472E0CE01859641D6BE016B5D65
:101760007F4FCE018B96B0D59C0140E050E0BE018A
:10177000655D7F4FCE01499646D6BE01675E7F4FBD
:10178000CE010D960E949B02CE01499624D6CE0131
:10179000859621D663E472E0CE01859620D6BE01FF
:1017A0006B5D7F4FCE01C1968FD52DA93EA9AC01AF
:1017B0004F5F5F4FBE016F5C7F4FCE01499623D6CE
:1017C000898D9A8D009729F00E948F142B013C017E
:1017D00003C0412C512C3201CE014996FCD5CE01DB
:1017E0008596F9D563E472E0CE018596F8D5BE0101
:1017F0006B5D7F4FCE018B9667D52FA538A9AC01C5
:101800004F5F5F4FBE01655D7F4FCE014996FBD5AF
:10181000898D9A8D009749F00E948F1461966CAF64
:101820007DAF8EAF9FAF619706C061961CAE1DAEB7
:101830001EAE1FAE6197CE014996CDD5CE018596DD
:10184000CAD5A301920161966CAD7DAD8EAD9FAD01
:1018500061970E94B21765962CAD3DAD4EAD5FAD60
:1018600065970E94CC1620E030E04AE754E40E94DD
:10187000CC169F938F937F936F932DB73EB72C50C9
:1018800031090FB6F8943EBF0FBE2DBFADB7BEB73E
:101890001196EAECF3E08CE001900D928A95E1F765
:1018A000ED84FE840F85188929893A894B895C89E2
:1018B0006D897E898F89988D0E946A016BA57CA5B0
:1018C0008DB79EB740960FB6F8949EBF0FBE8DBFE2
:1018D0006115710531F04FA558A9CE01C19647D5C4
:1018E00003C0CE01C19631D58FED93E09ED3892BF5
:1018F00039F4CE018B966FD59FEFA91AB90A11CF93
:10190000CE018B9668D5CE01C19665D50FB6F894F9
:101910009EBE0FBE8DBE12C2CE01C1965CD50FB663
:10192000F8949EBE0FBE8DBE75CE60E272E0C80117
:101930000E94361B892B39F563E680E090E00E9417
:101940008B17EE24E394F12C09AD1AADF801019048
:101950000020E9F7CF01801B910BE816F90660F42F
:101960000E0D1F1DF80131976081C7010E948B1772
:10197000AFEFEA1AFA0AE8CF6FEF0E948B17C8019F
:101980000E942C03DBC165E472E0C8010E94361B93
:10199000892B29F41092C9031092C803CFC167E4C0
:1019A00072E0C8010E94361B892B09F04FC01092CB
:1019B000C80381E08093C90389AD9AAD9EA38DA32E
:1019C000AE014B5D5F4F61E472E0CCD70097C9F088
:1019D000BC01CE01019603D5BE016F5F7F4FCE01E2
:1019E0008F5B9F4F0E949B028CE0FE01EF5BFF4FDD
:1019F000AEEAB3E001900D928A95E1F7CE0101962F
:101A0000EAD4AE014B5D5F4F61E472E08DA19EA10F
:101A1000A9D7009709F492C1BC01CE010196DFD489
:101A2000BE016F5F7F4FCE018F5B9F4F0E949B0275
:101A30008CE0FE01EF5BFF4FAAEBB3E001900D924B
:101A40008A95E1F7CE010196C6D478C16AE472E0C6
:101A5000C8010E94361B892B69F41092C90381E0EA
:101A60008093C80389AD9AAD5DD79093C7038093E7
:101A7000C60364C18091C903882309F4D2C0F80168
:101A80008081082E000C990BC0970A9708F056C168
:101A9000C80148D7BC01990F880B990B0E946D169D
:101AA00020E030E048EC52E40E9417184B015C0142
:101AB0008091AE039091AF03A091B003B091B103B8
:101AC00061968CAF9DAFAEAFBFAF61974090B20350
:101AD0005090B3036090B4037090B503A3019201DA
:101AE0006091BE037091BF038091C0039091C103C8
:101AF0000E94B21765966CAF7DAF8EAF9FAF6597B2
:101B0000C090B603D090B703E090B803F090B9034B
:101B1000A70196016091C2037091C3038091C40331
:101B20009091C5030E94B21769966CAF7DAF8EAFDE
:101B30009FAF699761962CAD3DAD4EAD5FAD61979E
:101B40006091BA037091BB038091BC039091BD0377
:101B50000E94B217A50194010E94CC169B01AC0112
:101B600061966CAD7DAD8EAD9FAD61970E94B31750
:101B700069837A838B839C83A501940165966CAD00
:101B80007DAD8EAD9FAD65970E94CC169B01AC01DB
:101B9000C301B2010E94B3176D837E838F83988740
:101BA000A501940169966CAD7DAD8EAD9FAD699731
:101BB0000E94CC169B01AC01C701B6010E94B3176D
:101BC00069877A878B879C8781E48F9380EF8F93D7
:101BD0001F921F92ADB7BEB71C970FB6F894BEBF49
:101BE0000FBEADBF11968CE0EAECF3E001900D92D0
:101BF0008A95E1F7E980FA800B811C812D813E8175
:101C00004F81588569857A858B859C850E946A01FC
:101C1000EDB7FEB770960FB6F894FEBF0FBEEDBFDE
:101C20008DC08091C803882309F488C0B801CE0113
:101C30000D96D5D3BE01635F7F4FCE0101960E9402
:101C40009B02CE010D96C7D36091C6037091C70366
:101C5000072E000C880B990B0E946D169F938F9393
:101C60007F936F932DB73EB72C5031090FB6F89480
:101C70003EBF0FBE2DBFADB7BEB711968CE0EAECEC
:101C8000F3E001900D928A95E1F7E980FA800B81EB
:101C90001C812D813E814F81588569857A858B8590
:101CA0009C850E946A018DB79EB740960FB6F89446
:101CB0009EBF0FBE8DBF42C020E030E0A901B5013C
:101CC000C60151C8612C712C812C912C74C820E064
:101CD00030E0A901B501C601B9C8612C712C812C75
:101CE000912CDCC820E030E0A901B501C601D1C9C2
:101CF000612C712C812C912CF4C920E030E0A901D9
:101D0000B501C60139CA612C712C812C912C5CCA99
:101D100020E030E0A901B501C6014DCB212C312CCA
:101D2000812C912C70CB20E030E0A901B501C601D7
:101D3000B5CB212C312C812C912CD8CBA396AEADD8
:101D4000BFADA3970FB6F894BEBF0FBEADBFCE59BF
:101D5000DF4F0FB6F894DEBF0FBECDBFDF91CF913E
:101D60001F910F91FF90EF90DF90CF90BF90AF90B9
:101D70009F908F907F906F905F904F903F902F90AB
:101D800008958FED93E051D1892B49F18FED93E0C8
:101D90002AD18A30B1F48EE492E00E942C038FEDB8
:101DA00093E0BFD18EE591E0EEE4F2E0DF019C012B
:101DB0001D9221503040E1F71092AD031092AC0318
:101DC00008952091AC033091AD03F901E25BFD4F22
:101DD00080832F5F3F4F3093AD032093AC03089572
:101DE0003FB7F8948091DB039091DC03A091DD0371
:101DF000B091DE0326B5A89B05C02F3F19F00196D0
:101E0000A11DB11D3FBFBA2FA92F982F8827820F80
:101E1000911DA11DB11DBC01CD0142E0660F771FD0
:101E2000881F991F4A95D1F708951F920F920FB6F8
:101E30000F9211242F933F938F939F93AF93BF9350
:101E40008091D7039091D803A091D903B091DA0380
:101E50003091D60323E0230F2D3720F40196A11DE6
:101E6000B11D05C026E8230F0296A11DB11D2093C8
:101E7000D6038093D7039093D803A093D903B0934C
:101E8000DA038091DB039091DC03A091DD03B09134
:101E9000DE030196A11DB11D8093DB039093DC034B
:101EA000A093DD03B093DE03BF91AF919F918F911B
:101EB0003F912F910F900FBE0F901F901895CF92CA
:101EC000DF92EF92FF920F931F93CF93DF93CDB7E3
:101ED000DEB7CE55D1400FB6F894DEBF0FBECDBFF2
:101EE0008E010F5F1F4FEE24E394F12C6801C701B0
:101EF0000E9483178F3F39F0F80181938F01FFEF24
:101F0000EF1AFF0AF4CFC6010E942C03C25ADE4F1B
:101F10000FB6F894DEBF0FBECDBFDF91CF911F91FA
:101F20000F91FF90EF90DF90CF90089590E0FC012B
:101F3000E95DFD4F2491FC01EF51FE4F8491882310
:101F400099F090E0880F991FFC01E953FE4FA5918D
:101F5000B491FC01E355FE4F859194918FB7F894AD
:101F6000EC91E22BEC938FBF0895CF92DF92EF922A
:101F7000FF920F931F93CF93DF936C017A018B0134
:101F8000C0E0D0E0CE15DF0589F0D8016D918D015C
:101F9000D601ED91FC910190F081E02DC6011995DB
:101FA000892B11F47E0102C02196ECCFC701DF918D
:101FB000CF911F910F91FF90EF90DF90CF900895F8
:101FC000089580E090E00895FC01538D448D252F05
:101FD00030E0842F90E0821B930B541710F0CF96C3
:101FE000089501970895FC01918D828D981761F0F5
:101FF000828DDF01A80FB11D5D968C91928D9F5F40
:102000009F73928F90E008958FEF9FEF0895FC01EA
:10201000918D828D981731F0828DE80FF11D858D9D
:1020200090E008958FEF9FEF0895FC01918D228D30
:10203000892F90E0805C9F4F821B91098F739927B5
:1020400008958FED93E0F1DF21E0892B09F420E082
:10205000822F0895FC01848DDF01A80FB11DA35AC2
:10206000BF4F2C91848D90E001968F739927848FB8
:10207000A689B7892C93A089B1898C9180648C93AF
:10208000938D848D981306C00288F389E02D80819A
:102090008F7D80830895EF92FF920F931F93CF93CC
:1020A000DF93EC0181E0888F9B8D8C8D981305C0A8
:1020B000E889F989808185FD23C0F62E0B8D10E01B
:1020C0000F5F1F4F0F731127E02E8C8DE8120BC08E
:1020D0000FB607FCFACFE889F989808185FFF5CF33
:1020E000CE01B8DFF2CF8B8DFE01E80FF11DE35A70
:1020F000FF4FF0820B8FEA89FB898081806207C0E5
:10210000EE89FF896083E889F98980818064808312
:1021100081E090E0DF91CF911F910F91FF90EF90C0
:102120000895CF93DF93EC01888D8823C1F0EA896D
:10213000FB89808185FD05C0A889B9898C9186FDC0
:102140000EC00FB607FCF5CF808185FFF2CFA889BE
:10215000B9898C9185FFEDCFCE017CDFE8CFDF918F
:10216000CF9108956EDF811125C080E090E0892B2A
:1021700041F080E090E0892B21F00E940000811165
:102180001BC080E090E0892B41F080E090E0892B3B
:1021900021F00E940000811112C080E090E0892BA4
:1021A00099F080E090E0892B79F00E940000811185
:1021B00009C00895E6DDD9CF0E940000E2CF0E9459
:1021C0000000EBCF0C9400000895362F90E0FC0146
:1021D000E959FE4F4491FC01E95DFD4F2491FC015A
:1021E000EF51FE4F9491992309F46BC0442309F4F5
:1021F00055C050E0FA013197E231F10508F04EC0C8
:102200008827EE58FF4F8F4F0C9410198091800053
:102210008F7707C0809180008F7D03C08091800000
:10222000877F809380003AC084B58F7702C084B5E1
:102230008F7D84BD33C08091B0008F7703C08091C3
:10224000B0008F7D8093B00029C0809190008F777F
:1022500007C0809190008F7D03C080919000877FA0
:10226000809390001BC08091A0008F7707C0809161
:10227000A0008F7D03C08091A000877F8093A00085
:102280000DC0809120018F7707C0809120018F7D44
:1022900003C080912001877F80932001E92FF0E027
:1022A000EE0FFF1FE355FE4FA591B4918FB7F89441
:1022B000EC91311103C020952E2301C02E2B2C93BD
:1022C0008FBF08950E94291BCF93DF93FC012481C7
:1022D0003581232B71F0FB01DC01CD91DC91608114
:1022E0007181CE010E94551B009719F08C1B9D0B2C
:1022F00002C08FEF9FEFDF91CF9108950F931F934F
:10230000CF93DF93EC0188819981009729F02A818E
:102310003B812617370788F48B016F5F7F4F0E9440
:10232000451A009761F0998388831B830A832C8167
:102330003D81232B11F4FC01108281E001C080E07B
:10234000DF91CF911F910F910895CF93DF93EC010F
:1023500088819981009711F00E94AD191982188225
:102360001D821C821B821A82DF91CF910895EF9209
:10237000FF920F931F93CF93DF93EC017B018A01B0
:10238000BA01BCDF811103C0CE01DFDF07C01D83AE
:102390000C83B701888199810E943F1BCE01DF9198
:1023A000CF911F910F91FF90EF900895CF93DF93FE
:1023B000EC016115710551F0FB0101900020E9F776
:1023C0003197AF01461B570BD2DF01C0BEDFCE01F4
:1023D000DF91CF910895FC0180819181BEC7FC01FE
:1023E0001182108213821282158214826115710586
:1023F00049F0FB0101900020E9F73197AF01461B3E
:10240000570BB5CF0895BF92CF92DF92EF92FF9214
:102410000F931F93CF93DF937C016B018A01E90136
:102420002417350720F4812F8901C42FD82F6FE19D
:1024300072E0C701D4DFD60114968D919C91159757
:1024400008171907C8F48C179D0708F4EC01D6018A
:10245000ED91FC911197EC0FFD1FB08010824D9112
:102460005C91BA01600F711FC701A0DFD601ED9129
:10247000FC91EC0FFD1FB082C701DF91CF911F913E
:102480000F91FF90EF90DF90CF90BF9008951F9233
:102490000F920FB60F9211240BB60F922F933F930A
:1024A0004F935F936F937F938F939F93AF93BF935C
:1024B000EF93FF938FED93E0CDDDFF91EF91BF910F
:1024C000AF919F918F917F916F915F914F913F91CC
:1024D0002F910F900BBE0F900FBE0F901F9018956D
:1024E0001F920F920FB60F9211240BB60F922F93DB
:1024F0008F939F93EF93FF93E091EF03F091F0039D
:102500008081E091F503F091F60382FD12C0908185
:102510008091F8038F5F8F732091F903821751F038
:10252000E091F803F0E0E152FC4F958F8093F803BF
:1025300001C08081FF91EF919F918F912F910F901A
:102540000BBE0F900FBE0F901F9018951F93CF9347
:10255000DF93182FEB01EADC209711F460E004C050
:10256000CF3FD10531F461E0812FDF91CF911F91F1
:102570002CCEE12FF0E0E959FE4FE4914E2F50E0D0
:10258000FA013197E231F10508F09CC08827EC5739
:10259000FF4F8F4F45C684B5806884BDC7BD97C0C7
:1025A00084B5806284BDC8BD92C08091800080687F
:1025B00080938000D0938900C093880088C0809168
:1025C0008000806280938000D0938B00C0938A004B
:1025D0007EC080918000886080938000D0938D00C1
:1025E000C0938C0074C08091B00080688093B0006C
:1025F000C093B3006CC08091B00080628093B00043
:10260000C093B40064C08091900080688093900073
:10261000D0939900C09398005AC080919000806236
:1026200080939000D0939B00C0939A0050C08091FB
:102630009000886080939000D0939D00C0939C0090
:1026400046C08091A00080688093A0008091A00087
:102650008F7B8093A000D093A900C093A80037C0BF
:102660008091A00080628093A000D093AB00C093C3
:10267000AA002DC08091A00088608093A000D09314
:10268000AD00C093AC0023C080912001806880938E
:102690002001D0932901C093280119C08091200105
:1026A000806280932001D0932B01C0932A010FC038
:1026B00080912001886080932001D0932D01C093E8
:1026C0002C0105C0C038D1050CF04DCF47CFDF91AC
:1026D000CF911F9108958F929F92AF92BF92CF9208
:1026E000DF92EF92FF926B017C017ADB4B015C0180
:1026F000C114D104E104F104E9F072DBDC01CB0187
:1027000088199909AA09BB09883E9340A105B1051A
:1027100078F321E0C21AD108E108F10888EE880EAA
:1027200083E0981EA11CB11CC114D104E104F10482
:1027300021F7DECFFF90EF90DF90CF90BF90AF906A
:102740009F908F900895789484B5826084BD84B5FD
:10275000816084BD85B5826085BD85B5816085BD9C
:1027600080916E00816080936E0010928100809154
:1027700081008260809381008091810081608093DC
:102780008100809180008160809380008091B10001
:1027900084608093B1008091B00081608093B0002C
:1027A000809191008260809391008091910081607E
:1027B000809391008091900081608093900080913F
:1027C000A10082608093A1008091A100816080932C
:1027D000A1008091A00081608093A00080912101E0
:1027E0008260809321018091210181608093210189
:1027F0008091200181608093200180917A00846023
:1028000080937A0080917A00826080937A00809130
:102810007A00816080937A0080917A00806880934A
:102820007A001092C100E091EF03F091F00382E092
:102830008083E091EB03F091EC031082E091ED03D3
:10284000F091EE0383E380831092F703E091F303AA
:10285000F091F40386E08083E091F103F091F203BC
:10286000808180618083E091F103F091F2038081A7
:1028700088608083E091F103F091F20380818068A9
:102880008083E091F103F091F20380818F7D80835A
:102890008AE04CDB8BE04ADB89E048DB8AE090E0B1
:1028A000A0E0B0E08093E3039093E403A093E503FA
:1028B000B093E60380E090E026D3833609F4FFDA94
:1028C00051DCFECFEFEDF3E01382128288EE93E04D
:1028D000A0E0B0E084839583A683B7838AE092E08A
:1028E0009183808385EC90E09587848784EC90E0E9
:1028F0009787868780EC90E0918B808B81EC90E0CD
:10290000938B828B82EC90E0958B848B86EC90E0AD
:10291000978B868B118E128E138E148E08956627D8
:1029200077274FC0FC0188279927E894219120320E
:10293000E9F3293010F02E30C8F32B3239F02D3264
:1029400031F4689403C035D0820F911D219120533A
:102950002A30C8F31EF4909581959F4F08954CE757
:1029600054E000C0FA01A191B081009719F41097CA
:10297000E1F0CD01DC01CD010D90002011F4C0018A
:1029800013C0FB012191222319F02015D9F7F3CFB1
:10299000FB012191201519F41E92119606C02223E5
:1029A000C1F70D900020A1F7D001FA01A193B083E7
:1029B00008957AE0979F902D879F802D910D112487
:1029C00008956F927F928F929F92AF92BF92CF9213
:1029D000DF92EF92FF920F931F93CF93DF93EC015F
:1029E0007B016115710519F0DB018D939C938E01BC
:1029F0000F5F1F4F7880872D90E049D1892B11F010
:102A0000E801F5CFBDE27B1205C00F5F1F4F798053
:102A1000C1E008C0EBE27E1204C08E010E5F1F4FC2
:102A20007980C0E06801F1E0CF1AD10843E050E0BE
:102A300064E371E0C60133D1892BE9F4680122E037
:102A4000C20ED11C45E050E06FE271E0C60127D113
:102A5000892B21F4680187E0C80ED11CE114F10430
:102A600019F0D701CD92DC92C111F9C060E070E09D
:102A700080E89FE7FDC043E050E06CE271E0C601F2
:102A80000ED1892B51F4E114F10409F4EDC00E5F6D
:102A90001F4FF70111830083E7C0680160E070E019
:102AA000CB0100E010E0F601D0EDD70DDA3050F5A3
:102AB0002C2F2260622E2C2F2870C2FF05C02111FE
:102AC00027C00F5F1F4F24C0222311F001501109AE
:102AD000A5E0B0E09B01AC012CD24B015C01880C5D
:102AE000991CAA1CBB1CC501B4016D0F711D811D71
:102AF000911D6839A9E97A078A07A9E19A0740F088
:102B0000C66005C0DE3F51F4C3FD44C0C8606C2EF2
:102B1000BFEFCB1ADB0A7080C62DC5CF2D2F2F7DBE
:102B20002531C1F540814D3211F4C06106C04B32F0
:102B300021F0319621E030E006C03296D6011196A0
:102B40004C9122E030E0A0EDA40FAA3018F0E21B77
:102B5000F30B20C040E050E04038BCE05B075CF481
:102B60009A01220F331F220F331F420F531F440FAE
:102B7000551F4A0F511D3196DF0111972C91A0ED81
:102B8000A20FAA3048F3C4FF03C0519541955109E3
:102B9000040F151FC1FF07C0E114F10421F03197A4
:102BA000D701ED93FC9397D0C370C33019F06B013C
:102BB0007C0106C06B017C01F7FAF094F7F8F09401
:102BC00020E030E0A901C701B60181D0882309F4D3
:102BD00043C017FF06C0119501951109CBE4D1E060
:102BE00002C0C3E6D1E05E01B8E1AB1AB10846010C
:102BF000BE2DAF2D90E2E92EF12C0E151F057CF0B5
:102C0000FE012591359145915491B4018B2F9A2F56
:102C1000C3D04B01B82FA92F0E191F09EECF24974F
:102C2000F594E794CA15DB0541F76401EB2EFA2E03
:102C30008E2D880F8F2D881F8F3F41F020E030E0D0
:102C4000A901C701B60143D0811106C082E290E01C
:102C500090937F0480937E04C701B60109C060E0B1
:102C600070E080E89FEF04C060E070E080EC9FE7D8
:102C7000DF91CF911F910F91FF90EF90DF90CF9058
:102C8000BF90AF909F908F907F906F90089591111B
:102C9000E6C0803219F089508550D0F70895FB01C5
:102CA000DC014150504088F08D9181341CF08B350F
:102CB0000CF4805E659161341CF06B350CF4605E41
:102CC000861B611171F3990B0895881BFCCF40D0CE
:102CD00008F481E00895E89409C097FB3EF49095CC
:102CE0008095709561957F4F8F4F9F4F9923A9F0E5
:102CF000F92F96E9BB279395F69587957795679574
:102D0000B795F111F8CFFAF4BB0F11F460FF1BC0B7
:102D10006F5F7F4F8F4F9F4F16C0882311F096E94A
:102D200011C0772321F09EE8872F762F05C06623F8
:102D300071F096E8862F70E060E02AF09A95660FB1
:102D4000771F881FDAF7880F9695879597F908956A
:102D5000990F0008550FAA0BE0E8FEEF16161706AC
:102D6000E807F907C0F012161306E407F50798F014
:102D7000621B730B840B950B39F40A2661F0232B2D
:102D8000242B252B21F408950A2609F4A140A695A9
:102D90008FEF811D811D08950BD07BC06CD028F072
:102DA00071D018F0952309F05DC062C01124A5C050
:102DB00081D0A0F3959FD1F3950F50E0551F629FEE
:102DC000F001729FBB27F00DB11D639FAA27F00D84
:102DD000B11DAA1F649F6627B00DA11D661F829FAB
:102DE0002227B00DA11D621F739FB00DA11D621F90
:102DF000839FA00D611D221F749F3327A00D611DAD
:102E0000231F849F600D211D822F762F6A2F11248E
:102E10009F5750408AF0E1F088234AF0EE0FFF1FE1
:102E2000BB1F661F771F881F91505040A9F79E3F18
:102E3000510570F017C061C05F3FECF3983EDCF3C2
:102E4000869577956795B795F795E7959F5FC1F755
:102E5000FE2B880F911D9695879597F908959927D0
:102E60008827089597F99F6780E870E060E00895EB
:102E70009FEF80EC089500240A9416161706180692
:102E80000906089500240A9412161306140605066E
:102E90000895092E0394000C11F4882352F0BB0FFF
:102EA00040F4BF2B11F460FF04C06F5F7F4F8F4F62
:102EB0009F4F089557FD9058440F551F59F05F3F9D
:102EC00071F04795880F97FB991F61F09F3F79F04C
:102ED00087950895121613061406551FF2CF4695CE
:102EE000F1DF08C0161617061806991FF1CF869550
:102EF0007105610508940895E894BB276627772734
:102F0000CB0197F90895F999FECF92BD81BDF89A4A
:102F1000992780B50895262FF999FECF1FBA92BD43
:102F200081BD20BD0FB6F894FA9AF99A0FBE0196AA
:102F3000089509D0A59F900DB49F900DA49F800D7A
:102F4000911D11240895A29FB001B39FC001A39FBA
:102F5000700D811D1124911DB29F700D811D1124D2
:102F6000911D08955058BB27AA270ED092CF83DF1A
:102F700030F088DF20F031F49F3F11F41EF478CF59
:102F80000EF4E095E7FB6ECFE92F94DF80F3BA17DC
:102F9000620773078407950718F071F49EF5ACCFAC
:102FA0000EF4E0950B2EBA2FA02D0B01B901900164
:102FB0000C01CA01A0011124FF27591B99F0593FA8
:102FC00050F4503E68F11A16F040A22F232F342FF0
:102FD0004427585FF3CF469537952795A795F0403E
:102FE0005395C9F77EF41F16BA0B620B730B840B53
:102FF000BAF09150A1F0FF0FBB1F661F771F881F0B
:10300000C2F70EC0BA0F621F731F841F48F4879562
:1030100077956795B795F7959E3F08F0B3CF939551
:10302000880F08F09927EE0F9795879508950CD093
:1030300030CF28DF40F01FDF30F021F45F3F19F080
:1030400011CF51115ACF14CF35DF98F39923C9F31B
:103050005523B1F3951B550BBB27AA27621773079E
:10306000840738F09F5F5F4F220F331F441FAA1F52
:10307000A9F333D00E2E3AF0E0E830D09150504012
:10308000E695001CCAF729D0FE2F27D0660F771FC0
:10309000881FBB1F261737074807AB07B0E809F0A2
:1030A000BB0B802DBF01FF2793585F4F2AF09E3F37
:1030B000510568F0D7CE21CF5F3FECF3983EDCF3AB
:1030C000869577956795B795F7959F5FC9F7880FB0
:1030D000911D9695879597F90895E1E0660F771F02
:1030E000881FBB1F621773078407BA0720F0621B93
:1030F000730B840BBA0BEE1F88F7E095089504D08C
:103100006894B111FACE0895DDDE88F09F5790F0F3
:10311000B92F9927B751A0F0D1F0660F771F881FFC
:10312000991F1AF0BA95C9F712C0B13081F0E4DEE8
:10313000B1E00895E1CE672F782F8827B85F39F086
:10314000B93FCCF3869577956795B395D9F73EF45B
:1031500090958095709561957F4F8F4F9F4F089503
:103160008ADE18F011F08EDE38F482CEC6CEE92F5A
:10317000A1DEB0F35523C9F3E7FB62177307840799
:103180009507A8F199F3E92FFF2788232AF03197B3
:10319000660F771F881FDAF7952F5527442332F0E3
:1031A00091505040220F331F441FD2F7BB27E91B19
:1031B000F50B621B730B840BB109C1F222F4620F91
:1031C000731F841FB11D31972AF0660F771F881F68
:1031D000BB1FEFCF915050405AF041F0882332F09E
:1031E000660F771F881F91505040C1F7939506C016
:1031F0008695779567959F5FD9F7F8CF9F3F31F018
:10320000915020F4879577956795B795880F911D14
:103210009695879597F908959BDD08F48FEF0895AB
:10322000EE0FFF1F881F8BBF0790F691E02D1994BA
:10323000CF93DF938230910510F482E090E0E0912B
:103240008204F091830420E030E0C0E0D0E03097C9
:1032500011F14081518148175907C0F048175907AB
:1032600061F482819381209719F09B838A832BC01C
:10327000909383048093820426C02115310519F0B0
:103280004217530718F49A01BE01DF01EF010280D3
:10329000F381E02DDCCF2115310509F1281B390B15
:1032A0002430310590F412968D919C9113976115FD
:1032B000710521F0FB019383828304C09093830402
:1032C00080938204FD01329644C0FD01E20FF31F9A
:1032D00081939193225031092D933C933AC02091D0
:1032E000800430918104232B41F42091020230911B
:1032F00003023093810420938004209100023091D6
:1033000001022115310541F42DB73EB74091040269
:1033100050910502241B350BE0918004F09181044B
:10332000E217F307A0F42E1B3F0B2817390778F09C
:10333000AC014E5F5F4F2417350748F04E0F5F1FFB
:1033400050938104409380048193919302C0E0E004
:10335000F0E0CF01DF91CF9108950F931F93CF93AA
:10336000DF93009709F48CC0FC013297138212821C
:1033700000918204109183040115110581F42081CC
:103380003181820F931F209180043091810428178E
:10339000390779F5F0938104E093800471C0D80176
:1033A00040E050E0AE17BF0750F412962D913C91CB
:1033B0001397AD012115310509F1D901F3CF9D0115
:1033C000DA013383228360817181860F971F821710
:1033D000930769F4EC0128813981260F371F2E5F8E
:1033E0003F4F318320838A819B8193838283452B46
:1033F00029F4F0938304E093820442C01396FC9373
:10340000EE931297ED01499159919E01240F351FBA
:10341000E217F30771F480819181840F951F029662
:1034200011969C938E938281938113969C938E9395
:103430001297E0E0F0E0D80112968D919C911397DD
:10344000009719F0F8018C01F6CF8D919C919801AD
:103450002E5F3F4F820F931F209180043091810493
:103460002817390769F4309729F4109283041092D1
:10347000820402C01382128210938104009380049C
:10348000DF91CF911F910F9108956F927F928F924C
:103490009F92AF92BF92CF92DF92EF92FF920F93E3
:1034A0001F93CF93DF93EC01009781F4CB01DF9161
:1034B000CF911F910F91FF90EF90DF90CF90BF9031
:1034C000AF909F908F907F906F90B2CEFC01E60FEF
:1034D000F71F9C0122503109E217F30708F4A8C036
:1034E000D9010D911C91119706171707A8F0053007
:1034F000110508F49BC0C80104978617970708F4C4
:1035000095C002501109061B170B019311936D937F
:103510007C93CF0122DF8AC05B01A01AB10A4C0163
:10352000800E911EA0918204B091830440E050E08F
:10353000E12CF12C109709F44AC0A815B905D1F572
:103540006D907C901197630182E0C80ED11CCA1463
:10355000DB0480F1A3014A195B096A0182E0C80E0D
:10356000D11C1296BC9012971396AC91B5E0CB1675
:10357000D10440F0B282A38351834083D9016D937B
:103580007C930AC00E5F1F4FC301800F911FF9018A
:1035900091838083EB2DFA2FE114F10431F0D701F0
:1035A0001396FC93EE93129741C0F0938304E0933B
:1035B00082043CC08D919C9111974817590708F4DB
:1035C000AC017D0112960D90BC91A02DB3CF8091DE
:1035D00080049091810488159905E1F446175707F6
:1035E000C8F48091000290910102009741F48DB7D8
:1035F0009EB74091040250910502841B950BE81779
:10360000F907B0F4F0938104E0938004F901718329
:1036100060830CC0CB010CDE7C01009749F0A8014F
:10362000BE011BD0CE0199DEC70104C0CE0102C08D
:1036300080E090E0DF91CF911F910F91FF90EF908C
:10364000DF90CF90BF90AF909F908F907F906F90C2
:10365000089581E090E0F89442C0FB01DC0102C0D3
:1036600001900D9241505040D8F70895FB01DC01C4
:103670008D91019080190110D9F3990B0895FB01E8
:10368000DC0101900D920020E1F70895FB01DC01BF
:103690004150504048F001900D920020C9F701C000
:1036A0001D9241505040E0F70895FB015191552380
:1036B000A9F0BF01DC014D9145174111E1F759F423
:1036C000CD010190002049F04D9140154111C9F301
:1036D000FB014111EFCF81E090E001970895F8944C
:0236E000FFCF1A
:1036E200000084048000000000004B10B50FE40FBE
:1036F20091101510F30F071009000B000A002C009F
:1037020073617665003A00737400627200302C3087
:103712002C30007261003235352C302C300073654C
:0E372200007C003B00690061750073630000CD
:00000001FF
