:100000000C940A010C9432010C9432010C943201CC
:100010000C9432010C9432010C9432010C94320194
:100020000C9432010C9432010C94F7130C94691463
:100030000C9432010C9432010C9432010C94320174
:100040000C9432010C9432010C9432010C94320164
:100050000C9432010C9432010C9432010C948511F1
:100060000C9432010C9432010C9432010C94320144
:100070000C9432010C9432010C9432010C94320134
:100080000C9432010C9432010C9432010C94320124
:100090000C9432010C9432010C9432010C94320114
:1000A0000C9432010C9432010C943201C901CC0140
:1000B000BB01BF01C301ED01ED01ED01D001D40190
:1000C000D801DE01E201ED01E801920297029C02F3
:1000D000A602B002FA02FA02FA02BA02C402CE0280
:1000E000D802E502FA02ED024E414E494E495459FA
:1000F000494E46CDCCCC3D0AD7233C17B7D13877F3
:10010000CC2B329595E6241FB14F0A000020410008
:1001100000C84200401C4620BCBE4CCA1B0E5AAE52
:10012000C59D740000000200090F000003040100D7
:100130000C000000000000000000000000000000B3
:100140000000080B00020202010009040000010285
:10015000020000052400100105240101010424020D
:10016000060524060001070581031000400904016B
:1001700000020A0000000705020240000007058394
:10018000024000000403090412010002EF020140D2
:100190004123368000010102030141726475696EDA
:1001A0006F204C4C430041726475696E6F204C6542
:1001B0006F6E6172646F0000000000250028002B44
:1001C000002E00310000000000240027002A002D2E
:1001D00000300004040404040304050202020204C3
:1001E00003020202020606060606060404020202D2
:1001F0000404040802011040804010204080408028
:1002000008020401804020100201108010204040AC
:100210002000991611241FBECFEFDAE0DEBFCDBF5C
:1002200021E0A0E6B1E001C01D92AF3FB207E1F7C7
:1002300011E0A0E0B1E0ECE4FDE302C005900D9216
:10024000A036B107D9F711E0CAE0D1E004C0219788
:10025000FE010E94601CC930D107C9F70E94AE168A
:100260000C94A41E0C940000CF92DF92EF92FF92A8
:100270000F931F93CF93DF936C017A018B01C0E042
:10028000D0E0CE15DF0589F0D8016D918D01D60142
:10029000ED91FC910190F081E02DC6010995892B2B
:1002A00011F47E0102C02196ECCFC701DF91CF91FE
:1002B0001F910F91FF90EF90DF90CF900895CF9313
:1002C000DF931F92CDB7DEB76983DC01ED91FC911E
:1002D0000280F381E02D41E050E0BE016F5F7F4F6F
:1002E00009950F90DF91CF91089583E08093E90005
:1002F0008091F200882319F08AE38093E800089542
:10030000FC018485958597FD0BC09FB7F89482E02A
:100310008093E9008091F2009FBF90E001960895DC
:100320009FB7F89482E08093E9008091F2009FBF2C
:1003300090E00895089580E090E00895362F90E0D1
:10034000FC01ED5DFE4F4491FC01EE50FE4F249107
:10035000FC01ED52FE4F8491882309F451C04423DF
:10036000E1F150E0FA013197EF30F105B0F5EA5ACA
:10037000FF4F0C94601C909180009F7707C0909174
:1003800080009F7D03C090918000977F90938000B4
:1003900024C094B59F7702C094B59F7D94BD1DC0C5
:1003A000909190009F7707C0909190009F7D03C02F
:1003B00090919000977F909390000FC09091C00013
:1003C0009F7703C09091C0009F7D9093C00005C0AF
:1003D0009091C200977F9093C200E82FF0E0EE0F5B
:1003E000FF1FE954FE4FA591B4918FB7F894EC919B
:1003F000311103C020952E2301C02E2B2C938FBFCB
:1004000008953FB7F89480918D0190918E01A0914D
:100410008F01B091900126B5A89B05C02F3F19F020
:100420000196A11DB11D3FBFBA2FA92F982F882774
:10043000820F911DA11DB11DBC01CD0142E0660FCF
:10044000771F881F991F4A95D1F708950E94FB12C4
:1004500090E00895CF93DF931F92CDB7DEB7FC01F4
:100460008485958597FD05C02FEF3FEF358724875D
:100470000BC0CE0101960E94D112019719F4898117
:1004800090E002C08FEF9FEF0F90DF91CF91089522
:100490000F931F93CF93DF931F92CDB7DEB78C01DD
:1004A000FC018485958597FF0EC0CE0101960E94C0
:1004B000D112019719F4298130E002C02FEF3FEFEC
:1004C000F80135872487F801848595850F90DF91A1
:1004D000CF911F910F9108951F93CF93DF93182F02
:1004E000EB010E94B212209711F460E004C0CF3FEC
:1004F000D10539F461E0812FDF91CF911F910C94E8
:100500009E01E12FF0E0ED5DFE4FE4914E2F50E0B3
:10051000FA013197EF30F10508F06CC0EB59FF4F4D
:100520000C94601C84B5806884BDC7BD68C084B568
:10053000806284BDC8BD63C0809180008068809364
:100540008000D0938900C093880059C080918000BA
:10055000806280938000D0938B00C0938A004FC04C
:1005600080918000886080938000D0938D00C0933C
:100570008C0045C080919000806880939000D0935B
:100580009900C09398003BC0809190008062809356
:100590009000D0939B00C0939A0031C0809190004E
:1005A000886080939000D0939D00C0939C0027C0EA
:1005B0008091C00080688093C0008091C0008F7BD4
:1005C0008093C000C093CF001AC08091C0008062A9
:1005D0008093C000C093D00012C08091C200886098
:1005E0008093C2008091C2008B7F8093C200C09331
:1005F000D20005C0C038D1050CF07CCF76CFDF919A
:10060000CF911F9108958F929F92AF92BF92CF92F8
:10061000DF92EF92FF920F931F93CF93DF9300D05F
:10062000CDB7DEB76C017B01ADB6BEB619821A82BA
:10063000FB01048115810F5F1F4FB801C7010E94A4
:100640002613882379F0F7012081318184819581F7
:10065000BE016F5F7F4F820F931F0E94741EF701D0
:1006600015830483F701848195818C010150110960
:100670002DB73EB7281B390B0FB6F8943EBF0FBEFF
:100680002DBFEDB7FEB731964F01009789F0EF2BE4
:1006900079F08017910708F48C01F701608171816E
:1006A000A801C4010E947B1EF401E00FF11F10821B
:1006B00061E371E0C4010E94A4170E948217F60151
:1006C000608371838283938361E371E080E090E0D3
:1006D0000E94A4170E948217F601648375838683A3
:1006E000978361E371E080E090E00E94A4170E948C
:1006F0008217F6016087718782879387C6010FB6DC
:10070000F894BEBE0FBEADBE0F900F90DF91CF919B
:100710001F910F91FF90EF90DF90CF90BF90AF901F
:100720009F908F9008954091930150919401209152
:1007300091013091920142175307B4F49091E8006F
:100740009570E1F39091E80092FD19C08093F1005B
:10075000809193019091940101968F739927892B31
:1007600019F48EEF8093E8008091930190919401A9
:100770000196909394018093930181E0089580E025
:100780000895615030F02091F100FC012083019622
:10079000F8CF289884E68093E70108958F929F927E
:1007A000AF92BF92CF92DF92EF92FF926B017C01EA
:1007B0000E9401024B015C01C114D104E104F10467
:1007C000F1F00E940102DC01CB0188199909AA0904
:1007D000BB09883E9340A105B10570F321E0C21A20
:1007E000D108E108F10888EE880E83E0981EA11C6C
:1007F000B11CC114D104E104F10419F7DDCFFF905D
:10080000EF90DF90CF90BF90AF909F908F90089522
:100810008F929F92AF92BF92CF92DF92EF92FF9210
:100820000F931F93CF93DF935C016B017A0180914B
:100830000B01882309F45BC08091E801882309F447
:1008400056C08091960180FF05C08091E0008260D3
:100850008093E000E70110E00AEF83E0882E9AE33E
:10086000992E2097D9F10E94FB1281110AC00150E4
:1008700009F43DC061E070E080E090E00E94CE03AA
:10088000F0CF282F30E0C217D3070CF48C2F4FB7CE
:10089000F8948092E9009091E80095FF1DC0282F00
:1008A00030E0C21BD30BF601982F915020F08191BC
:1008B0008093F100FACFC20ED31E112319F090924B
:1008C000E80009C08091E80085FD06C09092E8002C
:1008D00011E0209709F010E04FBFC3CF1111C3CF33
:1008E0005D9884E6809395011E141F0444F081E016
:1008F00090E0F5019383828380E090E001C0C7011E
:10090000DF91CF911F910F91FF90EF90DF90CF90EB
:10091000BF90AF909F908F9008954F925F926F928B
:100920007F928F929F92AF92BF92CF92DF92EF927F
:10093000FF920F931F93CF93DF93CDB7DEB7A097AE
:100940000FB6F894DEBF0FBECDBFE982FA820B83EB
:100950001C832D833E834F83588769877A878B87D3
:100960009C872396CCACDDACEEACFFAC23978BA977
:100970009CA9ADA9BEA98D879E87AF87B88B4FA8CC
:1009800058AC69AC7AAC8BAC9CACADACBEAC20E0E6
:1009900030E04AE753E4C701B6010E94561987FFC9
:1009A00013C020E030E040E85FE3C701B6010E94D9
:1009B0005B1C1816E4F480E090E0A0E8BFE3898BAC
:1009C0009A8BAB8BBC8B1DC020E030E04AE753E430
:1009D000C701B6010E94511B698B7A8B8B8B9C8B54
:1009E000C12CD12C8AE7E82E83E4F82E0AC080E0DF
:1009F00090E0A0E8BFE3898B9A8BAB8BBC8B6C013A
:100A00007D012D853E854F85588969817A818B814D
:100A10009C810E94E41AA70196010E94511B6D8BD4
:100A20007E8B8F8B988FA30192016D817E818F8148
:100A300098850E94E41AA70196010E94511B698FB4
:100A40007A8F8B8F9C8FA501940169857A858B8520
:100A50009C850E94E41AA70196010E94511B6D8F8C
:100A60007E8F8F8F98A300E010E0C701B6010E942F
:100A7000C31B061717070CF06AC02D893E894F89E2
:100A8000588D6D857E858F8598890E94E51A6D87C2
:100A90007E878F87988B298D3A8D4B8D5C8DC30116
:100AA000B2010E94E51A2B013C012D8D3E8D4F8D28
:100AB00058A1C501B4010E94E51A4B015C016D8586
:100AC0007E858F8598890E94C31B8AE00E946C02F4
:100AD000C301B2010E94C31B8BE00E946C02C501DE
:100AE000B4010E94C31B89E00E946C028D859E8523
:100AF000AF85B88980937C0190937D01A0937E019E
:100B0000B0937F01409280015092810160928201F6
:100B1000709283018092840190928501A092860157
:100B2000B092870169897A898B899C890E94C31B4D
:100B3000072E000C880B990B0E94CE0387E991E0E9
:100B40000E948001892B19F40F5F1F4F8ECFA09652
:100B50000FB6F894DEBF0FBECDBFDF91CF911F91CE
:100B60000F91FF90EF90DF90CF90BF90AF909F904C
:100B70008F907F906F905F904F9008952F923F924B
:100B80004F925F926F927F928F929F92AF92BF929D
:100B9000CF92DF92EF92FF920F931F93CF93DF9349
:100BA000CDB7DEB7C256D1090FB6F894DEBF0FBE7F
:100BB000CDBF2DB73EB7A3963FAF2EAFA3972196DB
:100BC0009FAF8EAF21978E01095C1F4FAE01415C34
:100BD0005F4F68E371E021968EAD9FAD21970E9433
:100BE000A917009781F0D8018D939D938D0163E340
:100BF00071E00E946B1E892B49F721968EAD9FAD47
:100C000021979AAF89AF0FA918AD6AE371E0C801C7
:100C10000E946B1E892B09F046C010927B01109236
:100C20007A0169AD7AADCE010D960E949C13BE018A
:100C3000635F7F4FCE0101960E940303CE010D96A4
:100C40000E94971383E48F938AE78F931F921F92DA
:100C5000EDB7FEB73C970FB6F894FEBF0FBEEDBFE1
:100C6000ADB7BEB711968CE0ECE7F1E001900D92C4
:100C70008A95E1F7E980FA800B811C812D813E8104
:100C80004F81588569857A858B859C850E948D0466
:100C90002DB73EB7205F3F4F0FB6F8943EBF0FBE53
:100CA0002DBF0C9462116DE371E0C8010E946B1EB0
:100CB000892B09F092C110927B0110927A0169ADE3
:100CC0007AADCE010D960E949C13BE01635F7F4FEB
:100CD000CE0101960E940303CE010D960E94971348
:100CE0008BAD9CAD0E9482174B015C0189819A817A
:100CF000AB81BC816D968CAF9DAFAEAFBFAF6D9732
:100D00008D819E81AF81B88569968CAF9DAFAEAF66
:100D1000BFAF699789859A85AB85BC8561968CAF95
:100D20009DAFAEAFBFAF619760E471E0CE010D96AD
:100D30000E949C13BE01635F7F4FCE0149960E94C3
:100D4000030383E48F938AE78F931F921F92ADB7BB
:100D5000BEB71C970FB6F894BEBF0FBEADBF1196BD
:100D60008CE0ECE7F1E001900D928A95E1F7E98CD7
:100D7000FA8C0B8D1C8D2D8D3E8D4F8D58A169A148
:100D80007AA18BA19CA10E948D04CE010D960E9498
:100D90009713A501940160E070E080E89FE30E9452
:100DA000511B20E030E040E05FE30E94BC1920E0EE
:100DB00030E04AE753E40E94511B20E030E04AE76C
:100DC00054E40E94BC19A1966CAF7DAF8EAF9FAF6B
:100DD000A197EDB7FEB770960FB6F894FEBF0FBEA1
:100DE000EDBF212C312CB101032C000C880B990B89
:100DF0000E945D192B013C019B01AC016D966CAD0D
:100E00007DAD8EAD9FAD6D970E94BC1920E030E0A6
:100E10004AE753E40E94511B4B015C010E94C31B33
:100E20008AE00E946C02A301920169966CAD7DADCF
:100E30008EAD9FAD69970E94BC1920E030E04AE773
:100E400053E40E94511B6B017C010E94C31B8BE089
:100E50000E946C02A301920161966CAD7DAD8EADD6
:100E60009FAD61970E94BC1920E030E04AE753E44F
:100E70000E94511B2B013C010E94C31B89E00E9470
:100E80006C02A1966CAD7DAD8EAD9FADA1970E9419
:100E9000CA1B65966CAF7DAF8EAF9FAF65970E9402
:100EA000CE0387E991E00E948001892BD1F08092E6
:100EB0007C0190927D01A0927E01B0927F01C09250
:100EC0008001D0928101E0928201F09283014092F0
:100ED00084015092850160928601709287010C9482
:100EE0006211FFEF2F1A3F0A2AEF2216310409F090
:100EF0007ACF0AEF10E0B801012E000C880B990B95
:100F00000E945D196B017C019B01AC016D966CAD7B
:100F10007DAD8EAD9FAD6D970E94BC1920E030E095
:100F20004AE753E40E94511B2B013C010E94C31B62
:100F30008AE00E946C02A701960169966CAD7DADB6
:100F40008EAD9FAD69970E94BC1920E030E04AE762
:100F500053E40E94511B4B015C010E94C31B8BE0B8
:100F60000E946C02A701960161966CAD7DAD8EADBD
:100F70009FAD61970E94BC1920E030E04AE753E43E
:100F80000E94511B6B017C010E94C31B89E00E94DF
:100F90006C0265966CAD7DAD8EAD9FAD65970E9480
:100FA000CE0387E991E00E948001892B89F040926D
:100FB0007C0150927D0160927E0170927F0180924F
:100FC000800190928101A0928201B092830178C544
:100FD0000150110909F08FCF04CF66E471E0C80118
:100FE0000E946B1E892B09F082C510927B01109222
:100FF0007A0189AD9AAD0E9482174B015C0169E4C8
:1010000071E0CE0101960E949C13BE016F5F7F4F7D
:10101000CE010D960E94030383E48F938AE78F939A
:101020001F921F928DB79EB70C970FB6F8949EBF74
:101030000FBE8DBFADB7BEB711968CE0ECE7F1E007
:1010400001900D928A95E1F7ED84FE840F85188951
:1010500029893A894B895C896D897E898F89988D28
:101060000E948D04CE0101960E94971320E030E08B
:1010700044EB53E4C501B4010E94511B20E030E071
:101080004AE754E40E94BC196D966CAF7DAF8EAFF9
:101090009FAF6D97ADB7BEB750960FB6F894BEBF71
:1010A0000FBEADBF2F961FAE1EAE2F972F96EEAD83
:1010B000FFAD2F97BF01FF0F880B990B0E945D19A1
:1010C00020E030E040E752E40E94511B65966CAF8F
:1010D0007DAF8EAF9FAF659720E030E040EA50E4EF
:1010E0000E94E51A20E030E040EC50E40E94041C2D
:1010F0005B016C013B014C019B01AC0160E070E0C5
:1011000080E890E40E94E41A162F072FF82EE92EAB
:1011100020E030E040E85FE30E94561987FD25C0DB
:1011200020E030E040E85FE3B501C6010E945619B7
:1011300087FF0AC020E030E0A901B501C6010E9486
:101140005B1C18160CF05AC020E030E040E85FE36A
:10115000612F702F8F2D9E2D0E94561987FD18C06C
:1011600070E060E090E88FE315C0212F302F4F2D05
:101170005E2DB501C6010E94561987FF71C020E09F
:1011800030E0A901B501C6010E945B1C1816B4F538
:10119000B801C701272F362F492F582FB501C60197
:1011A0000E94561987FD0FC020E030E040E85FE361
:1011B000612F702F8F2D9E2D0E94561987FF08C01A
:1011C000B801C70109C07A2D6B2D9C2D8D2D04C04F
:1011D00070E060E090E88FE3272F362F492F582FDB
:1011E00060E070E080E89FE30E94E41A20E030E0D5
:1011F000A9010E945B1C18160CF080C020E030E0B2
:1012000040E85FE3612F702F8F2D9E2D0E945619AD
:1012100087FD32C020E030E040E85FE3B501C60161
:101220000E94561987FF0BC020E030E0A901B501EC
:10123000C6010E945B1C181614F00C94261120E0C5
:1012400030E040E85FE3612F702F8F2D9E2D0E94CC
:10125000561987FD27C070E060E090E88FE324C056
:1012600020E030E0A901612F702F8F2D9E2D0E946C
:101270005B1C18160CF48CCF212F302F4F2D5E2DB8
:10128000B501C6010E94561987FDDAC720E030E09B
:10129000A901612F702F8F2D9E2D0E945B1C1816A7
:1012A0000CF0D4C7B801C701272F362F492F582F6C
:1012B000B501C6010E94561987FD17C020E030E035
:1012C00040E85FE3612F702F8F2D9E2D0E945619ED
:1012D00087FF05C0612E702E8F2C9E2C06C0612CBE
:1012E000712CB0E88B2E1FE3912E9301A40160E0D6
:1012F00070E080E89FE30E94E41A73C020E030E0D1
:1013000040E85FE3612F702F8F2D9E2D0E945619AC
:1013100087FD25C020E030E040E85FE3B501C6016D
:101320000E94561987FF0AC020E030E0A901B501EC
:10133000C6010E945B1C18160CF093C720E030E039
:1013400040E85FE3612F702F8F2D9E2D0E9456196C
:1013500087FD1BC070E060E090E88FE318C0212F8C
:10136000302F4F2D5E2DB501C6010E94561987FD05
:1013700072C720E030E0A901612F702F8F2D9E2DC4
:101380000E945B1C18160CF06CC7B801C701272F10
:10139000362F492F582FB501C6010E94561987FDD7
:1013A00017C020E030E040E85FE3612F702F8F2D01
:1013B0009E2D0E94561987FF05C0612E702E8F2C1E
:1013C0009E2C06C0612C712CF0E88F2EAFE39A2E74
:1013D0009301A40160E070E080E89FE30E94E41ABA
:1013E000905820E030E04FE753E40E94BC19699622
:1013F0006CAF7DAF8EAF9FAF699720E030E040E4E7
:1014000050E465966CAD7DAD8EAD9FAD65970E9445
:10141000E51A20E030E040EC50E40E94041C5B013F
:101420006C013B014C019B01AC0160E070E080E885
:1014300090E40E94E41A162F072FF82EE92E20E0E0
:1014400030E040E85FE30E94561987FD25C020E0A8
:1014500030E040E85FE3B501C6010E94561987FFFE
:101460000AC020E030E0A901B501C6010E945B1C62
:1014700018160CF05AC020E030E040E85FE3612F1E
:10148000702F8F2D9E2D0E94561987FD18C070E079
:1014900060E090E88FE315C0212F302F4F2D5E2D97
:1014A000B501C6010E94561987FF70C020E030E0E8
:1014B000A901B501C6010E945B1C1816B4F5B8015C
:1014C000C701272F362F492F582FB501C6010E947B
:1014D000561987FD0FC020E030E040E85FE3612F40
:1014E000702F8F2D9E2D0E94561987FF08C0B801BE
:1014F000C70109C07A2D6B2D9C2D8D2D04C070E085
:1015000060E090E88FE3272F362F492F582F60E0B7
:1015100070E080E89FE30E94E41A20E030E0A90137
:101520000E945B1C18160CF07FC020E030E040E801
:101530005FE3612F702F8F2D9E2D0E94561987FD1E
:1015400031C020E030E040E85FE3B501C6010E9411
:10155000561987FF0AC020E030E0A901B501C60195
:101560000E945B1C18160CF087C620E030E040E8B3
:101570005FE3612F702F8F2D9E2D0E94561987FDDE
:1015800027C070E060E090E88FE324C020E030E006
:10159000A901612F702F8F2D9E2D0E945B1C1816A4
:1015A0000CF48DCF212F302F4F2D5E2DB501C601AC
:1015B0000E94561987FD5AC620E030E0A901612F2C
:1015C000702F8F2D9E2D0E945B1C18160CF054C698
:1015D000B801C701272F362F492F582FB501C60153
:1015E0000E94561987FD17C020E030E040E85FE315
:1015F000612F702F8F2D9E2D0E94561987FF05C0D9
:10160000612E702E8F2C9E2C06C0612C712C70E8E0
:10161000872EEFE39E2E9301A40160E070E080E846
:101620009FE30E94E41A73C020E030E040E85FE3EB
:10163000612F702F8F2D9E2D0E94561987FD25C07A
:1016400020E030E040E85FE3B501C6010E94561992
:1016500087FF0AC020E030E0A901B501C6010E9461
:101660005B1C18160CF013C620E030E040E85FE386
:10167000612F702F8F2D9E2D0E94561987FD1BC044
:1016800070E060E090E88FE318C0212F302F4F2DDD
:101690005E2DB501C6010E94561987FDF2C520E0F6
:1016A00030E0A901612F702F8F2D9E2D0E945B1CB1
:1016B00018160CF0ECC5B801C701272F362F492F9B
:1016C000582FB501C6010E94561987FD17C020E0AA
:1016D00030E040E85FE3612F702F8F2D9E2D0E9438
:1016E000561987FF05C0612E702E8F2C9E2C06C0C8
:1016F000612C712C50E8852E6FE3962E9301A40186
:1017000060E070E080E89FE30E94E41A905820E0D7
:1017100030E04FE753E40E94BC192B013C0120E06C
:1017200030E040E85FE365966CAD7DAD8EAD9FAD7A
:1017300065970E94E51A20E030E040EC50E40E94FA
:10174000041C5B016C011B014C019B01AC0160E0BE
:1017500070E080E890E40E94E41A162F072FF82E1C
:10176000E92E20E030E040E85FE30E94561987FD53
:1017700025C020E030E040E85FE3B501C6010E94EB
:10178000561987FF0AC020E030E0A901B501C60163
:101790000E945B1C18160CF05AC020E030E040E8B4
:1017A0005FE3612F702F8F2D9E2D0E94561987FDAC
:1017B00018C070E060E090E88FE315C0212F302F53
:1017C0004F2D5E2DB501C6010E94561987FF70C0CE
:1017D00020E030E0A901B501C6010E945B1C18168B
:1017E000B4F5B801C701272F362F492F582FB5015F
:1017F000C6010E94561987FD0FC020E030E040E886
:101800005FE3612F702F8F2D9E2D0E94561987FF49
:1018100008C0B801C70109C07A2D6B2D9C2D8D2DF4
:1018200004C070E060E090E88FE3272F362F492F47
:10183000582F60E070E080E89FE30E94E41A20E007
:1018400030E0A9010E945B1C18160CF07FC020E05C
:1018500030E040E85FE3612F702F8F2D9E2D0E94B6
:10186000561987FD31C020E030E040E85FE3B50164
:10187000C6010E94561987FF0AC020E030E0A90186
:10188000B501C6010E945B1C18160CF00BC520E0C8
:1018900030E040E85FE3612F702F8F2D9E2D0E9476
:1018A000561987FD27C070E060E090E88FE324C000
:1018B00020E030E0A901612F702F8F2D9E2D0E9416
:1018C0005B1C18160CF48DCF212F302F4F2D5E2D61
:1018D000B501C6010E94561987FDDEC420E030E044
:1018E000A901612F702F8F2D9E2D0E945B1C181651
:1018F0000CF0D8C4B801C701272F362F492F582F15
:10190000B501C6010E94561987FD17C020E030E0DE
:1019100040E85FE3612F702F8F2D9E2D0E94561996
:1019200087FF05C0212E302E8F2C9E2C06C0212C27
:10193000312C30E8832E4FE3942E9101A40160E016
:1019400070E080E89FE30E94E41A73C020E030E07A
:1019500040E85FE3612F702F8F2D9E2D0E94561956
:1019600087FD25C020E030E040E85FE3B501C60117
:101970000E94561987FF0AC020E030E0A901B50196
:10198000C6010E945B1C18160CF097C420E030E0E2
:1019900040E85FE3612F702F8F2D9E2D0E94561916
:1019A00087FD1BC070E060E090E88FE318C0212F36
:1019B000302F4F2D5E2DB501C6010E94561987FDAF
:1019C00076C420E030E0A901612F702F8F2D9E2D6D
:1019D0000E945B1C18160CF070C4B801C701272FB9
:1019E000362F492F582FB501C6010E94561987FD81
:1019F00017C020E030E040E85FE3612F702F8F2DAB
:101A00009E2D0E94561987FF05C0212E302E8F2C47
:101A10009E2C06C0212C312C90E8892E2FE3922E8B
:101A20009101A40160E070E080E89FE30E94E41A65
:101A3000905820E030E04FE753E40E94BC196B015E
:101A40007C0169966CAD7DAD8EAD9FAD69970E94AE
:101A5000C31B8AE00E946C02C301B2010E94C31B37
:101A60008BE00E946C02C701B6010E94C31B89E093
:101A70000E946C026D966CAD7DAD8EAD9FAD6D9785
:101A80000E94CA1B0E94CE0387E991E00E94800158
:101A9000892BF9F069968CAD9DADAEADBFAD699760
:101AA00080937C0190937D01A0937E01B0937F0190
:101AB0004092800150928101609282017092830174
:101AC000C0928401D0928501E0928601F092870154
:101AD000F9C32F96AEADBFAD2F9711962F96BFAF1E
:101AE000AEAF2F97A836B14009F0E0CADBCA61E576
:101AF00071E0C8010E946B1E892B09F0D0C11092C1
:101B00007B0110927A018BAD9CAD0E948217659685
:101B10006CAF7DAF8EAF9FAF6597C9ACDAACD60125
:101B20000D900020E9F7F601CD010197212C312C11
:101B3000E817F90739F021912C37D1F72FEF221A46
:101B4000320AF6CF31E0231A31088DB69EB6F6017F
:101B500001900020E9F73197EC19FD098DB79EB788
:101B60008E1B9F0B0FB6F8949EBF0FBE8DBF0DB797
:101B70001EB70F5F1F4FF60101900020E9F7319764
:101B8000AF014C195D09B601C8010E94621E1EAF6B
:101B90000DAF62E371E0CE01C1960E949C13AE01CD
:101BA000435C5F4F64E571E08DAD9EAD0E94A91767
:101BB000009729F0BC01CE01C1960E94801366E512
:101BC00071E0CE0149960E949C13BE01675E7F4F73
:101BD000CE01C1960E940C139C0140E050E0BE0172
:101BE0006F5C7F4FCE010D960E94B113BE01635F03
:101BF0007F4FCE0101960E94030383E48F938AE70F
:101C00008F931F921F92ADB7BEB71C970FB6F89473
:101C1000BEBF0FBEADBF11968CE0ECE7F1E00190C6
:101C20000D928A95E1F7E980FA800B811C812D8164
:101C30003E814F81588569857A858B859C850E9478
:101C40008D04CE010D960E949713CE0149960E94F5
:101C50009713EDB7FEB770960FB6F894FEBF0FBEA0
:101C6000EDBFA12CB12CA214B3040CF00EC162E3A1
:101C700071E0CE018B960E949C13AE01435C5F4FD6
:101C800064E571E08DAD9EAD0E94A917009729F023
:101C9000BC01CE018B960E94801366E571E0CE01F7
:101CA00085960E949C13BE016B5D7F4FCE018B9683
:101CB0000E940C139C0140E050E0BE01655D7F4F27
:101CC000CE0149960E94B113BE01675E7F4FCE01DF
:101CD0000D960E940303CE0149960E949713CE01F0
:101CE00085960E94971366E571E0CE0185960E9465
:101CF0009C13BE016B5D7F4FCE01C1960E940C13F9
:101D00002DA93EA9AC014F5F5F4FBE016F5C7F4FB5
:101D1000CE0149960E94B113898D9A8D009729F0C2
:101D20000E9482172B013C0103C0412C512C32012F
:101D3000CE0149960E949713CE0185960E94971373
:101D400066E571E0CE0185960E949C13BE016B5D35
:101D50007F4FCE018B960E940C132FA538A9AC01A2
:101D60004F5F5F4FBE01655D7F4FCE0149960E9478
:101D7000B113898D9A8D009749F00E948217619660
:101D80006CAF7DAF8EAF9FAF619706C061961CAE02
:101D90001DAE1EAE1FAE6197CE0149960E949713ED
:101DA000CE0185960E949713A301920161966CADB6
:101DB0007DAD8EAD9FAD61970E94E41A65962CAD06
:101DC0003DAD4EAD5FAD65970E94BC1920E030E09F
:101DD0004AE754E40E94BC199F938F937F936F93BB
:101DE0002DB73EB72C5031090FB6F8943EBF0FBE49
:101DF0002DBFADB7BEB71196ECE7F1E08CE00190D6
:101E00000D928A95E1F7ED84FE840F851889298962
:101E10003A894B895C896D897E898F89988D0E946A
:101E20008D046BA57CA58DB79EB740960FB6F89430
:101E30009EBF0FBE8DBF6115710539F04FA558A922
:101E4000CE01C1960E945F1304C0CE01C1960E94CC
:101E50004D1387E991E00E948001892B41F4CE0166
:101E60008B960E9497139FEFA91AB90AFCCECE0158
:101E70008B960E949713CE01C1960E9497130FB6BE
:101E8000F8949EBE0FBE8DBE1DC2CE01C1960E94AB
:101E900097130FB6F8949EBE0FBE8DBE56CE63E369
:101EA00071E0C8010E946B1E892B39F563E680E062
:101EB00090E00E94851AEE24E394F12C09AD1AAD4E
:101EC000F80101900020E9F7CF01801B910BE81683
:101ED000F90660F40E0D1F1DF80131976081C701EE
:101EE0000E94851AAFEFEA1AFA0AE8CF6FEF0E9454
:101EF000851AC8010E94BE05E5C168E571E0C80108
:101F00000E946B1E892B29F410927B0110927A019A
:101F1000D9C16AE571E0C8010E946B1E892B09F0E6
:101F200055C010927A0181E080937B0189AD9AAD12
:101F30009EA38DA3AE014B5D5F4F64E571E00E94EF
:101F4000A9170097D9F0BC01CE0101960E949C13FD
:101F5000BE016F5F7F4FCE018F5B9F4F0E940303D7
:101F60008CE0FE01EF5BFF4FA0E6B1E001900D9227
:101F70008A95E1F7CE0101960E949713AE014B5D61
:101F80005F4F64E571E08DA19EA10E94A9170097A3
:101F900009F498C1BC01CE0101960E949C13BE01B8
:101FA0006F5F7F4FCE018F5B9F4F0E9403038CE0DA
:101FB000FE01EF5BFF4FACE6B1E001900D928A9518
:101FC000E1F7CE0101960E9497137CC16DE571E0A7
:101FD000C8010E946B1E892B71F410927B0181E075
:101FE00080937A0189AD9AAD0E948617909379010A
:101FF0008093780167C180917B01882309F4D3C065
:10200000F8018081082E000C990BC0970A9708F000
:1020100059C1C8010E948617BC01990F880B990B02
:102020000E945D1920E030E048EC52E40E94511B10
:102030004B015C018091600190916101A09162016E
:10204000B091630161968CAF9DAFAEAFBFAF6197AA
:102050004090640150906501609066017090670146
:10206000A3019201609170017091710180917201E0
:10207000909173010E94E41A65966CAF7DAF8EAFAC
:102080009FAF6597C0906801D0906901E0906A01A8
:10209000F0906B01A7019601609174017091750138
:1020A00080917601909177010E94E41A69966CAF55
:1020B0007DAF8EAF9FAF699761962CAD3DAD4EADB4
:1020C0005FAD619760916C0170916D0180916E01BF
:1020D00090916F010E94E41AA50194010E94BC191D
:1020E0009B01AC0161966CAD7DAD8EAD9FAD6197EE
:1020F0000E94E51A69837A838B839C83A5019401EE
:1021000065966CAD7DAD8EAD9FAD65970E94BC1997
:102110009B01AC01C301B2010E94E51A6D837E836D
:102120008F839887A501940169966CAD7DAD8EADC6
:102130009FAD69970E94BC199B01AC01C701B60114
:102140000E94E51A69877A878B879C8781E48F9341
:1021500080EF8F931F921F92ADB7BEB71C970FB63B
:10216000F894BEBF0FBEADBF11968CE0ECE7F1E076
:1021700001900D928A95E1F7E980FA800B811C812C
:102180002D813E814F81588569857A858B859C8517
:102190000E948D04EDB7FEB770960FB6F894FEBF9F
:1021A0000FBEEDBF8FC080917A01882309F48AC0E9
:1021B000B801CE010D960E949C13BE01635F7F4F54
:1021C000CE0101960E940303CE010D960E94971343
:1021D0006091780170917901072E000C880B990BA2
:1021E0000E945D199F938F937F936F932DB73EB796
:1021F0002C5031090FB6F8943EBF0FBE2DBFADB7BE
:10220000BEB711968CE0ECE7F1E001900D928A9553
:10221000E1F7E980FA800B811C812D813E814F819D
:10222000588569857A858B859C850E948D048DB73C
:102230009EB740960FB6F8949EBF0FBE8DBF42C0AA
:1022400020E030E0A901B501C60127C8612C712C3E
:10225000812C912C4AC820E030E0A901B501C601CB
:102260008FC8612C712C812C912CB2C820E030E0F9
:10227000A901B501C601A7C9612C712C812C912C33
:10228000CAC920E030E0A901B501C6010FCA612C1E
:10229000712C812C912C32CA20E030E0A901B501CB
:1022A000C60123CB212C312C812C912C46CB20E054
:1022B00030E0A901B501C6018BCB212C312C812C3A
:1022C000912CAECBA396AEADBFADA3970FB6F8944D
:1022D000BEBF0FBEADBFCE59DF4F0FB6F894DEBF05
:1022E0000FBECDBFDF91CF911F910F91FF90EF9067
:1022F000DF90CF90BF90AF909F908F907F906F9026
:102300005F904F903F902F9008951F920F920FB6BD
:102310000F9211242F933F938F939F93AF93BF936B
:102320008091890190918A01A0918B01B0918C01DB
:102330003091880123E0230F2D3720F40196A11D51
:10234000B11D05C026E8230F0296A11DB11D2093E3
:1023500088018093890190938A01A0938B01B093A7
:102360008C0180918D0190918E01A0918F01B0918F
:1023700090010196A11DB11D80938D0190938E0156
:10238000A0938F01B0939001BF91AF919F918F91D6
:102390003F912F910F900FBE0F901F901895CF92E5
:1023A000DF92EF92FF920F931F93CF93DF93CDB7FE
:1023B000DEB7CE55D1400FB6F894DEBF0FBECDBF0D
:1023C0008E010F5F1F4FEE24E394F12C6801C701CB
:1023D0000E947D1A8F3F39F0F80181938F01FFEF42
:1023E000EF1AFF0AF4CFC6010E94BE05C25ADE4FA3
:1023F0000FB6F894DEBF0FBECDBFDF91CF911F9116
:102400000F91FF90EF90DF90CF9008958091EF01B2
:1024100081110DC082E08093EB0184E08093EC0198
:102420001092EE011092ED0181E08093EF018BEEAE
:1024300091E008950E945D1ECF92DF92EF92FF928D
:102440000F931F93CF93DF931F92CDB7DEB7182F53
:10245000062FE42E862F880F8E5F99830E949303A8
:1024600083E00E949303F12EC12E9981D92E8C2DE9
:102470008F19801798F4F601E7FE02C0849101C01D
:1024800080810E949303182F80E00E949303812390
:10249000FFEFCF1ADF0A8111EACF01C081E00F9070
:1024A000DF91CF911F910F91FF90EF90DF90CF9030
:1024B0000895DF92EF92FF920F931F93CF93DF93D4
:1024C000D82E8A017B01E40EF51EEB01CE15DF0547
:1024D00071F0D7FE03C0FE01849101C088810E9483
:1024E000930321968111F2CF8FEF9FEF01C0C801B6
:1024F000DF91CF911F910F91FF90EF90DF900895A2
:102500000F931F93CF93DF931F92CDB7DEB782E077
:10251000898342E450E062E471E080E80E9459124D
:102520000E940612DC0112960D911C911397011561
:10253000110569F0D801ED91FC910280F381E02D45
:10254000BE016F5F7F4FC801099597FF07C0898162
:102550000F90DF91CF911F910F910895F8010085A1
:102560001185E5CF90E0FC01EE50FE4F2491FC0177
:10257000ED52FE4F8491882399F090E0880F991FC7
:10258000FC01EB53FE4FA591B491FC01E954FE4FC1
:10259000859194918FB7F894EC91E22BEC938FBFD7
:1025A0000895FC018091E801811103C08FEF9FEF36
:1025B00008959FB7F89482E08093E9002091F2009B
:1025C00030E01216130614F421E030E02115310535
:1025D00059F0289884E68093E7018091F100808388
:1025E0008091F200882319F09FBFC90108958BE6FE
:1025F0008093E800F9CF2FB7F89483E08093E90047
:102600009091E800892F807295FF04C09091F200AC
:1026100080E4891B2FBF0895CF93DF93FC012481B1
:102620003581232B71F0FB01DC01CD91DC916081C0
:102630007181CE010E948A1E009719F08C1B9D0BA0
:1026400002C08FEF9FEFDF91CF9108950F931F93FB
:10265000CF93DF93EC0188819981009729F02A813B
:102660003B812617370788F48B016F5F7F4F0E94ED
:10267000931D009761F0998388831B830A832C81C3
:102680003D81232B11F4FC01108281E001C080E028
:10269000DF91CF911F910F910895CF93DF93EC01BC
:1026A00088819981009711F00E94FB1C1982188281
:1026B0001D821C821B821A82DF91CF910895EF92B6
:1026C000FF920F931F93CF93DF93EC017B018A015D
:1026D000BA010E942613811104C0CE010E944D133D
:1026E00007C01D830C83B701888199810E94741EE5
:1026F000CE01DF91CF911F910F91FF90EF90089540
:10270000CF93DF93EC016115710559F0FB01019046
:102710000020E9F73197AF01461B570B0E945F136A
:1027200002C00E944D13CE01DF91CF910895FC01AC
:10273000808191810C94FB1CFC0111821082138218
:102740001282158214826115710551F0FB0101900E
:102750000020E9F73197AF01461B570B0C945F132C
:102760000895BF92CF92DF92EF92FF920F931F9343
:10277000CF93DF937C016B018A01E90124173507B0
:1027800020F4812F8901C42FD82F62E371E0C701A3
:102790000E949C13D60114968D919C911597081751
:1027A0001907D0F48C179D0708F4EC01D601ED91C0
:1027B000FC911197EC0FFD1FB08010824D915C9140
:1027C000BA01600F711FC7010E948013D601ED91FD
:1027D000FC91EC0FFD1FB082C701DF91CF911F91DB
:1027E0000F91FF90EF90DF90CF90BF9008951F92D0
:1027F0000F920FB60F9211248F939F938091E10057
:102800009091E100937F9093E10083FF0FC01092BD
:10281000E90091E09093EB001092EC0092E390932A
:10282000ED001092E80198E09093F00082FF20C044
:1028300093E09093E9009091F200992319F09AE3C4
:102840009093E80090919501992339F0909195012A
:10285000915090939501992389F19091E7019923E3
:1028600039F09091E70191509093E701992341F15C
:1028700084FF10C08091E2008E7E81608093E20030
:102880008091E1008F7E8093E100809196018E7EA1
:10289000806111C080FF16C08091E2008E7E806151
:1028A0008093E2008091E1008E7E8093E100809130
:1028B00096018E7E81608093960104C05D9ACDCF93
:1028C000289AD6CF9F918F910F900FBE0F901F9097
:1028D00018951F920F920FB60F921124CF92DF928C
:1028E000EF92FF920F931F932F933F934F935F931A
:1028F0006F937F938F939F93AF93BF93EF93FF93C8
:10290000CF93DF93CDB7DEB76C97DEBFCDBF10920C
:10291000E9008091E80083FFEDC168E0CE014596B3
:102920000E94C10382EF8093E8008D8987FF05C074
:102930009091E80090FFFCCF03C09EEF9093E800D9
:10294000982F907609F0C6C09E892F89188D911115
:102950000CC0803829F48091EA018093F10002C014
:102960001092F1001092F10048C1422F50E0512B1B
:10297000913051F4811141C14130510509F03DC1FF
:102980008091EA018D7F0BC0933061F4811135C1D4
:102990004130510509F031C18091EA018260809394
:1029A000EA012BC1953041F48091E80080FFFCCF13
:1029B00020682093E30021C1963009F05FC0EB8CC2
:1029C000FC8C1092E9001092940110929301123045
:1029D00091F510929201109291010E94801299E05B
:1029E000BE016F5F7F4FDB01E92F1D92EA95E9F78A
:1029F00099831A8391E09E8390EA98879AEF99874A
:102A00002091930130919401275F3F4F3C832B83AA
:102A10008D831092E9001092940110929301F0922C
:102A20009201E092910149E050E080E00E94591249
:102A30000E948012E2C0F0929201E09291010E9405
:102A40000612DC011296ED90FC901397E114F1044C
:102A500009F4C0C0D701ED91FC910480F581E02D0F
:102A6000BE016B5E7F4FC7010995009719F00CF00E
:102A7000C4C0C7C0F701E084F184E8CF973009F4FF
:102A8000C0C0983021F481E08093F100B6C0993045
:102A900009F0B3C0837009F0B4C0E5E2F1E081E071
:102AA00021E036E39081992361F08093E90020933F
:102AB000EB0091919093EC003093ED008F5F8730A5
:102AC00089F78EE78093EA001092EA008F8980935D
:102AD000E80193C08B8D9C8D1092E90010929401B7
:102AE000109293019093920180939101898D8111AD
:102AF00056C08E899D89913A59F4813209F081C07E
:102B000047E050E064E071E080E00E94591275C037
:102B1000913209F076C0833289F4888D90E0982F45
:102B200088272F89822BA0E0B0E08093000190934A
:102B30000101A0930201B09303015FC0803269F4E8
:102B40008091E80082FFFCCF67E084E091E00E9482
:102B5000C1038BEF8093E80006C0823209F04DC0BC
:102B60008F8980930B018091E901882319F0EEEFA2
:102B7000FAE002C0E0E0F8E08091040190910501E4
:102B8000A0910601B0910701803B9440A105B105D9
:102B900009F07BC080910B0180FF93C076C00E943A
:102BA0000612DC0112960D911C9113970115110567
:102BB00041F1D801ED91FC910190F081E02DBE0131
:102BC0006B5E7F4FC8010995811117C0F801008520
:102BD0001185ECCF113009F44EC0133091F48F8978
:102BE000882309F445C0823081F440E860E186EA38
:102BF00091E00E941C12882321F08EEF8093E80060
:102C000079C081E28093EB0075C0813029F440E8FF
:102C10006BE08AE991E0EDCF833099F70E940612CC
:102C2000DC011296ED90FC9013978E010F5F1F4F01
:102C30006801E114F10479F0D701ED91FC9106806F
:102C4000F781E02DB801C7010995080F111DF701A3
:102C5000E084F184EECFD8011C92F60101900020AF
:102C6000E9F73197BF016C197D0940E0C601C1CF7A
:102C700064E871E002C068E871E06115710509F26D
:102C8000FB01449150E080E840CF0FB6F894A8953E
:102C900080916000886180936000109260000FBE98
:102CA000A895EE3F2AE0F20739F08091FE0A909154
:102CB000FF0A91838083A1CF1092FF0A1092FE0A2F
:102CC0009CCFEE3F8AE0F80731F0808191819093AC
:102CD000FF0A8093FE0A87E797E7918380839BE052
:102CE00088E10FB6F894A895809360000FBE90938A
:102CF000600083CF6C960FB6F894DEBF0FBECDBFD9
:102D0000DF91CF91FF91EF91BF91AF919F918F9103
:102D10007F916F915F914F913F912F911F910F91F3
:102D2000FF90EF90DF90CF900F900FBE0F901F900D
:102D30001895E7E9F1E01382128288EE93E0A0E0B3
:102D4000B0E084839583A683B78386E191E0918385
:102D500080838FEF9FEF958784870895789484B55B
:102D6000826084BD84B5816084BD85B5826085BD87
:102D700085B5816085BD80916E00816080936E0015
:102D80001092810080918100826080938100809107
:102D900081008160809381008091800081608093B8
:102DA00080008091910082608093910080919100D9
:102DB0008160809391008091900081608093900069
:102DC0008091C10084608093C1008091C1008260C5
:102DD0008093C1008091C10081608093C100809187
:102DE000C30081608093C3008091C00082608093A3
:102DF000C0008091C20081608093C20080917A00FF
:102E0000846080937A0080917A00826080937A0057
:102E100080917A00816080937A0080917A00806846
:102E200080937A001092E8011092EA0110929601C4
:102E30008091D70081608093D70080EA8093D8008A
:102E400089B5806189BD89B5826089BD09B400FEFC
:102E5000FDCF61E070E080E090E00E94CE038091C1
:102E6000D8008F7C80618093D8008091E000807FC3
:102E70008093E0008091E1008E7E8093E1008DE000
:102E80008093E200559A209AEEEFFFE785919491A6
:102E90008B3F9C4D19F481E08093E9018FEF9FEF08
:102EA0009093A4018093A3018AE00E94B2128BE068
:102EB0000E94B21289E00E94B212C0910B016AE036
:102EC00070E080E090E00E94CE03CC23B1F38AE072
:102ED00090E0A0E0B0E080939B0190939C01A093D0
:102EE0009D01B0939E0180E090E00E947D1A8336A0
:102EF00011F40E94CF11C0E0D0E02097F1F30E94BE
:102F00000000FBCF662777270C94D817FC01882791
:102F10009927E89421912032E9F3293010F02E30DE
:102F2000C8F32B3241F02D3239F4689404C00E946A
:102F3000D017820F911D219120532A30C0F31EF427
:102F4000909581959F4F089547EF51E00E94A917F2
:102F50000895FA01A191B081009719F41097E1F05A
:102F6000CD01DC01CD010D90002011F4C00113C092
:102F7000FB012191222319F02015D9F7F3CFFB0192
:102F80002191201519F41E92119606C02223C1F733
:102F90000D900020A1F7D001FA01A193B08308950C
:102FA0007AE0979F902D879F802D910D1124089591
:102FB000A0E0B0E0EEEDF7E10C94A21AEC017B0189
:102FC0006115710519F0DB018D939C938E010F5FE4
:102FD0001F4F7880872D90E00E943519892B11F0C2
:102FE000E801F4CFBDE27B1205C00F5F1F4F79806F
:102FF000C1E008C0EBE27E1204C08E010E5F1F4FDD
:103000007980C0E06801F1E0CF1AD10843E050E0D8
:1030100060EF70E0C6010E943E19892BF1F468014F
:1030200022E0C20ED11C45E050E06BEE70E0C6011C
:103030000E943E19892B21F4680187E0C80ED11C3B
:10304000E114F10419F0D701CD92DC92C111FFC057
:1030500060E070E080E89FE703C143E050E068EE85
:1030600070E0C6010E943E19892B51F4E114F1046D
:1030700009F4F2C00E5F1F4FF70111830083ECC00B
:10308000680160E070E0CB0100E010E0F601D0EDF7
:10309000D70DDA3058F52C2F2260622E2C2F287095
:1030A000C2FF05C0211128C00F5F1F4F25C022237A
:1030B00011F001501109A5E0B0E09B01AC010E94A4
:1030C000931A4B015C01880C991CAA1CBB1CC501FE
:1030D000B4016D0F711D811D911D6839A9E97A0731
:1030E0008A07A9E19A0740F0C66005C0DE3F51F4A7
:1030F000C3FD44C0C8606C2EBFEFCB1ADB0A7080E2
:10310000C62DC4CF2D2F2F7D2531C1F540814D32E5
:1031100011F4C06106C04B3221F0319621E030E05D
:1031200006C03296D60111964C9122E030E0A0ED17
:10313000A40FAA3018F0E21BF30B20C040E050E0CF
:103140004038BCE05B075CF49A01220F331F220F6A
:10315000331F420F531F440F551F4A0F511D319605
:10316000DF0111972C91A0EDA20FAA3048F3C4FF04
:1031700003C0519541955109040F151FC1FF07C0A8
:10318000E114F10421F03197D701ED93FC930E94F3
:103190005B19C370C33019F06B017C0106C06B0171
:1031A0007C01F7FAF094F7F8F09420E030E0A90100
:1031B000C701B6010E945619882309F445C017FFBC
:1031C00006C0119501951109C7E0D1E002C0CFE119
:1031D000D1E05E01B8E1AB1AB1084601BE2DAF2DBA
:1031E00090E2E92EF12C0E151F0584F0FE012591C9
:1031F000359145915491B4018B2F9A2F0E94BC199F
:103200004B01B82FA92F0E191F09EDCF2497F59464
:10321000E794CA15DB0539F76401EB2EFA2E8E2DE3
:10322000880F8F2D881F8F3F49F020E030E0A901E3
:10323000C701B6010E945619811106C082E290E0D2
:103240009093FA018093F901C701B60109C060E0CB
:1032500070E080E89FEF04C060E070E080EC9FE7E2
:10326000CDB7DEB7EEE00C94BE1A91110C94291A7A
:10327000803219F089508550C8F70895FB01DC01B0
:103280004150504088F08D9181341CF08B350CF406
:10329000805E659161341CF06B350CF4605E861BBA
:1032A000611171F3990B0895881BFCCF0E94981946
:1032B00008F481E00895E89409C097FB3EF49095E6
:1032C0008095709561957F4F8F4F9F4F9923A9F0FF
:1032D000F92F96E9BB279395F6958795779567958E
:1032E000B795F111F8CFFAF4BB0F11F460FF1BC0D2
:1032F0006F5F7F4F8F4F9F4F16C0882311F096E965
:1033000011C0772321F09EE8872F762F05C0662312
:1033100071F096E8862F70E060E02AF09A95660FCB
:10332000771F881FDAF7880F9695879597F9089584
:10333000990F0008550FAA0BE0E8FEEF16161706C6
:10334000E807F907C0F012161306E407F50798F02E
:10335000621B730B840B950B39F40A2661F0232B47
:10336000242B252B21F408950A2609F4A140A695C3
:103370008FEF811D811D08950E94CF190C94431A6F
:103380000E94351A38F00E943C1A20F0952311F063
:103390000C942C1A0C94321A11240C94771A0E9453
:1033A000541A70F3959FC1F3950F50E0551F629F1B
:1033B000F001729FBB27F00DB11D639FAA27F00D8E
:1033C000B11DAA1F649F6627B00DA11D661F829FB5
:1033D0002227B00DA11D621F739FB00DA11D621F9A
:1033E000839FA00D611D221F749F3327A00D611DB7
:1033F000231F849F600D211D822F762F6A2F112499
:103400009F5750409AF0F1F088234AF0EE0FFF1FCB
:10341000BB1F661F771F881F91505040A9F79E3F22
:10342000510580F00C942C1A0C94771A5F3FE4F34A
:10343000983ED4F3869577956795B795F795E79578
:103440009F5FC1F7FE2B880F911D9695879597F981
:10345000089599278827089597F99F6780E870E075
:1034600060E008959FEF80EC089500240A941616FA
:10347000170618060906089500240A941216130662
:10348000140605060895092E0394000C11F48823F0
:1034900052F0BB0F40F4BF2B11F460FF04C06F5F0C
:1034A0007F4F8F4F9F4F089557FD9058440F551FE2
:1034B00059F05F3F71F04795880F97FB991F61F0B6
:1034C0009F3F79F087950895121613061406551F2D
:1034D000F2CF4695F1DF08C0161617061806991F99
:1034E000F1CF86957105610508940895E894BB278E
:1034F00066277727CB0197F90895F999FECF92BDFA
:1035000081BDF89A992780B50895262FF999FECFA5
:103510001FBA92BD81BD20BD0FB6F894FA9AF99AF0
:103520000FBE019608950E94D51AA59F900DB49FD5
:10353000900DA49F800D911D112408952F923F920C
:103540004F925F926F927F928F929F92AF92BF92B3
:10355000CF92DF92EF92FF920F931F93CF93DF935F
:10356000CDB7DEB7CA1BDB0B0FB6F894DEBF0FBEBC
:10357000CDBF09942A88398848885F846E847D8409
:103580008C849B84AA84B984C884DF80EE80FD800B
:103590000C811B81AA81B981CE0FD11D0FB6F89481
:1035A000DEBF0FBECDBFED010895A29FB001B39F56
:1035B000C001A39F700D811D1124911DB29F700D3C
:1035C000811D1124911D08955058BB27AA270E94E0
:1035D000FC1A0C94431A0E94351A38F00E943C1AC7
:1035E00020F039F49F3F19F426F40C94321A0EF4AB
:1035F000E095E7FB0C942C1AE92F0E94541A58F31B
:10360000BA17620773078407950720F079F4A6F5C7
:103610000C94761A0EF4E0950B2EBA2FA02D0B0108
:10362000B90190010C01CA01A0011124FF27591B07
:1036300099F0593F50F4503E68F11A16F040A22F0D
:10364000232F342F4427585FF3CF4695379527957E
:10365000A795F0405395C9F77EF41F16BA0B620B7D
:10366000730B840BBAF09150A1F0FF0FBB1F661FC4
:10367000771F881FC2F70EC0BA0F621F731F841F07
:1036800048F4879577956795B795F7959E3F08F02D
:10369000B0CF9395880F08F09927EE0F97958795EF
:1036A00008950E94651B0C94431A0E943C1A58F01E
:1036B0000E94351A40F029F45F3F29F00C942C1A2F
:1036C00051110C94771A0C94321A0E94541A68F310
:1036D0009923B1F3552391F3951B550BBB27AA27CB
:1036E00062177307840738F09F5F5F4F220F331F05
:1036F000441FAA1FA9F335D00E2E3AF0E0E832D0CD
:1037000091505040E695001CCAF72BD0FE2F29D0CF
:10371000660F771F881FBB1F261737074807AB07A1
:10372000B0E809F0BB0B802DBF01FF2793585F4F16
:103730003AF09E3F510578F00C942C1A0C94771AAD
:103740005F3FE4F3983ED4F3869577956795B795F8
:10375000F7959F5FC9F7880F911D9695879597F903
:103760000895E1E0660F771F881FBB1F621773077C
:103770008407BA0720F0621B730B840BBA0BEE1F91
:1037800088F7E09508950E94CA1B6894B1110C94C3
:10379000771A08950E945C1A88F09F5798F0B92F05
:1037A0009927B751B0F0E1F0660F771F881F991F76
:1037B0001AF0BA95C9F714C0B13091F00E94761A88
:1037C000B1E008950C94761A672F782F8827B85F98
:1037D00039F0B93FCCF3869577956795B395D9F7CE
:1037E0003EF490958095709561957F4F8F4F9F4FD8
:1037F00008950E94351A20F019F00E943C1A50F4E6
:103800000C94321A0C94771AE92F0E94541A88F3F8
:103810005523B1F3E7FB6217730784079507A8F1F7
:1038200089F3E92FFF2788232AF03197660F771F46
:10383000881FDAF7952F5527442332F091505040D6
:10384000220F331F441FD2F7BB27E91BF50B621B66
:10385000730B840BB109B1F222F4620F731F841F42
:10386000B11D31972AF0660F771F881FBB1FEFCF5E
:103870009150504062F041F0882332F0660F771F7C
:10388000881F91505040C1F793950C944D1C86951C
:10389000779567959F5FD9F7F7CF9F3F31F09150AC
:1038A00020F4879577956795B795880F911D969524
:1038B000879597F908950E94981908F48FEF089555
:1038C000EE0FFF1F0590F491E02D0994CF93DF9345
:1038D0008230910510F482E090E0E091FD01F091DA
:1038E000FE0120E030E0C0E0D0E0309711F14081EF
:1038F000518148175907C0F04817590761F4828170
:103900009381209719F09B838A832BC09093FE01AB
:103910008093FD0126C02115310519F04217530788
:1039200018F49A01BE01DF01EF010280F381E02D5E
:10393000DCCF2115310509F1281B390B2430310565
:1039400090F412968D919C9113976115710521F059
:10395000FB019383828304C09093FE018093FD0159
:10396000FD01329644C0FD01E20FF31F8193919354
:10397000225031092D933C933AC02091FB013091A4
:10398000FC01232B41F420910E0130910F01309363
:10399000FC012093FB0120910C0130910D012115B8
:1039A000310541F42DB73EB74091100150911101FE
:1039B000241B350BE091FB01F091FC01E217F307AA
:1039C000A0F42E1B3F0B2817390778F0AC014E5F8F
:1039D0005F4F2417350748F04E0F5F1F5093FC01CF
:1039E0004093FB018193919302C0E0E0F0E0CF01AE
:1039F000DF91CF9108950F931F93CF93DF9300979B
:103A000009F48CC0FC013297138212820091FD01EF
:103A10001091FE010115110581F420813181820F81
:103A2000931F2091FB013091FC012817390779F58C
:103A3000F093FC01E093FB0171C0D80140E050E03D
:103A4000AE17BF0750F412962D913C911397AD011C
:103A50002115310509F1D901F3CF9D01DA01338335
:103A6000228360817181860F971F8217930769F403
:103A7000EC0128813981260F371F2E5F3F4F31839C
:103A800020838A819B8193838283452B29F4F09341
:103A9000FE01E093FD0142C01396FC93EE93129752
:103AA000ED01499159919E01240F351FE217F3074B
:103AB00071F480819181840F951F029611969C93D9
:103AC0008E938281938113969C938E931297E0E05C
:103AD000F0E0D80112968D919C911397009719F000
:103AE000F8018C01F6CF8D919C9198012E5F3F4F8C
:103AF000820F931F2091FB013091FC012817390799
:103B000069F4309729F41092FE011092FD0102C071
:103B1000138212821093FC010093FB01DF91CF917D
:103B20001F910F910895A0E0B0E0E9E9FDE10C9448
:103B3000A21AEC01009721F4CB010E94661CB8C0C8
:103B4000FC01E60FF71F9C0122503109E217F30731
:103B500008F4ACC0D9010D911C91119706171707F5
:103B6000B0F00530110508F49FC0C801049786170E
:103B7000970708F499C002501109061B170B01930F
:103B800011936D937C93CF010E94FB1C8DC05B0150
:103B9000A01AB10A4C01800E911EA091FD01B091B6
:103BA000FE0140E050E0E12CF12C109709F44AC0EE
:103BB000A815B905D1F56D907C901197630182E04D
:103BC000C80ED11CCA14DB0480F1A3014A195B0999
:103BD0006A0182E0C80ED11C1296BC90129713960F
:103BE000AC91B5E0CB16D10440F0B282A3835183EF
:103BF0004083D9016D937C930AC00E5F1F4FC301B0
:103C0000800F911FF90191838083EB2DFA2FE1142E
:103C1000F10431F0D7011396FC93EE93129744C050
:103C2000F093FE01E093FD013FC08D919C911197AF
:103C30004817590708F4AC017D0112960D90BC910C
:103C4000A02DB3CF8091FB019091FC0188159905BF
:103C5000E1F446175707C8F480910C0190910D01CB
:103C6000009741F48DB79EB740911001509111011A
:103C7000841B950BE817F907C8F4F093FC01E09357
:103C8000FB01F901718360830FC0CB010E94661CA8
:103C90007C01009759F0A801BE010E94621ECE016E
:103CA0000E94FB1CC70104C0CE0102C080E090E06E
:103CB000CDB7DEB7EEE00C94BE1A81E090E0F89448
:103CC0000C94A41EFB01DC0102C001900D92415036
:103CD0005040D8F70895FB01DC018D9101908019C7
:103CE0000110D9F3990B0895FB01DC0101900D92AD
:103CF0000020E1F70895FB01DC014150504048F0FD
:103D000001900D920020C9F701C01D924150504012
:103D1000E0F70895FB0151915523A9F0BF01DC01A3
:103D20004D9145174111E1F759F4CD010190002063
:103D300049F04D9140154111C9F3FB014111EFCFFD
:0C3D400081E090E001970895F894FFCF17
:103D4C00FFFFFFFF00E10000000000000000FF018A
:103D5C008000000000005F0108042602750180014C
:103D6C002A02480200C1808100000009000B000AF1
:103D7C00002C0073617665003A0073740062720067
:103D8C00302C302C30007261003235352C302C3018
:103D9C00007365007C003B00690061750073630073
:00000001FF
